{
  "contractName": "Nfto",
  "abi": [
    {
      "inputs": [],
      "stateMutability": "nonpayable",
      "type": "constructor"
    },
    {
      "anonymous": false,
      "inputs": [
        {
          "indexed": true,
          "internalType": "address",
          "name": "owner",
          "type": "address"
        },
        {
          "indexed": true,
          "internalType": "address",
          "name": "approved",
          "type": "address"
        },
        {
          "indexed": true,
          "internalType": "uint256",
          "name": "tokenId",
          "type": "uint256"
        }
      ],
      "name": "Approval",
      "type": "event"
    },
    {
      "anonymous": false,
      "inputs": [
        {
          "indexed": true,
          "internalType": "address",
          "name": "owner",
          "type": "address"
        },
        {
          "indexed": true,
          "internalType": "address",
          "name": "operator",
          "type": "address"
        },
        {
          "indexed": false,
          "internalType": "bool",
          "name": "approved",
          "type": "bool"
        }
      ],
      "name": "ApprovalForAll",
      "type": "event"
    },
    {
      "anonymous": false,
      "inputs": [
        {
          "indexed": false,
          "internalType": "uint256",
          "name": "id",
          "type": "uint256"
        },
        {
          "indexed": false,
          "internalType": "uint256",
          "name": "eCount",
          "type": "uint256"
        },
        {
          "indexed": false,
          "internalType": "uint256",
          "name": "dCount",
          "type": "uint256"
        },
        {
          "indexed": false,
          "internalType": "bool",
          "name": "isListed",
          "type": "bool"
        }
      ],
      "name": "ItemListed",
      "type": "event"
    },
    {
      "anonymous": false,
      "inputs": [
        {
          "indexed": false,
          "internalType": "uint256",
          "name": "id",
          "type": "uint256"
        },
        {
          "indexed": false,
          "internalType": "string",
          "name": "name",
          "type": "string"
        },
        {
          "indexed": false,
          "internalType": "string",
          "name": "description",
          "type": "string"
        },
        {
          "indexed": false,
          "internalType": "address payable",
          "name": "owner",
          "type": "address"
        }
      ],
      "name": "ItemMinted",
      "type": "event"
    },
    {
      "anonymous": false,
      "inputs": [
        {
          "indexed": true,
          "internalType": "address",
          "name": "from",
          "type": "address"
        },
        {
          "indexed": true,
          "internalType": "address",
          "name": "to",
          "type": "address"
        },
        {
          "indexed": true,
          "internalType": "uint256",
          "name": "tokenId",
          "type": "uint256"
        }
      ],
      "name": "Transfer",
      "type": "event"
    },
    {
      "inputs": [
        {
          "internalType": "address",
          "name": "to",
          "type": "address"
        },
        {
          "internalType": "uint256",
          "name": "tokenId",
          "type": "uint256"
        }
      ],
      "name": "approve",
      "outputs": [],
      "stateMutability": "nonpayable",
      "type": "function"
    },
    {
      "inputs": [
        {
          "internalType": "address",
          "name": "owner",
          "type": "address"
        }
      ],
      "name": "balanceOf",
      "outputs": [
        {
          "internalType": "uint256",
          "name": "",
          "type": "uint256"
        }
      ],
      "stateMutability": "view",
      "type": "function",
      "constant": true
    },
    {
      "inputs": [],
      "name": "baseURI",
      "outputs": [
        {
          "internalType": "string",
          "name": "",
          "type": "string"
        }
      ],
      "stateMutability": "view",
      "type": "function",
      "constant": true
    },
    {
      "inputs": [
        {
          "internalType": "uint256",
          "name": "tokenId",
          "type": "uint256"
        }
      ],
      "name": "getApproved",
      "outputs": [
        {
          "internalType": "address",
          "name": "",
          "type": "address"
        }
      ],
      "stateMutability": "view",
      "type": "function",
      "constant": true
    },
    {
      "inputs": [
        {
          "internalType": "address",
          "name": "owner",
          "type": "address"
        },
        {
          "internalType": "address",
          "name": "operator",
          "type": "address"
        }
      ],
      "name": "isApprovedForAll",
      "outputs": [
        {
          "internalType": "bool",
          "name": "",
          "type": "bool"
        }
      ],
      "stateMutability": "view",
      "type": "function",
      "constant": true
    },
    {
      "inputs": [],
      "name": "name",
      "outputs": [
        {
          "internalType": "string",
          "name": "",
          "type": "string"
        }
      ],
      "stateMutability": "view",
      "type": "function",
      "constant": true
    },
    {
      "inputs": [
        {
          "internalType": "uint256",
          "name": "tokenId",
          "type": "uint256"
        }
      ],
      "name": "ownerOf",
      "outputs": [
        {
          "internalType": "address",
          "name": "",
          "type": "address"
        }
      ],
      "stateMutability": "view",
      "type": "function",
      "constant": true
    },
    {
      "inputs": [
        {
          "internalType": "address",
          "name": "from",
          "type": "address"
        },
        {
          "internalType": "address",
          "name": "to",
          "type": "address"
        },
        {
          "internalType": "uint256",
          "name": "tokenId",
          "type": "uint256"
        }
      ],
      "name": "safeTransferFrom",
      "outputs": [],
      "stateMutability": "nonpayable",
      "type": "function"
    },
    {
      "inputs": [
        {
          "internalType": "address",
          "name": "from",
          "type": "address"
        },
        {
          "internalType": "address",
          "name": "to",
          "type": "address"
        },
        {
          "internalType": "uint256",
          "name": "tokenId",
          "type": "uint256"
        },
        {
          "internalType": "bytes",
          "name": "_data",
          "type": "bytes"
        }
      ],
      "name": "safeTransferFrom",
      "outputs": [],
      "stateMutability": "nonpayable",
      "type": "function"
    },
    {
      "inputs": [
        {
          "internalType": "address",
          "name": "operator",
          "type": "address"
        },
        {
          "internalType": "bool",
          "name": "approved",
          "type": "bool"
        }
      ],
      "name": "setApprovalForAll",
      "outputs": [],
      "stateMutability": "nonpayable",
      "type": "function"
    },
    {
      "inputs": [
        {
          "internalType": "bytes4",
          "name": "interfaceId",
          "type": "bytes4"
        }
      ],
      "name": "supportsInterface",
      "outputs": [
        {
          "internalType": "bool",
          "name": "",
          "type": "bool"
        }
      ],
      "stateMutability": "view",
      "type": "function",
      "constant": true
    },
    {
      "inputs": [],
      "name": "symbol",
      "outputs": [
        {
          "internalType": "string",
          "name": "",
          "type": "string"
        }
      ],
      "stateMutability": "view",
      "type": "function",
      "constant": true
    },
    {
      "inputs": [
        {
          "internalType": "uint256",
          "name": "index",
          "type": "uint256"
        }
      ],
      "name": "tokenByIndex",
      "outputs": [
        {
          "internalType": "uint256",
          "name": "",
          "type": "uint256"
        }
      ],
      "stateMutability": "view",
      "type": "function",
      "constant": true
    },
    {
      "inputs": [
        {
          "internalType": "address",
          "name": "owner",
          "type": "address"
        },
        {
          "internalType": "uint256",
          "name": "index",
          "type": "uint256"
        }
      ],
      "name": "tokenOfOwnerByIndex",
      "outputs": [
        {
          "internalType": "uint256",
          "name": "",
          "type": "uint256"
        }
      ],
      "stateMutability": "view",
      "type": "function",
      "constant": true
    },
    {
      "inputs": [
        {
          "internalType": "uint256",
          "name": "tokenId",
          "type": "uint256"
        }
      ],
      "name": "tokenURI",
      "outputs": [
        {
          "internalType": "string",
          "name": "",
          "type": "string"
        }
      ],
      "stateMutability": "view",
      "type": "function",
      "constant": true
    },
    {
      "inputs": [],
      "name": "totalSupply",
      "outputs": [
        {
          "internalType": "uint256",
          "name": "",
          "type": "uint256"
        }
      ],
      "stateMutability": "view",
      "type": "function",
      "constant": true
    },
    {
      "inputs": [
        {
          "internalType": "address",
          "name": "from",
          "type": "address"
        },
        {
          "internalType": "address",
          "name": "to",
          "type": "address"
        },
        {
          "internalType": "uint256",
          "name": "tokenId",
          "type": "uint256"
        }
      ],
      "name": "transferFrom",
      "outputs": [],
      "stateMutability": "nonpayable",
      "type": "function"
    },
    {
      "inputs": [],
      "name": "retValues",
      "outputs": [
        {
          "internalType": "uint256",
          "name": "",
          "type": "uint256"
        },
        {
          "internalType": "uint256",
          "name": "",
          "type": "uint256"
        },
        {
          "internalType": "uint256",
          "name": "",
          "type": "uint256"
        },
        {
          "internalType": "uint256",
          "name": "",
          "type": "uint256"
        },
        {
          "internalType": "uint256",
          "name": "",
          "type": "uint256"
        }
      ],
      "stateMutability": "view",
      "type": "function",
      "constant": true
    },
    {
      "inputs": [
        {
          "internalType": "uint256",
          "name": "_price",
          "type": "uint256"
        },
        {
          "internalType": "string",
          "name": "_name",
          "type": "string"
        },
        {
          "internalType": "string",
          "name": "_description",
          "type": "string"
        },
        {
          "internalType": "string",
          "name": "_cid",
          "type": "string"
        }
      ],
      "name": "mintItem",
      "outputs": [],
      "stateMutability": "nonpayable",
      "type": "function"
    },
    {
      "inputs": [
        {
          "internalType": "uint256",
          "name": "_id",
          "type": "uint256"
        },
        {
          "internalType": "string",
          "name": "_type",
          "type": "string"
        },
        {
          "internalType": "uint256",
          "name": "_price",
          "type": "uint256"
        }
      ],
      "name": "listItem",
      "outputs": [],
      "stateMutability": "nonpayable",
      "type": "function"
    },
    {
      "inputs": [
        {
          "internalType": "uint256",
          "name": "_id",
          "type": "uint256"
        },
        {
          "internalType": "uint256",
          "name": "_tId",
          "type": "uint256"
        },
        {
          "internalType": "uint256",
          "name": "_amount",
          "type": "uint256"
        },
        {
          "internalType": "string",
          "name": "_type",
          "type": "string"
        }
      ],
      "name": "makeOffer",
      "outputs": [],
      "stateMutability": "nonpayable",
      "type": "function"
    },
    {
      "inputs": [
        {
          "internalType": "uint256",
          "name": "_id",
          "type": "uint256"
        }
      ],
      "name": "approveOffer",
      "outputs": [],
      "stateMutability": "nonpayable",
      "type": "function"
    },
    {
      "inputs": [
        {
          "internalType": "uint256",
          "name": "_tId",
          "type": "uint256"
        }
      ],
      "name": "purchaseItem",
      "outputs": [],
      "stateMutability": "payable",
      "type": "function",
      "payable": true
    }
  ],
  "bytecode": "0x60806040523480156200001157600080fd5b506040518060400160405280600481526020017f4e66746f000000000000000000000000000000000000000000000000000000008152506040518060400160405280600481526020017f4e46544f00000000000000000000000000000000000000000000000000000000815250620000966301ffc9a760e01b6200011860201b60201c565b8160069080519060200190620000ae92919062000221565b508060079080519060200190620000c792919062000221565b50620000e06380ac58cd60e01b6200011860201b60201c565b620000f8635b5e139f60e01b6200011860201b60201c565b6200011063780e9d6360e01b6200011860201b60201c565b5050620002c7565b63ffffffff60e01b817bffffffffffffffffffffffffffffffffffffffffffffffffffffffff19161415620001b5576040517f08c379a000000000000000000000000000000000000000000000000000000000815260040180806020018281038252601c8152602001807f4552433136353a20696e76616c696420696e746572666163652069640000000081525060200191505060405180910390fd5b6001600080837bffffffffffffffffffffffffffffffffffffffffffffffffffffffff19167bffffffffffffffffffffffffffffffffffffffffffffffffffffffff1916815260200190815260200160002060006101000a81548160ff02191690831515021790555050565b828054600181600116156101000203166002900490600052602060002090601f016020900481019282601f106200026457805160ff191683800117855562000295565b8280016001018555821562000295579182015b828111156200029457825182559160200191906001019062000277565b5b509050620002a49190620002a8565b5090565b5b80821115620002c3576000816000905550600101620002a9565b5090565b61560480620002d76000396000f3fe6080604052600436106101405760003560e01c80635265358b116100b6578063a22cb4651161006f578063a22cb46514610ad7578063a5d7c10a14610b34578063b88d4fde14610b6f578063c87b56dd14610c81578063d38ea5bf14610d35578063e985e9c514610d6357610140565b80635265358b146107c057806355fad461146108a65780636352211e146108ed5780636c0360eb1461095257806370a08231146109e257806395d89b4114610a4757610140565b806318160ddd1161010857806318160ddd146103e157806323b872dd1461040c5780632f745c591461048757806342842e0e146104f657806343024f98146105715780634f6ccce71461077157610140565b806301ffc9a714610145578063069a3d4c146101b557806306fdde0314610291578063081812fc14610321578063095ea7b314610386575b600080fd5b34801561015157600080fd5b5061019d6004803603602081101561016857600080fd5b8101908080357bffffffffffffffffffffffffffffffffffffffffffffffffffffffff19169060200190929190505050610dea565b60405180821515815260200191505060405180910390f35b3480156101c157600080fd5b5061028f600480360360608110156101d857600080fd5b8101908080359060200190929190803590602001906401000000008111156101ff57600080fd5b82018360208201111561021157600080fd5b8035906020019184600183028401116401000000008311171561023357600080fd5b91908080601f016020809104026020016040519081016040528093929190818152602001838380828437600081840152601f19601f82011690508083019250505050505050919291929080359060200190929190505050610e51565b005b34801561029d57600080fd5b506102a6611639565b6040518080602001828103825283818151815260200191508051906020019080838360005b838110156102e65780820151818401526020810190506102cb565b50505050905090810190601f1680156103135780820380516001836020036101000a031916815260200191505b509250505060405180910390f35b34801561032d57600080fd5b5061035a6004803603602081101561034457600080fd5b81019080803590602001909291905050506116db565b604051808273ffffffffffffffffffffffffffffffffffffffff16815260200191505060405180910390f35b34801561039257600080fd5b506103df600480360360408110156103a957600080fd5b81019080803573ffffffffffffffffffffffffffffffffffffffff16906020019092919080359060200190929190505050611776565b005b3480156103ed57600080fd5b506103f66118ba565b6040518082815260200191505060405180910390f35b34801561041857600080fd5b506104856004803603606081101561042f57600080fd5b81019080803573ffffffffffffffffffffffffffffffffffffffff169060200190929190803573ffffffffffffffffffffffffffffffffffffffff169060200190929190803590602001909291905050506118cb565b005b34801561049357600080fd5b506104e0600480360360408110156104aa57600080fd5b81019080803573ffffffffffffffffffffffffffffffffffffffff16906020019092919080359060200190929190505050611941565b6040518082815260200191505060405180910390f35b34801561050257600080fd5b5061056f6004803603606081101561051957600080fd5b81019080803573ffffffffffffffffffffffffffffffffffffffff169060200190929190803573ffffffffffffffffffffffffffffffffffffffff1690602001909291908035906020019092919050505061199c565b005b34801561057d57600080fd5b5061076f6004803603608081101561059457600080fd5b8101908080359060200190929190803590602001906401000000008111156105bb57600080fd5b8201836020820111156105cd57600080fd5b803590602001918460018302840111640100000000831117156105ef57600080fd5b91908080601f016020809104026020016040519081016040528093929190818152602001838380828437600081840152601f19601f8201169050808301925050505050505091929192908035906020019064010000000081111561065257600080fd5b82018360208201111561066457600080fd5b8035906020019184600183028401116401000000008311171561068657600080fd5b91908080601f016020809104026020016040519081016040528093929190818152602001838380828437600081840152601f19601f820116905080830192505050505050509192919290803590602001906401000000008111156106e957600080fd5b8201836020820111156106fb57600080fd5b8035906020019184600183028401116401000000008311171561071d57600080fd5b91908080601f016020809104026020016040519081016040528093929190818152602001838380828437600081840152601f19601f8201169050808301925050505050505091929192905050506119bc565b005b34801561077d57600080fd5b506107aa6004803603602081101561079457600080fd5b8101908080359060200190929190505050611ccb565b6040518082815260200191505060405180910390f35b3480156107cc57600080fd5b506108a4600480360360808110156107e357600080fd5b810190808035906020019092919080359060200190929190803590602001909291908035906020019064010000000081111561081e57600080fd5b82018360208201111561083057600080fd5b8035906020019184600183028401116401000000008311171561085257600080fd5b91908080601f016020809104026020016040519081016040528093929190818152602001838380828437600081840152601f19601f820116905080830192505050505050509192919290505050611cee565b005b3480156108b257600080fd5b506108bb612e94565b604051808681526020018581526020018481526020018381526020018281526020019550505050505060405180910390f35b3480156108f957600080fd5b506109266004803603602081101561091057600080fd5b8101908080359060200190929190505050612ebc565b604051808273ffffffffffffffffffffffffffffffffffffffff16815260200191505060405180910390f35b34801561095e57600080fd5b50610967612ef3565b6040518080602001828103825283818151815260200191508051906020019080838360005b838110156109a757808201518184015260208101905061098c565b50505050905090810190601f1680156109d45780820380516001836020036101000a031916815260200191505b509250505060405180910390f35b3480156109ee57600080fd5b50610a3160048036036020811015610a0557600080fd5b81019080803573ffffffffffffffffffffffffffffffffffffffff169060200190929190505050612f95565b6040518082815260200191505060405180910390f35b348015610a5357600080fd5b50610a5c61306a565b6040518080602001828103825283818151815260200191508051906020019080838360005b83811015610a9c578082015181840152602081019050610a81565b50505050905090810190601f168015610ac95780820380516001836020036101000a031916815260200191505b509250505060405180910390f35b348015610ae357600080fd5b50610b3260048036036040811015610afa57600080fd5b81019080803573ffffffffffffffffffffffffffffffffffffffff16906020019092919080351515906020019092919050505061310c565b005b348015610b4057600080fd5b50610b6d60048036036020811015610b5757600080fd5b81019080803590602001909291905050506132c2565b005b348015610b7b57600080fd5b50610c7f60048036036080811015610b9257600080fd5b81019080803573ffffffffffffffffffffffffffffffffffffffff169060200190929190803573ffffffffffffffffffffffffffffffffffffffff1690602001909291908035906020019092919080359060200190640100000000811115610bf957600080fd5b820183602082011115610c0b57600080fd5b80359060200191846001830284011164010000000083111715610c2d57600080fd5b91908080601f016020809104026020016040519081016040528093929190818152602001838380828437600081840152601f19601f82011690508083019250505050505050919291929050505061356a565b005b348015610c8d57600080fd5b50610cba60048036036020811015610ca457600080fd5b81019080803590602001909291905050506135e2565b6040518080602001828103825283818151815260200191508051906020019080838360005b83811015610cfa578082015181840152602081019050610cdf565b50505050905090810190601f168015610d275780820380516001836020036101000a031916815260200191505b509250505060405180910390f35b610d6160048036036020811015610d4b57600080fd5b81019080803590602001909291905050506138b3565b005b348015610d6f57600080fd5b50610dd260048036036040811015610d8657600080fd5b81019080803573ffffffffffffffffffffffffffffffffffffffff169060200190929190803573ffffffffffffffffffffffffffffffffffffffff169060200190929190505050613d8b565b60405180821515815260200191505060405180910390f35b6000806000837bffffffffffffffffffffffffffffffffffffffffffffffffffffffff19167bffffffffffffffffffffffffffffffffffffffffffffffffffffffff1916815260200190815260200160002060009054906101000a900460ff169050919050565b600083118015610e635750600a548311155b610ed5576040517f08c379a000000000000000000000000000000000000000000000000000000000815260040180806020018281038252600a8152602001807f496e76616c69642049640000000000000000000000000000000000000000000081525060200191505060405180910390fd5b60405160200180807f656e676c69736800000000000000000000000000000000000000000000000000815250600701905060405160208183030381529060405280519060200120826040516020018082805190602001908083835b60208310610f535780518252602082019150602081019050602083039250610f30565b6001836020036101000a03801982511681845116808217855250505050505090500191505060405160208183030381529060405280519060200120141561111357600c60008154809291906001019190505550600f600084815260200190815260200160002060116000600c548152602001908152602001600020600082015481600001556001820154816001015560028201816002019080546001816001161561010002031660029004611009929190615178565b5060038201816003019080546001816001161561010002031660029004611031929190615178565b5060048201816004019080546001816001161561010002031660029004611059929190615178565b506005820160009054906101000a900460ff168160050160006101000a81548160ff0219169083151502179055506005820160019054906101000a900473ffffffffffffffffffffffffffffffffffffffff168160050160016101000a81548173ffffffffffffffffffffffffffffffffffffffff021916908373ffffffffffffffffffffffffffffffffffffffff1602179055509050508060116000600c5481526020019081526020016000206001018190555061158d565b60405160200180807f6475746368000000000000000000000000000000000000000000000000000000815250600501905060405160208183030381529060405280519060200120826040516020018082805190602001908083835b60208310611191578051825260208201915060208101905060208303925061116e565b6001836020036101000a03801982511681845116808217855250505050505090500191505060405160208183030381529060405280519060200120141561135157600d60008154809291906001019190505550600f600084815260200190815260200160002060126000600d548152602001908152602001600020600082015481600001556001820154816001015560028201816002019080546001816001161561010002031660029004611247929190615178565b506003820181600301908054600181600116156101000203166002900461126f929190615178565b5060048201816004019080546001816001161561010002031660029004611297929190615178565b506005820160009054906101000a900460ff168160050160006101000a81548160ff0219169083151502179055506005820160019054906101000a900473ffffffffffffffffffffffffffffffffffffffff168160050160016101000a81548173ffffffffffffffffffffffffffffffffffffffff021916908373ffffffffffffffffffffffffffffffffffffffff1602179055509050508060126000600d5481526020019081526020016000206001018190555061158c565b60405160200180807f7669636b65727900000000000000000000000000000000000000000000000000815250600701905060405160208183030381529060405280519060200120826040516020018082805190602001908083835b602083106113cf57805182526020820191506020810190506020830392506113ac565b6001836020036101000a03801982511681845116808217855250505050505090500191505060405160208183030381529060405280519060200120141561158b57600e60008154809291906001019190505550600f600084815260200190815260200160002060136000600e548152602001908152602001600020600082015481600001556001820154816001015560028201816002019080546001816001161561010002031660029004611485929190615178565b50600382018160030190805460018160011615610100020316600290046114ad929190615178565b50600482018160040190805460018160011615610100020316600290046114d5929190615178565b506005820160009054906101000a900460ff168160050160006101000a81548160ff0219169083151502179055506005820160019054906101000a900473ffffffffffffffffffffffffffffffffffffffff168160050160016101000a81548173ffffffffffffffffffffffffffffffffffffffff021916908373ffffffffffffffffffffffffffffffffffffffff1602179055509050508060136000600e548152602001908152602001600020600101819055505b5b5b6001600f600085815260200190815260200160002060050160006101000a81548160ff0219169083151502179055507fdbb143ffe2712ccf6aa7668c5f469aa47c60030cb64b47b379d1a4cacfe8f50683600c54600d54600f600088815260200190815260200160002060050160009054906101000a900460ff1660405180858152602001848152602001838152602001821515815260200194505050505060405180910390a1505050565b606060068054600181600116156101000203166002900480601f0160208091040260200160405190810160405280929190818152602001828054600181600116156101000203166002900480156116d15780601f106116a6576101008083540402835291602001916116d1565b820191906000526020600020905b8154815290600101906020018083116116b457829003601f168201915b5050505050905090565b60006116e682613e1f565b61173b576040517f08c379a000000000000000000000000000000000000000000000000000000000815260040180806020018281038252602c8152602001806154cd602c913960400191505060405180910390fd5b6004600083815260200190815260200160002060009054906101000a900473ffffffffffffffffffffffffffffffffffffffff169050919050565b600061178182612ebc565b90508073ffffffffffffffffffffffffffffffffffffffff168373ffffffffffffffffffffffffffffffffffffffff161415611808576040517f08c379a000000000000000000000000000000000000000000000000000000000815260040180806020018281038252602181526020018061557d6021913960400191505060405180910390fd5b8073ffffffffffffffffffffffffffffffffffffffff16611827613e3c565b73ffffffffffffffffffffffffffffffffffffffff161480611856575061185581611850613e3c565b613d8b565b5b6118ab576040517f08c379a00000000000000000000000000000000000000000000000000000000081526004018080602001828103825260388152602001806154206038913960400191505060405180910390fd5b6118b58383613e44565b505050565b60006118c66002613efd565b905090565b6118dc6118d6613e3c565b82613f12565b611931576040517f08c379a000000000000000000000000000000000000000000000000000000000815260040180806020018281038252603181526020018061559e6031913960400191505060405180910390fd5b61193c838383614006565b505050565b600061199482600160008673ffffffffffffffffffffffffffffffffffffffff1673ffffffffffffffffffffffffffffffffffffffff16815260200190815260200160002061424990919063ffffffff16565b905092915050565b6119b78383836040518060200160405280600081525061356a565b505050565b60008411611a32576040517f08c379a000000000000000000000000000000000000000000000000000000000815260040180806020018281038252600d8152602001807f496e76616c69642070726963650000000000000000000000000000000000000081525060200191505060405180910390fd5b600a60008154809291906001019190505550611a5033600a54614263565b611a5c600a5482614281565b6040518060e00160405280600a5481526020018581526020018481526020018381526020018281526020016000151581526020013373ffffffffffffffffffffffffffffffffffffffff16815250600f6000600a54815260200190815260200160002060008201518160000155602082015181600101556040820151816002019080519060200190611aef9291906151ff565b506060820151816003019080519060200190611b0c9291906151ff565b506080820151816004019080519060200190611b299291906151ff565b5060a08201518160050160006101000a81548160ff02191690831515021790555060c08201518160050160016101000a81548173ffffffffffffffffffffffffffffffffffffffff021916908373ffffffffffffffffffffffffffffffffffffffff1602179055509050507fe4cffcc9f9bdfb7473cca05e3a71eecac250ed1c78723d3c4c97ce3c12b1140e600a548484336040518085815260200180602001806020018473ffffffffffffffffffffffffffffffffffffffff168152602001838103835286818151815260200191508051906020019080838360005b83811015611c21578082015181840152602081019050611c06565b50505050905090810190601f168015611c4e5780820380516001836020036101000a031916815260200191505b50838103825285818151815260200191508051906020019080838360005b83811015611c87578082015181840152602081019050611c6c565b50505050905090810190601f168015611cb45780820380516001836020036101000a031916815260200191505b50965050505050505060405180910390a150505050565b600080611ce283600261430b90919063ffffffff16565b50905080915050919050565b611cf661527f565b600f60008581526020019081526020016000206040518060e00160405290816000820154815260200160018201548152602001600282018054600181600116156101000203166002900480601f016020809104026020016040519081016040528092919081815260200182805460018160011615610100020316600290048015611dc15780601f10611d9657610100808354040283529160200191611dc1565b820191906000526020600020905b815481529060010190602001808311611da457829003601f168201915b50505050508152602001600382018054600181600116156101000203166002900480601f016020809104026020016040519081016040528092919081815260200182805460018160011615610100020316600290048015611e635780601f10611e3857610100808354040283529160200191611e63565b820191906000526020600020905b815481529060010190602001808311611e4657829003601f168201915b50505050508152602001600482018054600181600116156101000203166002900480601f016020809104026020016040519081016040528092919081815260200182805460018160011615610100020316600290048015611f055780601f10611eda57610100808354040283529160200191611f05565b820191906000526020600020905b815481529060010190602001808311611ee857829003601f168201915b505050505081526020016005820160009054906101000a900460ff161515151581526020016005820160019054906101000a900473ffffffffffffffffffffffffffffffffffffffff1673ffffffffffffffffffffffffffffffffffffffff1673ffffffffffffffffffffffffffffffffffffffff16815250509050600b600081548092919060010191905055506040518060c00160405280600b5481526020018581526020018481526020013373ffffffffffffffffffffffffffffffffffffffff1681526020018260c0015173ffffffffffffffffffffffffffffffffffffffff1681526020016000151581525060106000600b54815260200190815260200160002060008201518160000155602082015181600101556040820151816002015560608201518160030160006101000a81548173ffffffffffffffffffffffffffffffffffffffff021916908373ffffffffffffffffffffffffffffffffffffffff16021790555060808201518160040160006101000a81548173ffffffffffffffffffffffffffffffffffffffff021916908373ffffffffffffffffffffffffffffffffffffffff16021790555060a08201518160040160146101000a81548160ff02191690831515021790555090505060405160200180807f656e676c69736800000000000000000000000000000000000000000000000000815250600701905060405160208183030381529060405280519060200120826040516020018082805190602001908083835b602083106121575780518252602082019150602081019050602083039250612134565b6001836020036101000a038019825116818451168082178552505050505050905001915050604051602081830303815290604052805190602001201415612524576121a061527f565b601160008781526020019081526020016000206040518060e00160405290816000820154815260200160018201548152602001600282018054600181600116156101000203166002900480601f01602080910402602001604051908101604052809291908181526020018280546001816001161561010002031660029004801561226b5780601f106122405761010080835404028352916020019161226b565b820191906000526020600020905b81548152906001019060200180831161224e57829003601f168201915b50505050508152602001600382018054600181600116156101000203166002900480601f01602080910402602001604051908101604052809291908181526020018280546001816001161561010002031660029004801561230d5780601f106122e25761010080835404028352916020019161230d565b820191906000526020600020905b8154815290600101906020018083116122f057829003601f168201915b50505050508152602001600482018054600181600116156101000203166002900480601f0160208091040260200160405190810160405280929190818152602001828054600181600116156101000203166002900480156123af5780601f10612384576101008083540402835291602001916123af565b820191906000526020600020905b81548152906001019060200180831161239257829003601f168201915b505050505081526020016005820160009054906101000a900460ff161515151581526020016005820160019054906101000a900473ffffffffffffffffffffffffffffffffffffffff1673ffffffffffffffffffffffffffffffffffffffff1673ffffffffffffffffffffffffffffffffffffffff16815250509050838160200181815250508060116000888152602001908152602001600020600082015181600001556020820151816001015560408201518160020190805190602001906124799291906151ff565b5060608201518160030190805190602001906124969291906151ff565b5060808201518160040190805190602001906124b39291906151ff565b5060a08201518160050160006101000a81548160ff02191690831515021790555060c08201518160050160016101000a81548173ffffffffffffffffffffffffffffffffffffffff021916908373ffffffffffffffffffffffffffffffffffffffff16021790555090505050612e8d565b60405160200180807f6475746368000000000000000000000000000000000000000000000000000000815250600501905060405160208183030381529060405280519060200120826040516020018082805190602001908083835b602083106125a2578051825260208201915060208101905060208303925061257f565b6001836020036101000a03801982511681845116808217855250505050505090500191505060405160208183030381529060405280519060200120141561296f576125eb61527f565b601260008781526020019081526020016000206040518060e00160405290816000820154815260200160018201548152602001600282018054600181600116156101000203166002900480601f0160208091040260200160405190810160405280929190818152602001828054600181600116156101000203166002900480156126b65780601f1061268b576101008083540402835291602001916126b6565b820191906000526020600020905b81548152906001019060200180831161269957829003601f168201915b50505050508152602001600382018054600181600116156101000203166002900480601f0160208091040260200160405190810160405280929190818152602001828054600181600116156101000203166002900480156127585780601f1061272d57610100808354040283529160200191612758565b820191906000526020600020905b81548152906001019060200180831161273b57829003601f168201915b50505050508152602001600482018054600181600116156101000203166002900480601f0160208091040260200160405190810160405280929190818152602001828054600181600116156101000203166002900480156127fa5780601f106127cf576101008083540402835291602001916127fa565b820191906000526020600020905b8154815290600101906020018083116127dd57829003601f168201915b505050505081526020016005820160009054906101000a900460ff161515151581526020016005820160019054906101000a900473ffffffffffffffffffffffffffffffffffffffff1673ffffffffffffffffffffffffffffffffffffffff1673ffffffffffffffffffffffffffffffffffffffff16815250509050838160200181815250508060126000888152602001908152602001600020600082015181600001556020820151816001015560408201518160020190805190602001906128c49291906151ff565b5060608201518160030190805190602001906128e19291906151ff565b5060808201518160040190805190602001906128fe9291906151ff565b5060a08201518160050160006101000a81548160ff02191690831515021790555060c08201518160050160016101000a81548173ffffffffffffffffffffffffffffffffffffffff021916908373ffffffffffffffffffffffffffffffffffffffff16021790555090505050612e8c565b60405160200180807f7669636b65727900000000000000000000000000000000000000000000000000815250600701905060405160208183030381529060405280519060200120826040516020018082805190602001908083835b602083106129ed57805182526020820191506020810190506020830392506129ca565b6001836020036101000a038019825116818451168082178552505050505050905001915050604051602081830303815290604052805190602001201415612e8b57612a3661527f565b601360008781526020019081526020016000206040518060e00160405290816000820154815260200160018201548152602001600282018054600181600116156101000203166002900480601f016020809104026020016040519081016040528092919081815260200182805460018160011615610100020316600290048015612b015780601f10612ad657610100808354040283529160200191612b01565b820191906000526020600020905b815481529060010190602001808311612ae457829003601f168201915b50505050508152602001600382018054600181600116156101000203166002900480601f016020809104026020016040519081016040528092919081815260200182805460018160011615610100020316600290048015612ba35780601f10612b7857610100808354040283529160200191612ba3565b820191906000526020600020905b815481529060010190602001808311612b8657829003601f168201915b50505050508152602001600482018054600181600116156101000203166002900480601f016020809104026020016040519081016040528092919081815260200182805460018160011615610100020316600290048015612c455780601f10612c1a57610100808354040283529160200191612c45565b820191906000526020600020905b815481529060010190602001808311612c2857829003601f168201915b505050505081526020016005820160009054906101000a900460ff161515151581526020016005820160019054906101000a900473ffffffffffffffffffffffffffffffffffffffff1673ffffffffffffffffffffffffffffffffffffffff1673ffffffffffffffffffffffffffffffffffffffff16815250509050600080600090506000819050600192505b600b548311612d9357601360008a81526020019081526020016000206000015460106000858152602001908152602001600020600101541415612d88578160106000858152602001908152602001600020600201541115612d4e5781905060106000848152602001908152602001600020600201549150612d87565b8060106000858152602001908152602001600020600201541115612d8657601060008481526020019081526020016000206002015490505b5b5b826001019250612cd2565b8084602001818152505083601360008b815260200190815260200160002060008201518160000155602082015181600101556040820151816002019080519060200190612de19291906151ff565b506060820151816003019080519060200190612dfe9291906151ff565b506080820151816004019080519060200190612e1b9291906151ff565b5060a08201518160050160006101000a81548160ff02191690831515021790555060c08201518160050160016101000a81548173ffffffffffffffffffffffffffffffffffffffff021916908373ffffffffffffffffffffffffffffffffffffffff160217905550905050505050505b5b5b5050505050565b6000806000806000600a54600c54600d54600e54600b54945094509450945094509091929394565b6000612eec826040518060600160405280602981526020016154826029913960026143379092919063ffffffff16565b9050919050565b606060098054600181600116156101000203166002900480601f016020809104026020016040519081016040528092919081815260200182805460018160011615610100020316600290048015612f8b5780601f10612f6057610100808354040283529160200191612f8b565b820191906000526020600020905b815481529060010190602001808311612f6e57829003601f168201915b5050505050905090565b60008073ffffffffffffffffffffffffffffffffffffffff168273ffffffffffffffffffffffffffffffffffffffff16141561301c576040517f08c379a000000000000000000000000000000000000000000000000000000000815260040180806020018281038252602a815260200180615458602a913960400191505060405180910390fd5b613063600160008473ffffffffffffffffffffffffffffffffffffffff1673ffffffffffffffffffffffffffffffffffffffff168152602001908152602001600020614356565b9050919050565b606060078054600181600116156101000203166002900480601f0160208091040260200160405190810160405280929190818152602001828054600181600116156101000203166002900480156131025780601f106130d757610100808354040283529160200191613102565b820191906000526020600020905b8154815290600101906020018083116130e557829003601f168201915b5050505050905090565b613114613e3c565b73ffffffffffffffffffffffffffffffffffffffff168273ffffffffffffffffffffffffffffffffffffffff1614156131b5576040517f08c379a00000000000000000000000000000000000000000000000000000000081526004018080602001828103825260198152602001807f4552433732313a20617070726f766520746f2063616c6c65720000000000000081525060200191505060405180910390fd5b80600560006131c2613e3c565b73ffffffffffffffffffffffffffffffffffffffff1673ffffffffffffffffffffffffffffffffffffffff16815260200190815260200160002060008473ffffffffffffffffffffffffffffffffffffffff1673ffffffffffffffffffffffffffffffffffffffff16815260200190815260200160002060006101000a81548160ff0219169083151502179055508173ffffffffffffffffffffffffffffffffffffffff1661326f613e3c565b73ffffffffffffffffffffffffffffffffffffffff167f17307eab39ab6107e8899845ad3d59bd9653f200f220920489ca2b5937696c318360405180821515815260200191505060405180910390a35050565b600181101580156132d55750600b548111155b613347576040517f08c379a000000000000000000000000000000000000000000000000000000000815260040180806020018281038252600d8152602001807f496e76616c6964206f666665720000000000000000000000000000000000000081525060200191505060405180910390fd5b61334f6152d4565b601060008381526020019081526020016000206040518060c00160405290816000820154815260200160018201548152602001600282015481526020016003820160009054906101000a900473ffffffffffffffffffffffffffffffffffffffff1673ffffffffffffffffffffffffffffffffffffffff1673ffffffffffffffffffffffffffffffffffffffff1681526020016004820160009054906101000a900473ffffffffffffffffffffffffffffffffffffffff1673ffffffffffffffffffffffffffffffffffffffff1673ffffffffffffffffffffffffffffffffffffffff1681526020016004820160149054906101000a900460ff161515151581525050905060008160200151905060008260600151905060018360a0019015159081151581525050826010600086815260200190815260200160002060008201518160000155602082015181600101556040820151816002015560608201518160030160006101000a81548173ffffffffffffffffffffffffffffffffffffffff021916908373ffffffffffffffffffffffffffffffffffffffff16021790555060808201518160040160006101000a81548173ffffffffffffffffffffffffffffffffffffffff021916908373ffffffffffffffffffffffffffffffffffffffff16021790555060a08201518160040160146101000a81548160ff0219169083151502179055509050506135648183611776565b50505050565b61357b613575613e3c565b83613f12565b6135d0576040517f08c379a000000000000000000000000000000000000000000000000000000000815260040180806020018281038252603181526020018061559e6031913960400191505060405180910390fd5b6135dc8484848461436b565b50505050565b60606135ed82613e1f565b613642576040517f08c379a000000000000000000000000000000000000000000000000000000000815260040180806020018281038252602f81526020018061554e602f913960400191505060405180910390fd5b6060600860008481526020019081526020016000208054600181600116156101000203166002900480601f0160208091040260200160405190810160405280929190818152602001828054600181600116156101000203166002900480156136eb5780601f106136c0576101008083540402835291602001916136eb565b820191906000526020600020905b8154815290600101906020018083116136ce57829003601f168201915b5050505050905060606136fc612ef3565b90506000815114156137125781925050506138ae565b6000825111156137e35780826040516020018083805190602001908083835b602083106137545780518252602082019150602081019050602083039250613731565b6001836020036101000a03801982511681845116808217855250505050505090500182805190602001908083835b602083106137a55780518252602082019150602081019050602083039250613782565b6001836020036101000a03801982511681845116808217855250505050505090500192505050604051602081830303815290604052925050506138ae565b806137ed856143dd565b6040516020018083805190602001908083835b602083106138235780518252602082019150602081019050602083039250613800565b6001836020036101000a03801982511681845116808217855250505050505090500182805190602001908083835b602083106138745780518252602082019150602081019050602083039250613851565b6001836020036101000a03801982511681845116808217855250505050505090500192505050604051602081830303815290604052925050505b919050565b600181101580156138c65750600a548111155b613938576040517f08c379a000000000000000000000000000000000000000000000000000000000815260040180806020018281038252600a8152602001807f496e76616c69642069640000000000000000000000000000000000000000000081525060200191505060405180910390fd5b61394061527f565b600f60008381526020019081526020016000206040518060e00160405290816000820154815260200160018201548152602001600282018054600181600116156101000203166002900480601f016020809104026020016040519081016040528092919081815260200182805460018160011615610100020316600290048015613a0b5780601f106139e057610100808354040283529160200191613a0b565b820191906000526020600020905b8154815290600101906020018083116139ee57829003601f168201915b50505050508152602001600382018054600181600116156101000203166002900480601f016020809104026020016040519081016040528092919081815260200182805460018160011615610100020316600290048015613aad5780601f10613a8257610100808354040283529160200191613aad565b820191906000526020600020905b815481529060010190602001808311613a9057829003601f168201915b50505050508152602001600482018054600181600116156101000203166002900480601f016020809104026020016040519081016040528092919081815260200182805460018160011615610100020316600290048015613b4f5780601f10613b2457610100808354040283529160200191613b4f565b820191906000526020600020905b815481529060010190602001808311613b3257829003601f168201915b505050505081526020016005820160009054906101000a900460ff161515151581526020016005820160019054906101000a900473ffffffffffffffffffffffffffffffffffffffff1673ffffffffffffffffffffffffffffffffffffffff1673ffffffffffffffffffffffffffffffffffffffff1681525050905060008160c001519050600060608273ffffffffffffffffffffffffffffffffffffffff163460405180600001905060006040518083038185875af1925050503d8060008114613c36576040519150601f19603f3d011682016040523d82523d6000602084013e613c3b565b606091505b50915091508115613d8457613c5183338761199c565b60008460a0019015159081151581525050338460c0019073ffffffffffffffffffffffffffffffffffffffff16908173ffffffffffffffffffffffffffffffffffffffff168152505083600f600087815260200190815260200160002060008201518160000155602082015181600101556040820151816002019080519060200190613cde9291906151ff565b506060820151816003019080519060200190613cfb9291906151ff565b506080820151816004019080519060200190613d189291906151ff565b5060a08201518160050160006101000a81548160ff02191690831515021790555060c08201518160050160016101000a81548173ffffffffffffffffffffffffffffffffffffffff021916908373ffffffffffffffffffffffffffffffffffffffff1602179055509050505b5050505050565b6000600560008473ffffffffffffffffffffffffffffffffffffffff1673ffffffffffffffffffffffffffffffffffffffff16815260200190815260200160002060008373ffffffffffffffffffffffffffffffffffffffff1673ffffffffffffffffffffffffffffffffffffffff16815260200190815260200160002060009054906101000a900460ff16905092915050565b6000613e3582600261452490919063ffffffff16565b9050919050565b600033905090565b816004600083815260200190815260200160002060006101000a81548173ffffffffffffffffffffffffffffffffffffffff021916908373ffffffffffffffffffffffffffffffffffffffff160217905550808273ffffffffffffffffffffffffffffffffffffffff16613eb783612ebc565b73ffffffffffffffffffffffffffffffffffffffff167f8c5be1e5ebec7d5bd14f71427d1e84f3dd0314c0f7b2291e5b200ac8c7c3b92560405160405180910390a45050565b6000613f0b8260000161453e565b9050919050565b6000613f1d82613e1f565b613f72576040517f08c379a000000000000000000000000000000000000000000000000000000000815260040180806020018281038252602c8152602001806153f4602c913960400191505060405180910390fd5b6000613f7d83612ebc565b90508073ffffffffffffffffffffffffffffffffffffffff168473ffffffffffffffffffffffffffffffffffffffff161480613fec57508373ffffffffffffffffffffffffffffffffffffffff16613fd4846116db565b73ffffffffffffffffffffffffffffffffffffffff16145b80613ffd5750613ffc8185613d8b565b5b91505092915050565b8273ffffffffffffffffffffffffffffffffffffffff1661402682612ebc565b73ffffffffffffffffffffffffffffffffffffffff1614614092576040517f08c379a00000000000000000000000000000000000000000000000000000000081526004018080602001828103825260298152602001806155256029913960400191505060405180910390fd5b600073ffffffffffffffffffffffffffffffffffffffff168273ffffffffffffffffffffffffffffffffffffffff161415614118576040517f08c379a00000000000000000000000000000000000000000000000000000000081526004018080602001828103825260248152602001806153aa6024913960400191505060405180910390fd5b61412383838361454f565b61412e600082613e44565b61417f81600160008673ffffffffffffffffffffffffffffffffffffffff1673ffffffffffffffffffffffffffffffffffffffff16815260200190815260200160002061455490919063ffffffff16565b506141d181600160008573ffffffffffffffffffffffffffffffffffffffff1673ffffffffffffffffffffffffffffffffffffffff16815260200190815260200160002061456e90919063ffffffff16565b506141e8818360026145889092919063ffffffff16565b50808273ffffffffffffffffffffffffffffffffffffffff168473ffffffffffffffffffffffffffffffffffffffff167fddf252ad1be2c89b69c2b068fc378daa952ba7f163c4a11628f55a4df523b3ef60405160405180910390a4505050565b600061425883600001836145bd565b60001c905092915050565b61427d828260405180602001604052806000815250614640565b5050565b61428a82613e1f565b6142df576040517f08c379a000000000000000000000000000000000000000000000000000000000815260040180806020018281038252602c8152602001806154f9602c913960400191505060405180910390fd5b806008600084815260200190815260200160002090805190602001906143069291906151ff565b505050565b60008060008061431e86600001866146b1565b915091508160001c8160001c9350935050509250929050565b600061434a846000018460001b8461474a565b60001c90509392505050565b600061436482600001614840565b9050919050565b614376848484614006565b61438284848484614851565b6143d7576040517f08c379a00000000000000000000000000000000000000000000000000000000081526004018080602001828103825260328152602001806153786032913960400191505060405180910390fd5b50505050565b60606000821415614425576040518060400160405280600181526020017f3000000000000000000000000000000000000000000000000000000000000000815250905061451f565b600082905060005b6000821461444f578080600101915050600a828161444757fe5b04915061442d565b60608167ffffffffffffffff8111801561446857600080fd5b506040519080825280601f01601f19166020018201604052801561449b5781602001600182028036833780820191505090505b50905060006001830390508593505b6000841461451757600a84816144bc57fe5b0660300160f81b828280600190039350815181106144d657fe5b60200101907effffffffffffffffffffffffffffffffffffffffffffffffffffffffffffff1916908160001a905350600a848161450f57fe5b0493506144aa565b819450505050505b919050565b6000614536836000018360001b614a6a565b905092915050565b600081600001805490509050919050565b505050565b6000614566836000018360001b614a8d565b905092915050565b6000614580836000018360001b614b75565b905092915050565b60006145b4846000018460001b8473ffffffffffffffffffffffffffffffffffffffff1660001b614be5565b90509392505050565b60008183600001805490501161461e576040517f08c379a00000000000000000000000000000000000000000000000000000000081526004018080602001828103825260228152602001806153566022913960400191505060405180910390fd5b82600001828154811061462d57fe5b9060005260206000200154905092915050565b61464a8383614cc1565b6146576000848484614851565b6146ac576040517f08c379a00000000000000000000000000000000000000000000000000000000081526004018080602001828103825260328152602001806153786032913960400191505060405180910390fd5b505050565b60008082846000018054905011614713576040517f08c379a00000000000000000000000000000000000000000000000000000000081526004018080602001828103825260228152602001806154ab6022913960400191505060405180910390fd5b600084600001848154811061472457fe5b906000526020600020906002020190508060000154816001015492509250509250929050565b60008084600101600085815260200190815260200160002054905060008114158390614811576040517f08c379a00000000000000000000000000000000000000000000000000000000081526004018080602001828103825283818151815260200191508051906020019080838360005b838110156147d65780820151818401526020810190506147bb565b50505050905090810190601f1680156148035780820380516001836020036101000a031916815260200191505b509250505060405180910390fd5b5084600001600182038154811061482457fe5b9060005260206000209060020201600101549150509392505050565b600081600001805490509050919050565b60006148728473ffffffffffffffffffffffffffffffffffffffff16614eb5565b61487f5760019050614a62565b60606149e963150b7a0260e01b614894613e3c565b888787604051602401808573ffffffffffffffffffffffffffffffffffffffff1681526020018473ffffffffffffffffffffffffffffffffffffffff16815260200183815260200180602001828103825283818151815260200191508051906020019080838360005b838110156149185780820151818401526020810190506148fd565b50505050905090810190601f1680156149455780820380516001836020036101000a031916815260200191505b5095505050505050604051602081830303815290604052907bffffffffffffffffffffffffffffffffffffffffffffffffffffffff19166020820180517bffffffffffffffffffffffffffffffffffffffffffffffffffffffff8381831617835250505050604051806060016040528060328152602001615378603291398773ffffffffffffffffffffffffffffffffffffffff16614ec89092919063ffffffff16565b90506000818060200190516020811015614a0257600080fd5b8101908080519060200190929190505050905063150b7a0260e01b7bffffffffffffffffffffffffffffffffffffffffffffffffffffffff1916817bffffffffffffffffffffffffffffffffffffffffffffffffffffffff191614925050505b949350505050565b600080836001016000848152602001908152602001600020541415905092915050565b60008083600101600084815260200190815260200160002054905060008114614b695760006001820390506000600186600001805490500390506000866000018281548110614ad857fe5b9060005260206000200154905080876000018481548110614af557fe5b9060005260206000200181905550600183018760010160008381526020019081526020016000208190555086600001805480614b2d57fe5b60019003818190600052602060002001600090559055866001016000878152602001908152602001600020600090556001945050505050614b6f565b60009150505b92915050565b6000614b818383614ee0565b614bda578260000182908060018154018082558091505060019003906000526020600020016000909190919091505582600001805490508360010160008481526020019081526020016000208190555060019050614bdf565b600090505b92915050565b6000808460010160008581526020019081526020016000205490506000811415614c8c57846000016040518060400160405280868152602001858152509080600181540180825580915050600190039060005260206000209060020201600090919091909150600082015181600001556020820151816001015550508460000180549050856001016000868152602001908152602001600020819055506001915050614cba565b82856000016001830381548110614c9f57fe5b90600052602060002090600202016001018190555060009150505b9392505050565b600073ffffffffffffffffffffffffffffffffffffffff168273ffffffffffffffffffffffffffffffffffffffff161415614d64576040517f08c379a00000000000000000000000000000000000000000000000000000000081526004018080602001828103825260208152602001807f4552433732313a206d696e7420746f20746865207a65726f206164647265737381525060200191505060405180910390fd5b614d6d81613e1f565b15614de0576040517f08c379a000000000000000000000000000000000000000000000000000000000815260040180806020018281038252601c8152602001807f4552433732313a20746f6b656e20616c7265616479206d696e7465640000000081525060200191505060405180910390fd5b614dec6000838361454f565b614e3d81600160008573ffffffffffffffffffffffffffffffffffffffff1673ffffffffffffffffffffffffffffffffffffffff16815260200190815260200160002061456e90919063ffffffff16565b50614e54818360026145889092919063ffffffff16565b50808273ffffffffffffffffffffffffffffffffffffffff16600073ffffffffffffffffffffffffffffffffffffffff167fddf252ad1be2c89b69c2b068fc378daa952ba7f163c4a11628f55a4df523b3ef60405160405180910390a45050565b600080823b905060008111915050919050565b6060614ed78484600085614f03565b90509392505050565b600080836001016000848152602001908152602001600020541415905092915050565b606082471015614f5e576040517f08c379a00000000000000000000000000000000000000000000000000000000081526004018080602001828103825260268152602001806153ce6026913960400191505060405180910390fd5b614f6785614eb5565b614fd9576040517f08c379a000000000000000000000000000000000000000000000000000000000815260040180806020018281038252601d8152602001807f416464726573733a2063616c6c20746f206e6f6e2d636f6e747261637400000081525060200191505060405180910390fd5b600060608673ffffffffffffffffffffffffffffffffffffffff1685876040518082805190602001908083835b602083106150295780518252602082019150602081019050602083039250615006565b6001836020036101000a03801982511681845116808217855250505050505090500191505060006040518083038185875af1925050503d806000811461508b576040519150601f19603f3d011682016040523d82523d6000602084013e615090565b606091505b50915091506150a08282866150ac565b92505050949350505050565b606083156150bc57829050615171565b6000835111156150cf5782518084602001fd5b816040517f08c379a00000000000000000000000000000000000000000000000000000000081526004018080602001828103825283818151815260200191508051906020019080838360005b8381101561513657808201518184015260208101905061511b565b50505050905090810190601f1680156151635780820380516001836020036101000a031916815260200191505b509250505060405180910390fd5b9392505050565b828054600181600116156101000203166002900490600052602060002090601f016020900481019282601f106151b157805485556151ee565b828001600101855582156151ee57600052602060002091601f016020900482015b828111156151ed5782548255916001019190600101906151d2565b5b5090506151fb9190615338565b5090565b828054600181600116156101000203166002900490600052602060002090601f016020900481019282601f1061524057805160ff191683800117855561526e565b8280016001018555821561526e579182015b8281111561526d578251825591602001919060010190615252565b5b50905061527b9190615338565b5090565b6040518060e001604052806000815260200160008152602001606081526020016060815260200160608152602001600015158152602001600073ffffffffffffffffffffffffffffffffffffffff1681525090565b6040518060c00160405280600081526020016000815260200160008152602001600073ffffffffffffffffffffffffffffffffffffffff168152602001600073ffffffffffffffffffffffffffffffffffffffff1681526020016000151581525090565b5b80821115615351576000816000905550600101615339565b509056fe456e756d657261626c655365743a20696e646578206f7574206f6620626f756e64734552433732313a207472616e7366657220746f206e6f6e20455243373231526563656976657220696d706c656d656e7465724552433732313a207472616e7366657220746f20746865207a65726f2061646472657373416464726573733a20696e73756666696369656e742062616c616e636520666f722063616c6c4552433732313a206f70657261746f7220717565727920666f72206e6f6e6578697374656e7420746f6b656e4552433732313a20617070726f76652063616c6c6572206973206e6f74206f776e6572206e6f7220617070726f76656420666f7220616c6c4552433732313a2062616c616e636520717565727920666f7220746865207a65726f20616464726573734552433732313a206f776e657220717565727920666f72206e6f6e6578697374656e7420746f6b656e456e756d657261626c654d61703a20696e646578206f7574206f6620626f756e64734552433732313a20617070726f76656420717565727920666f72206e6f6e6578697374656e7420746f6b656e4552433732314d657461646174613a2055524920736574206f66206e6f6e6578697374656e7420746f6b656e4552433732313a207472616e73666572206f6620746f6b656e2074686174206973206e6f74206f776e4552433732314d657461646174613a2055524920717565727920666f72206e6f6e6578697374656e7420746f6b656e4552433732313a20617070726f76616c20746f2063757272656e74206f776e65724552433732313a207472616e736665722063616c6c6572206973206e6f74206f776e6572206e6f7220617070726f766564a26469706673582212206c05421588904628cab75366fd8fa2eaae8eb6afeaf81281e84309fe194e54ca64736f6c63430007010033",
  "immutableReferences": {},
  "source": "// SPDX-License-Identifier: GPL-3.0\r\n\r\npragma solidity >=0.7.0 <0.9.0;\r\n\r\nimport \"@openzeppelin/contracts/token/ERC721/ERC721.sol\";\r\n\r\ncontract Nfto is ERC721 {\r\n    constructor() public ERC721(\"Nfto\", \"NFTO\") {}\r\n    \r\n    uint tokenId;\r\n    uint offerCount;\r\n    uint eCount;\r\n    uint dCount;\r\n    uint vCount;\r\n    \r\n    mapping(uint => Item) items;\r\n    mapping(uint => Offer) offers;\r\n    mapping(uint => Item) english;\r\n    mapping(uint => Item) dutch;\r\n    mapping(uint => Item) vickery;\r\n\r\n    struct Item {\r\n        uint id;\r\n        uint256 latestPrice;\r\n        string name;\r\n        string description;\r\n        string cid;\r\n        bool isListed;\r\n        address payable owner;\r\n    }\r\n\r\n    struct Offer {\r\n        uint id;\r\n        uint tId;\r\n        uint256 offerAmount;\r\n        address bidder;\r\n        address auctioneer;\r\n        bool isApproved;\r\n    }\r\n\r\n    event ItemMinted(\r\n        uint id,\r\n        string name,\r\n        string description,\r\n        address payable owner\r\n    );\r\n\r\n    event ItemListed(\r\n        uint id,\r\n        uint eCount,\r\n        uint dCount,\r\n        bool isListed\r\n    );\r\n    function retValues() external view returns(uint,uint,uint,uint,uint) {\r\n        return (tokenId,eCount,dCount,vCount,offerCount);\r\n    }\r\n    \r\n    function mintItem(uint256 _price, string memory _name, string memory _description, string memory _cid) external {\r\n        require(_price > 0, \"Invalid price\");\r\n        tokenId++;\r\n        _safeMint(msg.sender, tokenId);\r\n        _setTokenURI(tokenId, _cid);\r\n        items[tokenId] = Item(tokenId, _price, _name, _description, _cid, false, msg.sender);\r\n        emit ItemMinted(tokenId, _name, _description, msg.sender);\r\n    }\r\n\r\n\r\n    function listItem(uint _id, string memory _type, uint256 _price) external {\r\n        require(_id > 0 && _id <= tokenId, \"Invalid Id\");\r\n\r\n        if(keccak256(abi.encodePacked((_type))) == keccak256(abi.encodePacked((\"english\")))) {\r\n            eCount++;\r\n            english[eCount] = items[_id];\r\n            english[eCount].latestPrice = _price;\r\n        }\r\n\r\n        else if(keccak256(abi.encodePacked((_type))) == keccak256(abi.encodePacked((\"dutch\")))) {\r\n            dCount++;\r\n            dutch[dCount] = items[_id];\r\n            dutch[dCount].latestPrice = _price;\r\n        }\r\n\r\n        else if(keccak256(abi.encodePacked((_type))) == keccak256(abi.encodePacked((\"vickery\")))) {\r\n            vCount++;\r\n            vickery[vCount] = items[_id];\r\n            vickery[vCount].latestPrice = _price;\r\n        }\r\n\r\n        items[_id].isListed = true;\r\n        emit ItemListed(_id, eCount, dCount, items[_id].isListed);\r\n    }\r\n\r\n    function makeOffer(uint _id, uint _tId, uint256 _amount, string memory _type) external {\r\n        Item memory _item = items[_tId];\r\n\r\n        offerCount++;\r\n        offers[offerCount] = Offer(offerCount, _tId, _amount, msg.sender, _item.owner, false);\r\n\r\n        if(keccak256(abi.encodePacked((_type))) == keccak256(abi.encodePacked((\"english\")))) {\r\n            Item memory item = english[_id];\r\n            item.latestPrice = _amount;\r\n            english[_id] = item;\r\n        }\r\n\r\n        else if(keccak256(abi.encodePacked((_type))) == keccak256(abi.encodePacked((\"dutch\")))) {\r\n            Item memory item = dutch[_id];\r\n            item.latestPrice = _amount;\r\n            dutch[_id] = item;\r\n        }        \r\n\r\n        else if(keccak256(abi.encodePacked((_type))) == keccak256(abi.encodePacked((\"vickery\")))) {\r\n            Item memory item = vickery[_id];\r\n            uint i;\r\n            uint largestAmount = 0;\r\n            uint seclargestAmount = largestAmount;\r\n\r\n            for(i = 1; i <= offerCount; ++i) {\r\n                if(offers[i].tId == vickery[_id].id) {                    \r\n                    if(offers[i].offerAmount > largestAmount) {\r\n                        seclargestAmount = largestAmount;\r\n                        largestAmount = offers[i].offerAmount;\r\n                    }\r\n                    else if(offers[i].offerAmount > seclargestAmount) {\r\n                        seclargestAmount = offers[i].offerAmount;\r\n                    }\r\n                }\r\n            }\r\n\r\n            item.latestPrice = seclargestAmount;\r\n            vickery[_id] = item;\r\n        }\r\n    }\r\n\r\n    function approveOffer(uint _id) external {\r\n        require(_id >=1 && _id <= offerCount, \"Invalid offer\");\r\n\r\n        Offer memory offer = offers[_id];\r\n        uint tId = offer.tId;\r\n        address bidder = offer.bidder;\r\n        offer.isApproved = true;\r\n        offers[_id] = offer;\r\n        approve(bidder, tId);\r\n    }\r\n\r\n\r\n    function purchaseItem(uint _tId) public payable {\r\n        require(_tId >=1 && _tId <= tokenId, \"Invalid id\");\r\n\r\n        Item memory item = items[_tId];\r\n        address payable owner = item.owner;\r\n        (bool isSent, bytes memory data) = owner.call{value: msg.value}(\"\");\r\n\r\n        if(isSent) {\r\n            safeTransferFrom(owner, msg.sender, _tId);\r\n            item.isListed = false;\r\n            item.owner = msg.sender;\r\n            items[_tId] = item;\r\n        }\r\n    }\r\n}",
  "sourcePath": "C:/Users/Abel Simon Zachariah/Projects/NFT-Ocean/src/contracts/Nfto.sol",
  "compiler": {
    "name": "solc",
    "version": "0.7.1+commit.f4a555be.Emscripten.clang"
  },
  "schemaVersion": "3.3.4",
  "updatedAt": "2021-08-05T17:17:47.044Z",
  "networkType": "ethereum",
  "devdoc": {
    "kind": "dev",
    "methods": {
      "approve(address,uint256)": {
        "details": "See {IERC721-approve}."
      },
      "balanceOf(address)": {
        "details": "See {IERC721-balanceOf}."
      },
      "baseURI()": {
        "details": "Returns the base URI set via {_setBaseURI}. This will be automatically added as a prefix in {tokenURI} to each token's URI, or to the token ID if no specific URI is set for that token ID."
      },
      "getApproved(uint256)": {
        "details": "See {IERC721-getApproved}."
      },
      "isApprovedForAll(address,address)": {
        "details": "See {IERC721-isApprovedForAll}."
      },
      "name()": {
        "details": "See {IERC721Metadata-name}."
      },
      "ownerOf(uint256)": {
        "details": "See {IERC721-ownerOf}."
      },
      "safeTransferFrom(address,address,uint256)": {
        "details": "See {IERC721-safeTransferFrom}."
      },
      "safeTransferFrom(address,address,uint256,bytes)": {
        "details": "See {IERC721-safeTransferFrom}."
      },
      "setApprovalForAll(address,bool)": {
        "details": "See {IERC721-setApprovalForAll}."
      },
      "supportsInterface(bytes4)": {
        "details": "See {IERC165-supportsInterface}. Time complexity O(1), guaranteed to always use less than 30 000 gas."
      },
      "symbol()": {
        "details": "See {IERC721Metadata-symbol}."
      },
      "tokenByIndex(uint256)": {
        "details": "See {IERC721Enumerable-tokenByIndex}."
      },
      "tokenOfOwnerByIndex(address,uint256)": {
        "details": "See {IERC721Enumerable-tokenOfOwnerByIndex}."
      },
      "tokenURI(uint256)": {
        "details": "See {IERC721Metadata-tokenURI}."
      },
      "totalSupply()": {
        "details": "See {IERC721Enumerable-totalSupply}."
      },
      "transferFrom(address,address,uint256)": {
        "details": "See {IERC721-transferFrom}."
      }
    },
    "version": 1
  },
  "userdoc": {
    "kind": "user",
    "methods": {},
    "version": 1
  }
}