{
  "contractName": "NftoBase",
  "abi": [
    {
      "inputs": [],
      "stateMutability": "nonpayable",
      "type": "constructor"
    },
    {
      "anonymous": false,
      "inputs": [
        {
          "indexed": true,
          "internalType": "address",
          "name": "owner",
          "type": "address"
        },
        {
          "indexed": true,
          "internalType": "address",
          "name": "approved",
          "type": "address"
        },
        {
          "indexed": true,
          "internalType": "uint256",
          "name": "tokenId",
          "type": "uint256"
        }
      ],
      "name": "Approval",
      "type": "event"
    },
    {
      "anonymous": false,
      "inputs": [
        {
          "indexed": true,
          "internalType": "address",
          "name": "owner",
          "type": "address"
        },
        {
          "indexed": true,
          "internalType": "address",
          "name": "operator",
          "type": "address"
        },
        {
          "indexed": false,
          "internalType": "bool",
          "name": "approved",
          "type": "bool"
        }
      ],
      "name": "ApprovalForAll",
      "type": "event"
    },
    {
      "anonymous": false,
      "inputs": [
        {
          "indexed": false,
          "internalType": "uint256",
          "name": "id",
          "type": "uint256"
        },
        {
          "indexed": false,
          "internalType": "uint256",
          "name": "eCount",
          "type": "uint256"
        },
        {
          "indexed": false,
          "internalType": "uint256",
          "name": "dCount",
          "type": "uint256"
        },
        {
          "indexed": false,
          "internalType": "bool",
          "name": "isListed",
          "type": "bool"
        }
      ],
      "name": "ItemListed",
      "type": "event"
    },
    {
      "anonymous": false,
      "inputs": [
        {
          "indexed": false,
          "internalType": "uint256",
          "name": "id",
          "type": "uint256"
        },
        {
          "indexed": false,
          "internalType": "string",
          "name": "name",
          "type": "string"
        },
        {
          "indexed": false,
          "internalType": "string",
          "name": "description",
          "type": "string"
        },
        {
          "indexed": false,
          "internalType": "address payable",
          "name": "owner",
          "type": "address"
        }
      ],
      "name": "ItemMinted",
      "type": "event"
    },
    {
      "anonymous": false,
      "inputs": [
        {
          "indexed": true,
          "internalType": "address",
          "name": "from",
          "type": "address"
        },
        {
          "indexed": true,
          "internalType": "address",
          "name": "to",
          "type": "address"
        },
        {
          "indexed": true,
          "internalType": "uint256",
          "name": "tokenId",
          "type": "uint256"
        }
      ],
      "name": "Transfer",
      "type": "event"
    },
    {
      "inputs": [
        {
          "internalType": "address",
          "name": "to",
          "type": "address"
        },
        {
          "internalType": "uint256",
          "name": "tokenId",
          "type": "uint256"
        }
      ],
      "name": "approve",
      "outputs": [],
      "stateMutability": "nonpayable",
      "type": "function"
    },
    {
      "inputs": [
        {
          "internalType": "address",
          "name": "owner",
          "type": "address"
        }
      ],
      "name": "balanceOf",
      "outputs": [
        {
          "internalType": "uint256",
          "name": "",
          "type": "uint256"
        }
      ],
      "stateMutability": "view",
      "type": "function"
    },
    {
      "inputs": [],
      "name": "baseURI",
      "outputs": [
        {
          "internalType": "string",
          "name": "",
          "type": "string"
        }
      ],
      "stateMutability": "view",
      "type": "function"
    },
    {
      "inputs": [
        {
          "internalType": "uint256",
          "name": "tokenId",
          "type": "uint256"
        }
      ],
      "name": "getApproved",
      "outputs": [
        {
          "internalType": "address",
          "name": "",
          "type": "address"
        }
      ],
      "stateMutability": "view",
      "type": "function"
    },
    {
      "inputs": [
        {
          "internalType": "address",
          "name": "owner",
          "type": "address"
        },
        {
          "internalType": "address",
          "name": "operator",
          "type": "address"
        }
      ],
      "name": "isApprovedForAll",
      "outputs": [
        {
          "internalType": "bool",
          "name": "",
          "type": "bool"
        }
      ],
      "stateMutability": "view",
      "type": "function"
    },
    {
      "inputs": [],
      "name": "name",
      "outputs": [
        {
          "internalType": "string",
          "name": "",
          "type": "string"
        }
      ],
      "stateMutability": "view",
      "type": "function"
    },
    {
      "inputs": [
        {
          "internalType": "uint256",
          "name": "tokenId",
          "type": "uint256"
        }
      ],
      "name": "ownerOf",
      "outputs": [
        {
          "internalType": "address",
          "name": "",
          "type": "address"
        }
      ],
      "stateMutability": "view",
      "type": "function"
    },
    {
      "inputs": [
        {
          "internalType": "address",
          "name": "from",
          "type": "address"
        },
        {
          "internalType": "address",
          "name": "to",
          "type": "address"
        },
        {
          "internalType": "uint256",
          "name": "tokenId",
          "type": "uint256"
        }
      ],
      "name": "safeTransferFrom",
      "outputs": [],
      "stateMutability": "nonpayable",
      "type": "function"
    },
    {
      "inputs": [
        {
          "internalType": "address",
          "name": "from",
          "type": "address"
        },
        {
          "internalType": "address",
          "name": "to",
          "type": "address"
        },
        {
          "internalType": "uint256",
          "name": "tokenId",
          "type": "uint256"
        },
        {
          "internalType": "bytes",
          "name": "_data",
          "type": "bytes"
        }
      ],
      "name": "safeTransferFrom",
      "outputs": [],
      "stateMutability": "nonpayable",
      "type": "function"
    },
    {
      "inputs": [
        {
          "internalType": "address",
          "name": "operator",
          "type": "address"
        },
        {
          "internalType": "bool",
          "name": "approved",
          "type": "bool"
        }
      ],
      "name": "setApprovalForAll",
      "outputs": [],
      "stateMutability": "nonpayable",
      "type": "function"
    },
    {
      "inputs": [
        {
          "internalType": "bytes4",
          "name": "interfaceId",
          "type": "bytes4"
        }
      ],
      "name": "supportsInterface",
      "outputs": [
        {
          "internalType": "bool",
          "name": "",
          "type": "bool"
        }
      ],
      "stateMutability": "view",
      "type": "function"
    },
    {
      "inputs": [],
      "name": "symbol",
      "outputs": [
        {
          "internalType": "string",
          "name": "",
          "type": "string"
        }
      ],
      "stateMutability": "view",
      "type": "function"
    },
    {
      "inputs": [
        {
          "internalType": "uint256",
          "name": "index",
          "type": "uint256"
        }
      ],
      "name": "tokenByIndex",
      "outputs": [
        {
          "internalType": "uint256",
          "name": "",
          "type": "uint256"
        }
      ],
      "stateMutability": "view",
      "type": "function"
    },
    {
      "inputs": [
        {
          "internalType": "address",
          "name": "owner",
          "type": "address"
        },
        {
          "internalType": "uint256",
          "name": "index",
          "type": "uint256"
        }
      ],
      "name": "tokenOfOwnerByIndex",
      "outputs": [
        {
          "internalType": "uint256",
          "name": "",
          "type": "uint256"
        }
      ],
      "stateMutability": "view",
      "type": "function"
    },
    {
      "inputs": [
        {
          "internalType": "uint256",
          "name": "tokenId",
          "type": "uint256"
        }
      ],
      "name": "tokenURI",
      "outputs": [
        {
          "internalType": "string",
          "name": "",
          "type": "string"
        }
      ],
      "stateMutability": "view",
      "type": "function"
    },
    {
      "inputs": [],
      "name": "totalSupply",
      "outputs": [
        {
          "internalType": "uint256",
          "name": "",
          "type": "uint256"
        }
      ],
      "stateMutability": "view",
      "type": "function"
    },
    {
      "inputs": [
        {
          "internalType": "address",
          "name": "from",
          "type": "address"
        },
        {
          "internalType": "address",
          "name": "to",
          "type": "address"
        },
        {
          "internalType": "uint256",
          "name": "tokenId",
          "type": "uint256"
        }
      ],
      "name": "transferFrom",
      "outputs": [],
      "stateMutability": "nonpayable",
      "type": "function"
    },
    {
      "inputs": [
        {
          "internalType": "uint256",
          "name": "_price",
          "type": "uint256"
        },
        {
          "internalType": "string",
          "name": "_name",
          "type": "string"
        },
        {
          "internalType": "string",
          "name": "_description",
          "type": "string"
        },
        {
          "internalType": "string",
          "name": "_cid",
          "type": "string"
        }
      ],
      "name": "mintItem",
      "outputs": [],
      "stateMutability": "nonpayable",
      "type": "function"
    },
    {
      "inputs": [
        {
          "internalType": "uint256",
          "name": "_id",
          "type": "uint256"
        },
        {
          "internalType": "string",
          "name": "_type",
          "type": "string"
        },
        {
          "internalType": "uint256",
          "name": "_price",
          "type": "uint256"
        }
      ],
      "name": "listItem",
      "outputs": [],
      "stateMutability": "nonpayable",
      "type": "function"
    }
  ],
  "bytecode": "0x60806040523480156200001157600080fd5b506040518060400160405280600481526020017f4e66746f000000000000000000000000000000000000000000000000000000008152506040518060400160405280600481526020017f4e46544f00000000000000000000000000000000000000000000000000000000815250620000966301ffc9a760e01b6200011860201b60201c565b8160069080519060200190620000ae92919062000221565b508060079080519060200190620000c792919062000221565b50620000e06380ac58cd60e01b6200011860201b60201c565b620000f8635b5e139f60e01b6200011860201b60201c565b6200011063780e9d6360e01b6200011860201b60201c565b5050620002c7565b63ffffffff60e01b817bffffffffffffffffffffffffffffffffffffffffffffffffffffffff19161415620001b5576040517f08c379a000000000000000000000000000000000000000000000000000000000815260040180806020018281038252601c8152602001807f4552433136353a20696e76616c696420696e746572666163652069640000000081525060200191505060405180910390fd5b6001600080837bffffffffffffffffffffffffffffffffffffffffffffffffffffffff19167bffffffffffffffffffffffffffffffffffffffffffffffffffffffff1916815260200190815260200160002060006101000a81548160ff02191690831515021790555050565b828054600181600116156101000203166002900490600052602060002090601f016020900481019282601f106200026457805160ff191683800117855562000295565b8280016001018555821562000295579182015b828111156200029457825182559160200191906001019062000277565b5b509050620002a49190620002a8565b5090565b5b80821115620002c3576000816000905550600101620002a9565b5090565b61395180620002d76000396000f3fe608060405234801561001057600080fd5b50600436106101215760003560e01c806343024f98116100ad57806395d89b411161007157806395d89b4114610845578063a22cb465146108c8578063b88d4fde14610918578063c87b56dd14610a1d578063e985e9c514610ac457610121565b806343024f98146104dd5780634f6ccce7146106d05780636352211e146107125780636c0360eb1461076a57806370a08231146107ed57610121565b8063095ea7b3116100f4578063095ea7b31461033357806318160ddd1461038157806323b872dd1461039f5780632f745c591461040d57806342842e0e1461046f57610121565b806301ffc9a714610126578063069a3d4c1461018957806306fdde0314610258578063081812fc146102db575b600080fd5b6101716004803603602081101561013c57600080fd5b8101908080357bffffffffffffffffffffffffffffffffffffffffffffffffffffffff19169060200190929190505050610b3e565b60405180821515815260200191505060405180910390f35b6102566004803603606081101561019f57600080fd5b8101908080359060200190929190803590602001906401000000008111156101c657600080fd5b8201836020820111156101d857600080fd5b803590602001918460018302840111640100000000831117156101fa57600080fd5b91908080601f016020809104026020016040519081016040528093929190818152602001838380828437600081840152601f19601f82011690508083019250505050505050919291929080359060200190929190505050610ba5565b005b61026061138d565b6040518080602001828103825283818151815260200191508051906020019080838360005b838110156102a0578082015181840152602081019050610285565b50505050905090810190601f1680156102cd5780820380516001836020036101000a031916815260200191505b509250505060405180910390f35b610307600480360360208110156102f157600080fd5b810190808035906020019092919050505061142f565b604051808273ffffffffffffffffffffffffffffffffffffffff16815260200191505060405180910390f35b61037f6004803603604081101561034957600080fd5b81019080803573ffffffffffffffffffffffffffffffffffffffff169060200190929190803590602001909291905050506114ca565b005b61038961160e565b6040518082815260200191505060405180910390f35b61040b600480360360608110156103b557600080fd5b81019080803573ffffffffffffffffffffffffffffffffffffffff169060200190929190803573ffffffffffffffffffffffffffffffffffffffff1690602001909291908035906020019092919050505061161f565b005b6104596004803603604081101561042357600080fd5b81019080803573ffffffffffffffffffffffffffffffffffffffff16906020019092919080359060200190929190505050611695565b6040518082815260200191505060405180910390f35b6104db6004803603606081101561048557600080fd5b81019080803573ffffffffffffffffffffffffffffffffffffffff169060200190929190803573ffffffffffffffffffffffffffffffffffffffff169060200190929190803590602001909291905050506116f0565b005b6106ce600480360360808110156104f357600080fd5b81019080803590602001909291908035906020019064010000000081111561051a57600080fd5b82018360208201111561052c57600080fd5b8035906020019184600183028401116401000000008311171561054e57600080fd5b91908080601f016020809104026020016040519081016040528093929190818152602001838380828437600081840152601f19601f820116905080830192505050505050509192919290803590602001906401000000008111156105b157600080fd5b8201836020820111156105c357600080fd5b803590602001918460018302840111640100000000831117156105e557600080fd5b91908080601f016020809104026020016040519081016040528093929190818152602001838380828437600081840152601f19601f8201169050808301925050505050505091929192908035906020019064010000000081111561064857600080fd5b82018360208201111561065a57600080fd5b8035906020019184600183028401116401000000008311171561067c57600080fd5b91908080601f016020809104026020016040519081016040528093929190818152602001838380828437600081840152601f19601f820116905080830192505050505050509192919290505050611710565b005b6106fc600480360360208110156106e657600080fd5b8101908080359060200190929190505050611a1f565b6040518082815260200191505060405180910390f35b61073e6004803603602081101561072857600080fd5b8101908080359060200190929190505050611a42565b604051808273ffffffffffffffffffffffffffffffffffffffff16815260200191505060405180910390f35b610772611a79565b6040518080602001828103825283818151815260200191508051906020019080838360005b838110156107b2578082015181840152602081019050610797565b50505050905090810190601f1680156107df5780820380516001836020036101000a031916815260200191505b509250505060405180910390f35b61082f6004803603602081101561080357600080fd5b81019080803573ffffffffffffffffffffffffffffffffffffffff169060200190929190505050611b1b565b6040518082815260200191505060405180910390f35b61084d611bf0565b6040518080602001828103825283818151815260200191508051906020019080838360005b8381101561088d578082015181840152602081019050610872565b50505050905090810190601f1680156108ba5780820380516001836020036101000a031916815260200191505b509250505060405180910390f35b610916600480360360408110156108de57600080fd5b81019080803573ffffffffffffffffffffffffffffffffffffffff169060200190929190803515159060200190929190505050611c92565b005b610a1b6004803603608081101561092e57600080fd5b81019080803573ffffffffffffffffffffffffffffffffffffffff169060200190929190803573ffffffffffffffffffffffffffffffffffffffff169060200190929190803590602001909291908035906020019064010000000081111561099557600080fd5b8201836020820111156109a757600080fd5b803590602001918460018302840111640100000000831117156109c957600080fd5b91908080601f016020809104026020016040519081016040528093929190818152602001838380828437600081840152601f19601f820116905080830192505050505050509192919290505050611e48565b005b610a4960048036036020811015610a3357600080fd5b8101908080359060200190929190505050611ec0565b6040518080602001828103825283818151815260200191508051906020019080838360005b83811015610a89578082015181840152602081019050610a6e565b50505050905090810190601f168015610ab65780820380516001836020036101000a031916815260200191505b509250505060405180910390f35b610b2660048036036040811015610ada57600080fd5b81019080803573ffffffffffffffffffffffffffffffffffffffff169060200190929190803573ffffffffffffffffffffffffffffffffffffffff169060200190929190505050612191565b60405180821515815260200191505060405180910390f35b6000806000837bffffffffffffffffffffffffffffffffffffffffffffffffffffffff19167bffffffffffffffffffffffffffffffffffffffffffffffffffffffff1916815260200190815260200160002060009054906101000a900460ff169050919050565b600083118015610bb75750600a548311155b610c29576040517f08c379a000000000000000000000000000000000000000000000000000000000815260040180806020018281038252600a8152602001807f496e76616c69642049640000000000000000000000000000000000000000000081525060200191505060405180910390fd5b60405160200180807f656e676c69736800000000000000000000000000000000000000000000000000815250600701905060405160208183030381529060405280519060200120826040516020018082805190602001908083835b60208310610ca75780518252602082019150602081019050602083039250610c84565b6001836020036101000a038019825116818451168082178552505050505050905001915050604051602081830303815290604052805190602001201415610e6757600c60008154809291906001019190505550600f600084815260200190815260200160002060116000600c548152602001908152602001600020600082015481600001556001820154816001015560028201816002019080546001816001161561010002031660029004610d5d92919061357e565b5060038201816003019080546001816001161561010002031660029004610d8592919061357e565b5060048201816004019080546001816001161561010002031660029004610dad92919061357e565b506005820160009054906101000a900460ff168160050160006101000a81548160ff0219169083151502179055506005820160019054906101000a900473ffffffffffffffffffffffffffffffffffffffff168160050160016101000a81548173ffffffffffffffffffffffffffffffffffffffff021916908373ffffffffffffffffffffffffffffffffffffffff1602179055509050508060116000600c548152602001908152602001600020600101819055506112e1565b60405160200180807f6475746368000000000000000000000000000000000000000000000000000000815250600501905060405160208183030381529060405280519060200120826040516020018082805190602001908083835b60208310610ee55780518252602082019150602081019050602083039250610ec2565b6001836020036101000a0380198251168184511680821785525050505050509050019150506040516020818303038152906040528051906020012014156110a557600d60008154809291906001019190505550600f600084815260200190815260200160002060126000600d548152602001908152602001600020600082015481600001556001820154816001015560028201816002019080546001816001161561010002031660029004610f9b92919061357e565b5060038201816003019080546001816001161561010002031660029004610fc392919061357e565b5060048201816004019080546001816001161561010002031660029004610feb92919061357e565b506005820160009054906101000a900460ff168160050160006101000a81548160ff0219169083151502179055506005820160019054906101000a900473ffffffffffffffffffffffffffffffffffffffff168160050160016101000a81548173ffffffffffffffffffffffffffffffffffffffff021916908373ffffffffffffffffffffffffffffffffffffffff1602179055509050508060126000600d548152602001908152602001600020600101819055506112e0565b60405160200180807f7669636b65727900000000000000000000000000000000000000000000000000815250600701905060405160208183030381529060405280519060200120826040516020018082805190602001908083835b602083106111235780518252602082019150602081019050602083039250611100565b6001836020036101000a0380198251168184511680821785525050505050509050019150506040516020818303038152906040528051906020012014156112df57600e60008154809291906001019190505550600f600084815260200190815260200160002060136000600e5481526020019081526020016000206000820154816000015560018201548160010155600282018160020190805460018160011615610100020316600290046111d992919061357e565b506003820181600301908054600181600116156101000203166002900461120192919061357e565b506004820181600401908054600181600116156101000203166002900461122992919061357e565b506005820160009054906101000a900460ff168160050160006101000a81548160ff0219169083151502179055506005820160019054906101000a900473ffffffffffffffffffffffffffffffffffffffff168160050160016101000a81548173ffffffffffffffffffffffffffffffffffffffff021916908373ffffffffffffffffffffffffffffffffffffffff1602179055509050508060136000600e548152602001908152602001600020600101819055505b5b5b6001600f600085815260200190815260200160002060050160006101000a81548160ff0219169083151502179055507fdbb143ffe2712ccf6aa7668c5f469aa47c60030cb64b47b379d1a4cacfe8f50683600c54600d54600f600088815260200190815260200160002060050160009054906101000a900460ff1660405180858152602001848152602001838152602001821515815260200194505050505060405180910390a1505050565b606060068054600181600116156101000203166002900480601f0160208091040260200160405190810160405280929190818152602001828054600181600116156101000203166002900480156114255780601f106113fa57610100808354040283529160200191611425565b820191906000526020600020905b81548152906001019060200180831161140857829003601f168201915b5050505050905090565b600061143a82612225565b61148f576040517f08c379a000000000000000000000000000000000000000000000000000000000815260040180806020018281038252602c81526020018061381a602c913960400191505060405180910390fd5b6004600083815260200190815260200160002060009054906101000a900473ffffffffffffffffffffffffffffffffffffffff169050919050565b60006114d582611a42565b90508073ffffffffffffffffffffffffffffffffffffffff168373ffffffffffffffffffffffffffffffffffffffff16141561155c576040517f08c379a00000000000000000000000000000000000000000000000000000000081526004018080602001828103825260218152602001806138ca6021913960400191505060405180910390fd5b8073ffffffffffffffffffffffffffffffffffffffff1661157b612242565b73ffffffffffffffffffffffffffffffffffffffff1614806115aa57506115a9816115a4612242565b612191565b5b6115ff576040517f08c379a000000000000000000000000000000000000000000000000000000000815260040180806020018281038252603881526020018061376d6038913960400191505060405180910390fd5b611609838361224a565b505050565b600061161a6002612303565b905090565b61163061162a612242565b82612318565b611685576040517f08c379a00000000000000000000000000000000000000000000000000000000081526004018080602001828103825260318152602001806138eb6031913960400191505060405180910390fd5b61169083838361240c565b505050565b60006116e882600160008673ffffffffffffffffffffffffffffffffffffffff1673ffffffffffffffffffffffffffffffffffffffff16815260200190815260200160002061264f90919063ffffffff16565b905092915050565b61170b83838360405180602001604052806000815250611e48565b505050565b60008411611786576040517f08c379a000000000000000000000000000000000000000000000000000000000815260040180806020018281038252600d8152602001807f496e76616c69642070726963650000000000000000000000000000000000000081525060200191505060405180910390fd5b600a600081548092919060010191905055506117a433600a54612669565b6117b0600a5482612687565b6040518060e00160405280600a5481526020018581526020018481526020018381526020018281526020016000151581526020013373ffffffffffffffffffffffffffffffffffffffff16815250600f6000600a54815260200190815260200160002060008201518160000155602082015181600101556040820151816002019080519060200190611843929190613605565b506060820151816003019080519060200190611860929190613605565b50608082015181600401908051906020019061187d929190613605565b5060a08201518160050160006101000a81548160ff02191690831515021790555060c08201518160050160016101000a81548173ffffffffffffffffffffffffffffffffffffffff021916908373ffffffffffffffffffffffffffffffffffffffff1602179055509050507fe4cffcc9f9bdfb7473cca05e3a71eecac250ed1c78723d3c4c97ce3c12b1140e600a548484336040518085815260200180602001806020018473ffffffffffffffffffffffffffffffffffffffff168152602001838103835286818151815260200191508051906020019080838360005b8381101561197557808201518184015260208101905061195a565b50505050905090810190601f1680156119a25780820380516001836020036101000a031916815260200191505b50838103825285818151815260200191508051906020019080838360005b838110156119db5780820151818401526020810190506119c0565b50505050905090810190601f168015611a085780820380516001836020036101000a031916815260200191505b50965050505050505060405180910390a150505050565b600080611a3683600261271190919063ffffffff16565b50905080915050919050565b6000611a72826040518060600160405280602981526020016137cf60299139600261273d9092919063ffffffff16565b9050919050565b606060098054600181600116156101000203166002900480601f016020809104026020016040519081016040528092919081815260200182805460018160011615610100020316600290048015611b115780601f10611ae657610100808354040283529160200191611b11565b820191906000526020600020905b815481529060010190602001808311611af457829003601f168201915b5050505050905090565b60008073ffffffffffffffffffffffffffffffffffffffff168273ffffffffffffffffffffffffffffffffffffffff161415611ba2576040517f08c379a000000000000000000000000000000000000000000000000000000000815260040180806020018281038252602a8152602001806137a5602a913960400191505060405180910390fd5b611be9600160008473ffffffffffffffffffffffffffffffffffffffff1673ffffffffffffffffffffffffffffffffffffffff16815260200190815260200160002061275c565b9050919050565b606060078054600181600116156101000203166002900480601f016020809104026020016040519081016040528092919081815260200182805460018160011615610100020316600290048015611c885780601f10611c5d57610100808354040283529160200191611c88565b820191906000526020600020905b815481529060010190602001808311611c6b57829003601f168201915b5050505050905090565b611c9a612242565b73ffffffffffffffffffffffffffffffffffffffff168273ffffffffffffffffffffffffffffffffffffffff161415611d3b576040517f08c379a00000000000000000000000000000000000000000000000000000000081526004018080602001828103825260198152602001807f4552433732313a20617070726f766520746f2063616c6c65720000000000000081525060200191505060405180910390fd5b8060056000611d48612242565b73ffffffffffffffffffffffffffffffffffffffff1673ffffffffffffffffffffffffffffffffffffffff16815260200190815260200160002060008473ffffffffffffffffffffffffffffffffffffffff1673ffffffffffffffffffffffffffffffffffffffff16815260200190815260200160002060006101000a81548160ff0219169083151502179055508173ffffffffffffffffffffffffffffffffffffffff16611df5612242565b73ffffffffffffffffffffffffffffffffffffffff167f17307eab39ab6107e8899845ad3d59bd9653f200f220920489ca2b5937696c318360405180821515815260200191505060405180910390a35050565b611e59611e53612242565b83612318565b611eae576040517f08c379a00000000000000000000000000000000000000000000000000000000081526004018080602001828103825260318152602001806138eb6031913960400191505060405180910390fd5b611eba84848484612771565b50505050565b6060611ecb82612225565b611f20576040517f08c379a000000000000000000000000000000000000000000000000000000000815260040180806020018281038252602f81526020018061389b602f913960400191505060405180910390fd5b6060600860008481526020019081526020016000208054600181600116156101000203166002900480601f016020809104026020016040519081016040528092919081815260200182805460018160011615610100020316600290048015611fc95780601f10611f9e57610100808354040283529160200191611fc9565b820191906000526020600020905b815481529060010190602001808311611fac57829003601f168201915b505050505090506060611fda611a79565b9050600081511415611ff057819250505061218c565b6000825111156120c15780826040516020018083805190602001908083835b60208310612032578051825260208201915060208101905060208303925061200f565b6001836020036101000a03801982511681845116808217855250505050505090500182805190602001908083835b602083106120835780518252602082019150602081019050602083039250612060565b6001836020036101000a038019825116818451168082178552505050505050905001925050506040516020818303038152906040529250505061218c565b806120cb856127e3565b6040516020018083805190602001908083835b6020831061210157805182526020820191506020810190506020830392506120de565b6001836020036101000a03801982511681845116808217855250505050505090500182805190602001908083835b60208310612152578051825260208201915060208101905060208303925061212f565b6001836020036101000a03801982511681845116808217855250505050505090500192505050604051602081830303815290604052925050505b919050565b6000600560008473ffffffffffffffffffffffffffffffffffffffff1673ffffffffffffffffffffffffffffffffffffffff16815260200190815260200160002060008373ffffffffffffffffffffffffffffffffffffffff1673ffffffffffffffffffffffffffffffffffffffff16815260200190815260200160002060009054906101000a900460ff16905092915050565b600061223b82600261292a90919063ffffffff16565b9050919050565b600033905090565b816004600083815260200190815260200160002060006101000a81548173ffffffffffffffffffffffffffffffffffffffff021916908373ffffffffffffffffffffffffffffffffffffffff160217905550808273ffffffffffffffffffffffffffffffffffffffff166122bd83611a42565b73ffffffffffffffffffffffffffffffffffffffff167f8c5be1e5ebec7d5bd14f71427d1e84f3dd0314c0f7b2291e5b200ac8c7c3b92560405160405180910390a45050565b600061231182600001612944565b9050919050565b600061232382612225565b612378576040517f08c379a000000000000000000000000000000000000000000000000000000000815260040180806020018281038252602c815260200180613741602c913960400191505060405180910390fd5b600061238383611a42565b90508073ffffffffffffffffffffffffffffffffffffffff168473ffffffffffffffffffffffffffffffffffffffff1614806123f257508373ffffffffffffffffffffffffffffffffffffffff166123da8461142f565b73ffffffffffffffffffffffffffffffffffffffff16145b8061240357506124028185612191565b5b91505092915050565b8273ffffffffffffffffffffffffffffffffffffffff1661242c82611a42565b73ffffffffffffffffffffffffffffffffffffffff1614612498576040517f08c379a00000000000000000000000000000000000000000000000000000000081526004018080602001828103825260298152602001806138726029913960400191505060405180910390fd5b600073ffffffffffffffffffffffffffffffffffffffff168273ffffffffffffffffffffffffffffffffffffffff16141561251e576040517f08c379a00000000000000000000000000000000000000000000000000000000081526004018080602001828103825260248152602001806136f76024913960400191505060405180910390fd5b612529838383612955565b61253460008261224a565b61258581600160008673ffffffffffffffffffffffffffffffffffffffff1673ffffffffffffffffffffffffffffffffffffffff16815260200190815260200160002061295a90919063ffffffff16565b506125d781600160008573ffffffffffffffffffffffffffffffffffffffff1673ffffffffffffffffffffffffffffffffffffffff16815260200190815260200160002061297490919063ffffffff16565b506125ee8183600261298e9092919063ffffffff16565b50808273ffffffffffffffffffffffffffffffffffffffff168473ffffffffffffffffffffffffffffffffffffffff167fddf252ad1be2c89b69c2b068fc378daa952ba7f163c4a11628f55a4df523b3ef60405160405180910390a4505050565b600061265e83600001836129c3565b60001c905092915050565b612683828260405180602001604052806000815250612a46565b5050565b61269082612225565b6126e5576040517f08c379a000000000000000000000000000000000000000000000000000000000815260040180806020018281038252602c815260200180613846602c913960400191505060405180910390fd5b8060086000848152602001908152602001600020908051906020019061270c929190613605565b505050565b6000806000806127248660000186612ab7565b915091508160001c8160001c9350935050509250929050565b6000612750846000018460001b84612b50565b60001c90509392505050565b600061276a82600001612c46565b9050919050565b61277c84848461240c565b61278884848484612c57565b6127dd576040517f08c379a00000000000000000000000000000000000000000000000000000000081526004018080602001828103825260328152602001806136c56032913960400191505060405180910390fd5b50505050565b6060600082141561282b576040518060400160405280600181526020017f30000000000000000000000000000000000000000000000000000000000000008152509050612925565b600082905060005b60008214612855578080600101915050600a828161284d57fe5b049150612833565b60608167ffffffffffffffff8111801561286e57600080fd5b506040519080825280601f01601f1916602001820160405280156128a15781602001600182028036833780820191505090505b50905060006001830390508593505b6000841461291d57600a84816128c257fe5b0660300160f81b828280600190039350815181106128dc57fe5b60200101907effffffffffffffffffffffffffffffffffffffffffffffffffffffffffffff1916908160001a905350600a848161291557fe5b0493506128b0565b819450505050505b919050565b600061293c836000018360001b612e70565b905092915050565b600081600001805490509050919050565b505050565b600061296c836000018360001b612e93565b905092915050565b6000612986836000018360001b612f7b565b905092915050565b60006129ba846000018460001b8473ffffffffffffffffffffffffffffffffffffffff1660001b612feb565b90509392505050565b600081836000018054905011612a24576040517f08c379a00000000000000000000000000000000000000000000000000000000081526004018080602001828103825260228152602001806136a36022913960400191505060405180910390fd5b826000018281548110612a3357fe5b9060005260206000200154905092915050565b612a5083836130c7565b612a5d6000848484612c57565b612ab2576040517f08c379a00000000000000000000000000000000000000000000000000000000081526004018080602001828103825260328152602001806136c56032913960400191505060405180910390fd5b505050565b60008082846000018054905011612b19576040517f08c379a00000000000000000000000000000000000000000000000000000000081526004018080602001828103825260228152602001806137f86022913960400191505060405180910390fd5b6000846000018481548110612b2a57fe5b906000526020600020906002020190508060000154816001015492509250509250929050565b60008084600101600085815260200190815260200160002054905060008114158390612c17576040517f08c379a00000000000000000000000000000000000000000000000000000000081526004018080602001828103825283818151815260200191508051906020019080838360005b83811015612bdc578082015181840152602081019050612bc1565b50505050905090810190601f168015612c095780820380516001836020036101000a031916815260200191505b509250505060405180910390fd5b50846000016001820381548110612c2a57fe5b9060005260206000209060020201600101549150509392505050565b600081600001805490509050919050565b6000612c788473ffffffffffffffffffffffffffffffffffffffff166132bb565b612c855760019050612e68565b6060612def63150b7a0260e01b612c9a612242565b888787604051602401808573ffffffffffffffffffffffffffffffffffffffff1681526020018473ffffffffffffffffffffffffffffffffffffffff16815260200183815260200180602001828103825283818151815260200191508051906020019080838360005b83811015612d1e578082015181840152602081019050612d03565b50505050905090810190601f168015612d4b5780820380516001836020036101000a031916815260200191505b5095505050505050604051602081830303815290604052907bffffffffffffffffffffffffffffffffffffffffffffffffffffffff19166020820180517bffffffffffffffffffffffffffffffffffffffffffffffffffffffff83818316178352505050506040518060600160405280603281526020016136c5603291398773ffffffffffffffffffffffffffffffffffffffff166132ce9092919063ffffffff16565b90506000818060200190516020811015612e0857600080fd5b8101908080519060200190929190505050905063150b7a0260e01b7bffffffffffffffffffffffffffffffffffffffffffffffffffffffff1916817bffffffffffffffffffffffffffffffffffffffffffffffffffffffff191614925050505b949350505050565b600080836001016000848152602001908152602001600020541415905092915050565b60008083600101600084815260200190815260200160002054905060008114612f6f5760006001820390506000600186600001805490500390506000866000018281548110612ede57fe5b9060005260206000200154905080876000018481548110612efb57fe5b9060005260206000200181905550600183018760010160008381526020019081526020016000208190555086600001805480612f3357fe5b60019003818190600052602060002001600090559055866001016000878152602001908152602001600020600090556001945050505050612f75565b60009150505b92915050565b6000612f8783836132e6565b612fe0578260000182908060018154018082558091505060019003906000526020600020016000909190919091505582600001805490508360010160008481526020019081526020016000208190555060019050612fe5565b600090505b92915050565b6000808460010160008581526020019081526020016000205490506000811415613092578460000160405180604001604052808681526020018581525090806001815401808255809150506001900390600052602060002090600202016000909190919091506000820151816000015560208201518160010155505084600001805490508560010160008681526020019081526020016000208190555060019150506130c0565b828560000160018303815481106130a557fe5b90600052602060002090600202016001018190555060009150505b9392505050565b600073ffffffffffffffffffffffffffffffffffffffff168273ffffffffffffffffffffffffffffffffffffffff16141561316a576040517f08c379a00000000000000000000000000000000000000000000000000000000081526004018080602001828103825260208152602001807f4552433732313a206d696e7420746f20746865207a65726f206164647265737381525060200191505060405180910390fd5b61317381612225565b156131e6576040517f08c379a000000000000000000000000000000000000000000000000000000000815260040180806020018281038252601c8152602001807f4552433732313a20746f6b656e20616c7265616479206d696e7465640000000081525060200191505060405180910390fd5b6131f260008383612955565b61324381600160008573ffffffffffffffffffffffffffffffffffffffff1673ffffffffffffffffffffffffffffffffffffffff16815260200190815260200160002061297490919063ffffffff16565b5061325a8183600261298e9092919063ffffffff16565b50808273ffffffffffffffffffffffffffffffffffffffff16600073ffffffffffffffffffffffffffffffffffffffff167fddf252ad1be2c89b69c2b068fc378daa952ba7f163c4a11628f55a4df523b3ef60405160405180910390a45050565b600080823b905060008111915050919050565b60606132dd8484600085613309565b90509392505050565b600080836001016000848152602001908152602001600020541415905092915050565b606082471015613364576040517f08c379a000000000000000000000000000000000000000000000000000000000815260040180806020018281038252602681526020018061371b6026913960400191505060405180910390fd5b61336d856132bb565b6133df576040517f08c379a000000000000000000000000000000000000000000000000000000000815260040180806020018281038252601d8152602001807f416464726573733a2063616c6c20746f206e6f6e2d636f6e747261637400000081525060200191505060405180910390fd5b600060608673ffffffffffffffffffffffffffffffffffffffff1685876040518082805190602001908083835b6020831061342f578051825260208201915060208101905060208303925061340c565b6001836020036101000a03801982511681845116808217855250505050505090500191505060006040518083038185875af1925050503d8060008114613491576040519150601f19603f3d011682016040523d82523d6000602084013e613496565b606091505b50915091506134a68282866134b2565b92505050949350505050565b606083156134c257829050613577565b6000835111156134d55782518084602001fd5b816040517f08c379a00000000000000000000000000000000000000000000000000000000081526004018080602001828103825283818151815260200191508051906020019080838360005b8381101561353c578082015181840152602081019050613521565b50505050905090810190601f1680156135695780820380516001836020036101000a031916815260200191505b509250505060405180910390fd5b9392505050565b828054600181600116156101000203166002900490600052602060002090601f016020900481019282601f106135b757805485556135f4565b828001600101855582156135f457600052602060002091601f016020900482015b828111156135f35782548255916001019190600101906135d8565b5b5090506136019190613685565b5090565b828054600181600116156101000203166002900490600052602060002090601f016020900481019282601f1061364657805160ff1916838001178555613674565b82800160010185558215613674579182015b82811115613673578251825591602001919060010190613658565b5b5090506136819190613685565b5090565b5b8082111561369e576000816000905550600101613686565b509056fe456e756d657261626c655365743a20696e646578206f7574206f6620626f756e64734552433732313a207472616e7366657220746f206e6f6e20455243373231526563656976657220696d706c656d656e7465724552433732313a207472616e7366657220746f20746865207a65726f2061646472657373416464726573733a20696e73756666696369656e742062616c616e636520666f722063616c6c4552433732313a206f70657261746f7220717565727920666f72206e6f6e6578697374656e7420746f6b656e4552433732313a20617070726f76652063616c6c6572206973206e6f74206f776e6572206e6f7220617070726f76656420666f7220616c6c4552433732313a2062616c616e636520717565727920666f7220746865207a65726f20616464726573734552433732313a206f776e657220717565727920666f72206e6f6e6578697374656e7420746f6b656e456e756d657261626c654d61703a20696e646578206f7574206f6620626f756e64734552433732313a20617070726f76656420717565727920666f72206e6f6e6578697374656e7420746f6b656e4552433732314d657461646174613a2055524920736574206f66206e6f6e6578697374656e7420746f6b656e4552433732313a207472616e73666572206f6620746f6b656e2074686174206973206e6f74206f776e4552433732314d657461646174613a2055524920717565727920666f72206e6f6e6578697374656e7420746f6b656e4552433732313a20617070726f76616c20746f2063757272656e74206f776e65724552433732313a207472616e736665722063616c6c6572206973206e6f74206f776e6572206e6f7220617070726f766564a2646970667358221220e4b70ac91293f5a7316e9b68d4c4b7f4a0e57d480dd27c0f3fc2b327a132b6c364736f6c63430007010033",
  "immutableReferences": {},
  "source": "// SPDX-License-Identifier: GPL-3.0\r\n\r\npragma solidity >=0.7.0 <0.9.0;\r\n\r\nimport \"@openzeppelin/contracts/token/ERC721/ERC721.sol\";\r\n\r\ncontract NftoBase is ERC721{\r\n\r\n    constructor() public ERC721(\"Nfto\", \"NFTO\") {}\r\n    \r\n    uint tokenID;\r\n    uint offerCount;\r\n    uint eCount;\r\n    uint dCount;\r\n    uint vCount;\r\n    \r\n    mapping(uint => Item) items;\r\n    mapping(uint => Offer) offers;\r\n    mapping(uint => Item) english;\r\n    mapping(uint => Item) dutch;\r\n    mapping(uint => Item) vickery;\r\n\r\n    struct Item {\r\n        uint id;\r\n        uint256 latestPrice;\r\n        string name;\r\n        string description;\r\n        string cid;\r\n        bool isListed;\r\n        address payable owner;\r\n    }\r\n\r\n    struct Offer {\r\n        uint id;\r\n        uint tId;\r\n        uint256 offerAmount;\r\n        address bidder;\r\n        address auctioneer;\r\n        bool isApproved;\r\n    }\r\n\r\n    event ItemMinted(\r\n        uint id,\r\n        string name,\r\n        string description,\r\n        address payable owner\r\n    );\r\n\r\n    event ItemListed(\r\n        uint id,\r\n        uint eCount,\r\n        uint dCount,\r\n        bool isListed\r\n    );\r\n\r\n    \r\n    function mintItem(uint256 _price, string memory _name, string memory _description, string memory _cid) external {\r\n        require(_price > 0, \"Invalid price\");\r\n        tokenID++;\r\n        _safeMint(msg.sender, tokenID);\r\n        _setTokenURI(tokenID, _cid);\r\n        items[tokenID] = Item(tokenID, _price, _name, _description, _cid, false, msg.sender);\r\n        emit ItemMinted(tokenID, _name, _description, msg.sender);\r\n    }\r\n\r\n\r\n    function listItem(uint _id, string memory _type, uint256 _price) external {\r\n        require(_id > 0 && _id <= tokenID, \"Invalid Id\");\r\n\r\n        if(keccak256(abi.encodePacked((_type))) == keccak256(abi.encodePacked((\"english\")))) {\r\n            eCount++;\r\n            english[eCount] = items[_id];\r\n            english[eCount].latestPrice = _price;\r\n        }\r\n\r\n        else if(keccak256(abi.encodePacked((_type))) == keccak256(abi.encodePacked((\"dutch\")))) {\r\n            dCount++;\r\n            dutch[dCount] = items[_id];\r\n            dutch[dCount].latestPrice = _price;\r\n        }\r\n\r\n        else if(keccak256(abi.encodePacked((_type))) == keccak256(abi.encodePacked((\"vickery\")))) {\r\n            vCount++;\r\n            vickery[vCount] = items[_id];\r\n            vickery[vCount].latestPrice = _price;\r\n        }\r\n\r\n        items[_id].isListed = true;\r\n        emit ItemListed(_id, eCount, dCount, items[_id].isListed);\r\n    }\r\n}\r\n\r\n",
  "sourcePath": "E:/CS/Hackathons/Devfolio online/ETHOdyssey/test/src/contracts/NftoBase.sol",
  "compiler": {
    "name": "solc",
    "version": "0.7.1+commit.f4a555be.Emscripten.clang"
  },
  "schemaVersion": "3.4.1",
  "updatedAt": "2021-08-03T06:05:01.965Z",
  "devdoc": {
    "kind": "dev",
    "methods": {
      "approve(address,uint256)": {
        "details": "See {IERC721-approve}."
      },
      "balanceOf(address)": {
        "details": "See {IERC721-balanceOf}."
      },
      "baseURI()": {
        "details": "Returns the base URI set via {_setBaseURI}. This will be automatically added as a prefix in {tokenURI} to each token's URI, or to the token ID if no specific URI is set for that token ID."
      },
      "getApproved(uint256)": {
        "details": "See {IERC721-getApproved}."
      },
      "isApprovedForAll(address,address)": {
        "details": "See {IERC721-isApprovedForAll}."
      },
      "name()": {
        "details": "See {IERC721Metadata-name}."
      },
      "ownerOf(uint256)": {
        "details": "See {IERC721-ownerOf}."
      },
      "safeTransferFrom(address,address,uint256)": {
        "details": "See {IERC721-safeTransferFrom}."
      },
      "safeTransferFrom(address,address,uint256,bytes)": {
        "details": "See {IERC721-safeTransferFrom}."
      },
      "setApprovalForAll(address,bool)": {
        "details": "See {IERC721-setApprovalForAll}."
      },
      "supportsInterface(bytes4)": {
        "details": "See {IERC165-supportsInterface}. Time complexity O(1), guaranteed to always use less than 30 000 gas."
      },
      "symbol()": {
        "details": "See {IERC721Metadata-symbol}."
      },
      "tokenByIndex(uint256)": {
        "details": "See {IERC721Enumerable-tokenByIndex}."
      },
      "tokenOfOwnerByIndex(address,uint256)": {
        "details": "See {IERC721Enumerable-tokenOfOwnerByIndex}."
      },
      "tokenURI(uint256)": {
        "details": "See {IERC721Metadata-tokenURI}."
      },
      "totalSupply()": {
        "details": "See {IERC721Enumerable-totalSupply}."
      },
      "transferFrom(address,address,uint256)": {
        "details": "See {IERC721-transferFrom}."
      }
    },
    "version": 1
  },
  "userdoc": {
    "kind": "user",
    "methods": {},
    "version": 1
  }
}