{
  "contractName": "Nfto",
  "abi": [
    {
      "anonymous": false,
      "inputs": [
        {
          "indexed": true,
          "internalType": "address",
          "name": "owner",
          "type": "address"
        },
        {
          "indexed": true,
          "internalType": "address",
          "name": "approved",
          "type": "address"
        },
        {
          "indexed": true,
          "internalType": "uint256",
          "name": "tokenId",
          "type": "uint256"
        }
      ],
      "name": "Approval",
      "type": "event"
    },
    {
      "anonymous": false,
      "inputs": [
        {
          "indexed": true,
          "internalType": "address",
          "name": "owner",
          "type": "address"
        },
        {
          "indexed": true,
          "internalType": "address",
          "name": "operator",
          "type": "address"
        },
        {
          "indexed": false,
          "internalType": "bool",
          "name": "approved",
          "type": "bool"
        }
      ],
      "name": "ApprovalForAll",
      "type": "event"
    },
    {
      "anonymous": false,
      "inputs": [
        {
          "indexed": false,
          "internalType": "uint256",
          "name": "id",
          "type": "uint256"
        },
        {
          "indexed": false,
          "internalType": "uint256",
          "name": "eCount",
          "type": "uint256"
        },
        {
          "indexed": false,
          "internalType": "uint256",
          "name": "dCount",
          "type": "uint256"
        },
        {
          "indexed": false,
          "internalType": "bool",
          "name": "isListed",
          "type": "bool"
        }
      ],
      "name": "ItemListed",
      "type": "event"
    },
    {
      "anonymous": false,
      "inputs": [
        {
          "indexed": false,
          "internalType": "uint256",
          "name": "id",
          "type": "uint256"
        },
        {
          "indexed": false,
          "internalType": "string",
          "name": "name",
          "type": "string"
        },
        {
          "indexed": false,
          "internalType": "string",
          "name": "description",
          "type": "string"
        },
        {
          "indexed": false,
          "internalType": "address payable",
          "name": "owner",
          "type": "address"
        }
      ],
      "name": "ItemMinted",
      "type": "event"
    },
    {
      "anonymous": false,
      "inputs": [
        {
          "indexed": true,
          "internalType": "address",
          "name": "from",
          "type": "address"
        },
        {
          "indexed": true,
          "internalType": "address",
          "name": "to",
          "type": "address"
        },
        {
          "indexed": true,
          "internalType": "uint256",
          "name": "tokenId",
          "type": "uint256"
        }
      ],
      "name": "Transfer",
      "type": "event"
    },
    {
      "inputs": [
        {
          "internalType": "address",
          "name": "to",
          "type": "address"
        },
        {
          "internalType": "uint256",
          "name": "tokenId",
          "type": "uint256"
        }
      ],
      "name": "approve",
      "outputs": [],
      "stateMutability": "nonpayable",
      "type": "function"
    },
    {
      "inputs": [
        {
          "internalType": "address",
          "name": "owner",
          "type": "address"
        }
      ],
      "name": "balanceOf",
      "outputs": [
        {
          "internalType": "uint256",
          "name": "",
          "type": "uint256"
        }
      ],
      "stateMutability": "view",
      "type": "function",
      "constant": true
    },
    {
      "inputs": [],
      "name": "baseURI",
      "outputs": [
        {
          "internalType": "string",
          "name": "",
          "type": "string"
        }
      ],
      "stateMutability": "view",
      "type": "function",
      "constant": true
    },
    {
      "inputs": [
        {
          "internalType": "uint256",
          "name": "tokenId",
          "type": "uint256"
        }
      ],
      "name": "getApproved",
      "outputs": [
        {
          "internalType": "address",
          "name": "",
          "type": "address"
        }
      ],
      "stateMutability": "view",
      "type": "function",
      "constant": true
    },
    {
      "inputs": [
        {
          "internalType": "address",
          "name": "owner",
          "type": "address"
        },
        {
          "internalType": "address",
          "name": "operator",
          "type": "address"
        }
      ],
      "name": "isApprovedForAll",
      "outputs": [
        {
          "internalType": "bool",
          "name": "",
          "type": "bool"
        }
      ],
      "stateMutability": "view",
      "type": "function",
      "constant": true
    },
    {
      "inputs": [
        {
          "internalType": "uint256",
          "name": "_id",
          "type": "uint256"
        },
        {
          "internalType": "string",
          "name": "_type",
          "type": "string"
        },
        {
          "internalType": "uint256",
          "name": "_price",
          "type": "uint256"
        }
      ],
      "name": "listItem",
      "outputs": [],
      "stateMutability": "nonpayable",
      "type": "function"
    },
    {
      "inputs": [
        {
          "internalType": "uint256",
          "name": "_price",
          "type": "uint256"
        },
        {
          "internalType": "string",
          "name": "_name",
          "type": "string"
        },
        {
          "internalType": "string",
          "name": "_description",
          "type": "string"
        },
        {
          "internalType": "string",
          "name": "_cid",
          "type": "string"
        }
      ],
      "name": "mintItem",
      "outputs": [],
      "stateMutability": "nonpayable",
      "type": "function"
    },
    {
      "inputs": [],
      "name": "name",
      "outputs": [
        {
          "internalType": "string",
          "name": "",
          "type": "string"
        }
      ],
      "stateMutability": "view",
      "type": "function",
      "constant": true
    },
    {
      "inputs": [
        {
          "internalType": "uint256",
          "name": "tokenId",
          "type": "uint256"
        }
      ],
      "name": "ownerOf",
      "outputs": [
        {
          "internalType": "address",
          "name": "",
          "type": "address"
        }
      ],
      "stateMutability": "view",
      "type": "function",
      "constant": true
    },
    {
      "inputs": [
        {
          "internalType": "address",
          "name": "from",
          "type": "address"
        },
        {
          "internalType": "address",
          "name": "to",
          "type": "address"
        },
        {
          "internalType": "uint256",
          "name": "tokenId",
          "type": "uint256"
        }
      ],
      "name": "safeTransferFrom",
      "outputs": [],
      "stateMutability": "nonpayable",
      "type": "function"
    },
    {
      "inputs": [
        {
          "internalType": "address",
          "name": "from",
          "type": "address"
        },
        {
          "internalType": "address",
          "name": "to",
          "type": "address"
        },
        {
          "internalType": "uint256",
          "name": "tokenId",
          "type": "uint256"
        },
        {
          "internalType": "bytes",
          "name": "_data",
          "type": "bytes"
        }
      ],
      "name": "safeTransferFrom",
      "outputs": [],
      "stateMutability": "nonpayable",
      "type": "function"
    },
    {
      "inputs": [
        {
          "internalType": "address",
          "name": "operator",
          "type": "address"
        },
        {
          "internalType": "bool",
          "name": "approved",
          "type": "bool"
        }
      ],
      "name": "setApprovalForAll",
      "outputs": [],
      "stateMutability": "nonpayable",
      "type": "function"
    },
    {
      "inputs": [
        {
          "internalType": "bytes4",
          "name": "interfaceId",
          "type": "bytes4"
        }
      ],
      "name": "supportsInterface",
      "outputs": [
        {
          "internalType": "bool",
          "name": "",
          "type": "bool"
        }
      ],
      "stateMutability": "view",
      "type": "function",
      "constant": true
    },
    {
      "inputs": [],
      "name": "symbol",
      "outputs": [
        {
          "internalType": "string",
          "name": "",
          "type": "string"
        }
      ],
      "stateMutability": "view",
      "type": "function",
      "constant": true
    },
    {
      "inputs": [
        {
          "internalType": "uint256",
          "name": "index",
          "type": "uint256"
        }
      ],
      "name": "tokenByIndex",
      "outputs": [
        {
          "internalType": "uint256",
          "name": "",
          "type": "uint256"
        }
      ],
      "stateMutability": "view",
      "type": "function",
      "constant": true
    },
    {
      "inputs": [
        {
          "internalType": "address",
          "name": "owner",
          "type": "address"
        },
        {
          "internalType": "uint256",
          "name": "index",
          "type": "uint256"
        }
      ],
      "name": "tokenOfOwnerByIndex",
      "outputs": [
        {
          "internalType": "uint256",
          "name": "",
          "type": "uint256"
        }
      ],
      "stateMutability": "view",
      "type": "function",
      "constant": true
    },
    {
      "inputs": [
        {
          "internalType": "uint256",
          "name": "tokenId",
          "type": "uint256"
        }
      ],
      "name": "tokenURI",
      "outputs": [
        {
          "internalType": "string",
          "name": "",
          "type": "string"
        }
      ],
      "stateMutability": "view",
      "type": "function",
      "constant": true
    },
    {
      "inputs": [],
      "name": "totalSupply",
      "outputs": [
        {
          "internalType": "uint256",
          "name": "",
          "type": "uint256"
        }
      ],
      "stateMutability": "view",
      "type": "function",
      "constant": true
    },
    {
      "inputs": [
        {
          "internalType": "address",
          "name": "from",
          "type": "address"
        },
        {
          "internalType": "address",
          "name": "to",
          "type": "address"
        },
        {
          "internalType": "uint256",
          "name": "tokenId",
          "type": "uint256"
        }
      ],
      "name": "transferFrom",
      "outputs": [],
      "stateMutability": "nonpayable",
      "type": "function"
    },
    {
      "inputs": [
        {
          "internalType": "uint256",
          "name": "_id",
          "type": "uint256"
        },
        {
          "internalType": "uint256",
          "name": "_tId",
          "type": "uint256"
        },
        {
          "internalType": "uint256",
          "name": "_amount",
          "type": "uint256"
        },
        {
          "internalType": "string",
          "name": "_type",
          "type": "string"
        }
      ],
      "name": "makeOffer",
      "outputs": [],
      "stateMutability": "nonpayable",
      "type": "function"
    },
    {
      "inputs": [
        {
          "internalType": "uint256",
          "name": "_id",
          "type": "uint256"
        }
      ],
      "name": "approveOffer",
      "outputs": [],
      "stateMutability": "nonpayable",
      "type": "function"
    },
    {
      "inputs": [
        {
          "internalType": "uint256",
          "name": "_tId",
          "type": "uint256"
        }
      ],
      "name": "purchaseItem",
      "outputs": [],
      "stateMutability": "payable",
      "type": "function",
      "payable": true
    }
  ],
  "bytecode": "0x60806040523480156200001157600080fd5b506040518060400160405280600481526020017f4e66746f000000000000000000000000000000000000000000000000000000008152506040518060400160405280600481526020017f4e46544f00000000000000000000000000000000000000000000000000000000815250620000966301ffc9a760e01b6200011860201b60201c565b8160069080519060200190620000ae92919062000221565b508060079080519060200190620000c792919062000221565b50620000e06380ac58cd60e01b6200011860201b60201c565b620000f8635b5e139f60e01b6200011860201b60201c565b6200011063780e9d6360e01b6200011860201b60201c565b5050620002c7565b63ffffffff60e01b817bffffffffffffffffffffffffffffffffffffffffffffffffffffffff19161415620001b5576040517f08c379a000000000000000000000000000000000000000000000000000000000815260040180806020018281038252601c8152602001807f4552433136353a20696e76616c696420696e746572666163652069640000000081525060200191505060405180910390fd5b6001600080837bffffffffffffffffffffffffffffffffffffffffffffffffffffffff19167bffffffffffffffffffffffffffffffffffffffffffffffffffffffff1916815260200190815260200160002060006101000a81548160ff02191690831515021790555050565b828054600181600116156101000203166002900490600052602060002090601f016020900481019282601f106200026457805160ff191683800117855562000295565b8280016001018555821562000295579182015b828111156200029457825182559160200191906001019062000277565b5b509050620002a49190620002a8565b5090565b5b80821115620002c3576000816000905550600101620002a9565b5090565b61558a80620002d76000396000f3fe6080604052600436106101355760003560e01c80635265358b116100ab578063a22cb4651161006f578063a22cb46514610a85578063a5d7c10a14610ae2578063b88d4fde14610b1d578063c87b56dd14610c2f578063d38ea5bf14610ce3578063e985e9c514610d1157610135565b80635265358b146107b55780636352211e1461089b5780636c0360eb1461090057806370a082311461099057806395d89b41146109f557610135565b806318160ddd116100fd57806318160ddd146103d657806323b872dd146104015780632f745c591461047c57806342842e0e146104eb57806343024f98146105665780634f6ccce71461076657610135565b806301ffc9a71461013a578063069a3d4c146101aa57806306fdde0314610286578063081812fc14610316578063095ea7b31461037b575b600080fd5b34801561014657600080fd5b506101926004803603602081101561015d57600080fd5b8101908080357bffffffffffffffffffffffffffffffffffffffffffffffffffffffff19169060200190929190505050610d98565b60405180821515815260200191505060405180910390f35b3480156101b657600080fd5b50610284600480360360608110156101cd57600080fd5b8101908080359060200190929190803590602001906401000000008111156101f457600080fd5b82018360208201111561020657600080fd5b8035906020019184600183028401116401000000008311171561022857600080fd5b91908080601f016020809104026020016040519081016040528093929190818152602001838380828437600081840152601f19601f82011690508083019250505050505050919291929080359060200190929190505050610dff565b005b34801561029257600080fd5b5061029b6115e7565b6040518080602001828103825283818151815260200191508051906020019080838360005b838110156102db5780820151818401526020810190506102c0565b50505050905090810190601f1680156103085780820380516001836020036101000a031916815260200191505b509250505060405180910390f35b34801561032257600080fd5b5061034f6004803603602081101561033957600080fd5b8101908080359060200190929190505050611689565b604051808273ffffffffffffffffffffffffffffffffffffffff16815260200191505060405180910390f35b34801561038757600080fd5b506103d46004803603604081101561039e57600080fd5b81019080803573ffffffffffffffffffffffffffffffffffffffff16906020019092919080359060200190929190505050611724565b005b3480156103e257600080fd5b506103eb611868565b6040518082815260200191505060405180910390f35b34801561040d57600080fd5b5061047a6004803603606081101561042457600080fd5b81019080803573ffffffffffffffffffffffffffffffffffffffff169060200190929190803573ffffffffffffffffffffffffffffffffffffffff16906020019092919080359060200190929190505050611879565b005b34801561048857600080fd5b506104d56004803603604081101561049f57600080fd5b81019080803573ffffffffffffffffffffffffffffffffffffffff169060200190929190803590602001909291905050506118ef565b6040518082815260200191505060405180910390f35b3480156104f757600080fd5b506105646004803603606081101561050e57600080fd5b81019080803573ffffffffffffffffffffffffffffffffffffffff169060200190929190803573ffffffffffffffffffffffffffffffffffffffff1690602001909291908035906020019092919050505061194a565b005b34801561057257600080fd5b506107646004803603608081101561058957600080fd5b8101908080359060200190929190803590602001906401000000008111156105b057600080fd5b8201836020820111156105c257600080fd5b803590602001918460018302840111640100000000831117156105e457600080fd5b91908080601f016020809104026020016040519081016040528093929190818152602001838380828437600081840152601f19601f8201169050808301925050505050505091929192908035906020019064010000000081111561064757600080fd5b82018360208201111561065957600080fd5b8035906020019184600183028401116401000000008311171561067b57600080fd5b91908080601f016020809104026020016040519081016040528093929190818152602001838380828437600081840152601f19601f820116905080830192505050505050509192919290803590602001906401000000008111156106de57600080fd5b8201836020820111156106f057600080fd5b8035906020019184600183028401116401000000008311171561071257600080fd5b91908080601f016020809104026020016040519081016040528093929190818152602001838380828437600081840152601f19601f82011690508083019250505050505050919291929050505061196a565b005b34801561077257600080fd5b5061079f6004803603602081101561078957600080fd5b8101908080359060200190929190505050611c79565b6040518082815260200191505060405180910390f35b3480156107c157600080fd5b50610899600480360360808110156107d857600080fd5b810190808035906020019092919080359060200190929190803590602001909291908035906020019064010000000081111561081357600080fd5b82018360208201111561082557600080fd5b8035906020019184600183028401116401000000008311171561084757600080fd5b91908080601f016020809104026020016040519081016040528093929190818152602001838380828437600081840152601f19601f820116905080830192505050505050509192919290505050611c9c565b005b3480156108a757600080fd5b506108d4600480360360208110156108be57600080fd5b8101908080359060200190929190505050612e42565b604051808273ffffffffffffffffffffffffffffffffffffffff16815260200191505060405180910390f35b34801561090c57600080fd5b50610915612e79565b6040518080602001828103825283818151815260200191508051906020019080838360005b8381101561095557808201518184015260208101905061093a565b50505050905090810190601f1680156109825780820380516001836020036101000a031916815260200191505b509250505060405180910390f35b34801561099c57600080fd5b506109df600480360360208110156109b357600080fd5b81019080803573ffffffffffffffffffffffffffffffffffffffff169060200190929190505050612f1b565b6040518082815260200191505060405180910390f35b348015610a0157600080fd5b50610a0a612ff0565b6040518080602001828103825283818151815260200191508051906020019080838360005b83811015610a4a578082015181840152602081019050610a2f565b50505050905090810190601f168015610a775780820380516001836020036101000a031916815260200191505b509250505060405180910390f35b348015610a9157600080fd5b50610ae060048036036040811015610aa857600080fd5b81019080803573ffffffffffffffffffffffffffffffffffffffff169060200190929190803515159060200190929190505050613092565b005b348015610aee57600080fd5b50610b1b60048036036020811015610b0557600080fd5b8101908080359060200190929190505050613248565b005b348015610b2957600080fd5b50610c2d60048036036080811015610b4057600080fd5b81019080803573ffffffffffffffffffffffffffffffffffffffff169060200190929190803573ffffffffffffffffffffffffffffffffffffffff1690602001909291908035906020019092919080359060200190640100000000811115610ba757600080fd5b820183602082011115610bb957600080fd5b80359060200191846001830284011164010000000083111715610bdb57600080fd5b91908080601f016020809104026020016040519081016040528093929190818152602001838380828437600081840152601f19601f8201169050808301925050505050505091929192905050506134f0565b005b348015610c3b57600080fd5b50610c6860048036036020811015610c5257600080fd5b8101908080359060200190929190505050613568565b6040518080602001828103825283818151815260200191508051906020019080838360005b83811015610ca8578082015181840152602081019050610c8d565b50505050905090810190601f168015610cd55780820380516001836020036101000a031916815260200191505b509250505060405180910390f35b610d0f60048036036020811015610cf957600080fd5b8101908080359060200190929190505050613839565b005b348015610d1d57600080fd5b50610d8060048036036040811015610d3457600080fd5b81019080803573ffffffffffffffffffffffffffffffffffffffff169060200190929190803573ffffffffffffffffffffffffffffffffffffffff169060200190929190505050613d11565b60405180821515815260200191505060405180910390f35b6000806000837bffffffffffffffffffffffffffffffffffffffffffffffffffffffff19167bffffffffffffffffffffffffffffffffffffffffffffffffffffffff1916815260200190815260200160002060009054906101000a900460ff169050919050565b600083118015610e115750600a548311155b610e83576040517f08c379a000000000000000000000000000000000000000000000000000000000815260040180806020018281038252600a8152602001807f496e76616c69642049640000000000000000000000000000000000000000000081525060200191505060405180910390fd5b60405160200180807f656e676c69736800000000000000000000000000000000000000000000000000815250600701905060405160208183030381529060405280519060200120826040516020018082805190602001908083835b60208310610f015780518252602082019150602081019050602083039250610ede565b6001836020036101000a0380198251168184511680821785525050505050509050019150506040516020818303038152906040528051906020012014156110c157600c60008154809291906001019190505550600f600084815260200190815260200160002060116000600c548152602001908152602001600020600082015481600001556001820154816001015560028201816002019080546001816001161561010002031660029004610fb79291906150fe565b5060038201816003019080546001816001161561010002031660029004610fdf9291906150fe565b50600482018160040190805460018160011615610100020316600290046110079291906150fe565b506005820160009054906101000a900460ff168160050160006101000a81548160ff0219169083151502179055506005820160019054906101000a900473ffffffffffffffffffffffffffffffffffffffff168160050160016101000a81548173ffffffffffffffffffffffffffffffffffffffff021916908373ffffffffffffffffffffffffffffffffffffffff1602179055509050508060116000600c5481526020019081526020016000206001018190555061153b565b60405160200180807f6475746368000000000000000000000000000000000000000000000000000000815250600501905060405160208183030381529060405280519060200120826040516020018082805190602001908083835b6020831061113f578051825260208201915060208101905060208303925061111c565b6001836020036101000a0380198251168184511680821785525050505050509050019150506040516020818303038152906040528051906020012014156112ff57600d60008154809291906001019190505550600f600084815260200190815260200160002060126000600d5481526020019081526020016000206000820154816000015560018201548160010155600282018160020190805460018160011615610100020316600290046111f59291906150fe565b506003820181600301908054600181600116156101000203166002900461121d9291906150fe565b50600482018160040190805460018160011615610100020316600290046112459291906150fe565b506005820160009054906101000a900460ff168160050160006101000a81548160ff0219169083151502179055506005820160019054906101000a900473ffffffffffffffffffffffffffffffffffffffff168160050160016101000a81548173ffffffffffffffffffffffffffffffffffffffff021916908373ffffffffffffffffffffffffffffffffffffffff1602179055509050508060126000600d5481526020019081526020016000206001018190555061153a565b60405160200180807f7669636b65727900000000000000000000000000000000000000000000000000815250600701905060405160208183030381529060405280519060200120826040516020018082805190602001908083835b6020831061137d578051825260208201915060208101905060208303925061135a565b6001836020036101000a03801982511681845116808217855250505050505090500191505060405160208183030381529060405280519060200120141561153957600e60008154809291906001019190505550600f600084815260200190815260200160002060136000600e5481526020019081526020016000206000820154816000015560018201548160010155600282018160020190805460018160011615610100020316600290046114339291906150fe565b506003820181600301908054600181600116156101000203166002900461145b9291906150fe565b50600482018160040190805460018160011615610100020316600290046114839291906150fe565b506005820160009054906101000a900460ff168160050160006101000a81548160ff0219169083151502179055506005820160019054906101000a900473ffffffffffffffffffffffffffffffffffffffff168160050160016101000a81548173ffffffffffffffffffffffffffffffffffffffff021916908373ffffffffffffffffffffffffffffffffffffffff1602179055509050508060136000600e548152602001908152602001600020600101819055505b5b5b6001600f600085815260200190815260200160002060050160006101000a81548160ff0219169083151502179055507fdbb143ffe2712ccf6aa7668c5f469aa47c60030cb64b47b379d1a4cacfe8f50683600c54600d54600f600088815260200190815260200160002060050160009054906101000a900460ff1660405180858152602001848152602001838152602001821515815260200194505050505060405180910390a1505050565b606060068054600181600116156101000203166002900480601f01602080910402602001604051908101604052809291908181526020018280546001816001161561010002031660029004801561167f5780601f106116545761010080835404028352916020019161167f565b820191906000526020600020905b81548152906001019060200180831161166257829003601f168201915b5050505050905090565b600061169482613da5565b6116e9576040517f08c379a000000000000000000000000000000000000000000000000000000000815260040180806020018281038252602c815260200180615453602c913960400191505060405180910390fd5b6004600083815260200190815260200160002060009054906101000a900473ffffffffffffffffffffffffffffffffffffffff169050919050565b600061172f82612e42565b90508073ffffffffffffffffffffffffffffffffffffffff168373ffffffffffffffffffffffffffffffffffffffff1614156117b6576040517f08c379a00000000000000000000000000000000000000000000000000000000081526004018080602001828103825260218152602001806155036021913960400191505060405180910390fd5b8073ffffffffffffffffffffffffffffffffffffffff166117d5613dc2565b73ffffffffffffffffffffffffffffffffffffffff1614806118045750611803816117fe613dc2565b613d11565b5b611859576040517f08c379a00000000000000000000000000000000000000000000000000000000081526004018080602001828103825260388152602001806153a66038913960400191505060405180910390fd5b6118638383613dca565b505050565b60006118746002613e83565b905090565b61188a611884613dc2565b82613e98565b6118df576040517f08c379a00000000000000000000000000000000000000000000000000000000081526004018080602001828103825260318152602001806155246031913960400191505060405180910390fd5b6118ea838383613f8c565b505050565b600061194282600160008673ffffffffffffffffffffffffffffffffffffffff1673ffffffffffffffffffffffffffffffffffffffff1681526020019081526020016000206141cf90919063ffffffff16565b905092915050565b611965838383604051806020016040528060008152506134f0565b505050565b600084116119e0576040517f08c379a000000000000000000000000000000000000000000000000000000000815260040180806020018281038252600d8152602001807f496e76616c69642070726963650000000000000000000000000000000000000081525060200191505060405180910390fd5b600a600081548092919060010191905055506119fe33600a546141e9565b611a0a600a5482614207565b6040518060e00160405280600a5481526020018581526020018481526020018381526020018281526020016000151581526020013373ffffffffffffffffffffffffffffffffffffffff16815250600f6000600a54815260200190815260200160002060008201518160000155602082015181600101556040820151816002019080519060200190611a9d929190615185565b506060820151816003019080519060200190611aba929190615185565b506080820151816004019080519060200190611ad7929190615185565b5060a08201518160050160006101000a81548160ff02191690831515021790555060c08201518160050160016101000a81548173ffffffffffffffffffffffffffffffffffffffff021916908373ffffffffffffffffffffffffffffffffffffffff1602179055509050507fe4cffcc9f9bdfb7473cca05e3a71eecac250ed1c78723d3c4c97ce3c12b1140e600a548484336040518085815260200180602001806020018473ffffffffffffffffffffffffffffffffffffffff168152602001838103835286818151815260200191508051906020019080838360005b83811015611bcf578082015181840152602081019050611bb4565b50505050905090810190601f168015611bfc5780820380516001836020036101000a031916815260200191505b50838103825285818151815260200191508051906020019080838360005b83811015611c35578082015181840152602081019050611c1a565b50505050905090810190601f168015611c625780820380516001836020036101000a031916815260200191505b50965050505050505060405180910390a150505050565b600080611c9083600261429190919063ffffffff16565b50905080915050919050565b611ca4615205565b600f60008581526020019081526020016000206040518060e00160405290816000820154815260200160018201548152602001600282018054600181600116156101000203166002900480601f016020809104026020016040519081016040528092919081815260200182805460018160011615610100020316600290048015611d6f5780601f10611d4457610100808354040283529160200191611d6f565b820191906000526020600020905b815481529060010190602001808311611d5257829003601f168201915b50505050508152602001600382018054600181600116156101000203166002900480601f016020809104026020016040519081016040528092919081815260200182805460018160011615610100020316600290048015611e115780601f10611de657610100808354040283529160200191611e11565b820191906000526020600020905b815481529060010190602001808311611df457829003601f168201915b50505050508152602001600482018054600181600116156101000203166002900480601f016020809104026020016040519081016040528092919081815260200182805460018160011615610100020316600290048015611eb35780601f10611e8857610100808354040283529160200191611eb3565b820191906000526020600020905b815481529060010190602001808311611e9657829003601f168201915b505050505081526020016005820160009054906101000a900460ff161515151581526020016005820160019054906101000a900473ffffffffffffffffffffffffffffffffffffffff1673ffffffffffffffffffffffffffffffffffffffff1673ffffffffffffffffffffffffffffffffffffffff16815250509050600b600081548092919060010191905055506040518060c00160405280600b5481526020018581526020018481526020013373ffffffffffffffffffffffffffffffffffffffff1681526020018260c0015173ffffffffffffffffffffffffffffffffffffffff1681526020016000151581525060106000600b54815260200190815260200160002060008201518160000155602082015181600101556040820151816002015560608201518160030160006101000a81548173ffffffffffffffffffffffffffffffffffffffff021916908373ffffffffffffffffffffffffffffffffffffffff16021790555060808201518160040160006101000a81548173ffffffffffffffffffffffffffffffffffffffff021916908373ffffffffffffffffffffffffffffffffffffffff16021790555060a08201518160040160146101000a81548160ff02191690831515021790555090505060405160200180807f656e676c69736800000000000000000000000000000000000000000000000000815250600701905060405160208183030381529060405280519060200120826040516020018082805190602001908083835b6020831061210557805182526020820191506020810190506020830392506120e2565b6001836020036101000a0380198251168184511680821785525050505050509050019150506040516020818303038152906040528051906020012014156124d25761214e615205565b601160008781526020019081526020016000206040518060e00160405290816000820154815260200160018201548152602001600282018054600181600116156101000203166002900480601f0160208091040260200160405190810160405280929190818152602001828054600181600116156101000203166002900480156122195780601f106121ee57610100808354040283529160200191612219565b820191906000526020600020905b8154815290600101906020018083116121fc57829003601f168201915b50505050508152602001600382018054600181600116156101000203166002900480601f0160208091040260200160405190810160405280929190818152602001828054600181600116156101000203166002900480156122bb5780601f10612290576101008083540402835291602001916122bb565b820191906000526020600020905b81548152906001019060200180831161229e57829003601f168201915b50505050508152602001600482018054600181600116156101000203166002900480601f01602080910402602001604051908101604052809291908181526020018280546001816001161561010002031660029004801561235d5780601f106123325761010080835404028352916020019161235d565b820191906000526020600020905b81548152906001019060200180831161234057829003601f168201915b505050505081526020016005820160009054906101000a900460ff161515151581526020016005820160019054906101000a900473ffffffffffffffffffffffffffffffffffffffff1673ffffffffffffffffffffffffffffffffffffffff1673ffffffffffffffffffffffffffffffffffffffff1681525050905083816020018181525050806011600088815260200190815260200160002060008201518160000155602082015181600101556040820151816002019080519060200190612427929190615185565b506060820151816003019080519060200190612444929190615185565b506080820151816004019080519060200190612461929190615185565b5060a08201518160050160006101000a81548160ff02191690831515021790555060c08201518160050160016101000a81548173ffffffffffffffffffffffffffffffffffffffff021916908373ffffffffffffffffffffffffffffffffffffffff16021790555090505050612e3b565b60405160200180807f6475746368000000000000000000000000000000000000000000000000000000815250600501905060405160208183030381529060405280519060200120826040516020018082805190602001908083835b60208310612550578051825260208201915060208101905060208303925061252d565b6001836020036101000a03801982511681845116808217855250505050505090500191505060405160208183030381529060405280519060200120141561291d57612599615205565b601260008781526020019081526020016000206040518060e00160405290816000820154815260200160018201548152602001600282018054600181600116156101000203166002900480601f0160208091040260200160405190810160405280929190818152602001828054600181600116156101000203166002900480156126645780601f1061263957610100808354040283529160200191612664565b820191906000526020600020905b81548152906001019060200180831161264757829003601f168201915b50505050508152602001600382018054600181600116156101000203166002900480601f0160208091040260200160405190810160405280929190818152602001828054600181600116156101000203166002900480156127065780601f106126db57610100808354040283529160200191612706565b820191906000526020600020905b8154815290600101906020018083116126e957829003601f168201915b50505050508152602001600482018054600181600116156101000203166002900480601f0160208091040260200160405190810160405280929190818152602001828054600181600116156101000203166002900480156127a85780601f1061277d576101008083540402835291602001916127a8565b820191906000526020600020905b81548152906001019060200180831161278b57829003601f168201915b505050505081526020016005820160009054906101000a900460ff161515151581526020016005820160019054906101000a900473ffffffffffffffffffffffffffffffffffffffff1673ffffffffffffffffffffffffffffffffffffffff1673ffffffffffffffffffffffffffffffffffffffff1681525050905083816020018181525050806012600088815260200190815260200160002060008201518160000155602082015181600101556040820151816002019080519060200190612872929190615185565b50606082015181600301908051906020019061288f929190615185565b5060808201518160040190805190602001906128ac929190615185565b5060a08201518160050160006101000a81548160ff02191690831515021790555060c08201518160050160016101000a81548173ffffffffffffffffffffffffffffffffffffffff021916908373ffffffffffffffffffffffffffffffffffffffff16021790555090505050612e3a565b60405160200180807f7669636b65727900000000000000000000000000000000000000000000000000815250600701905060405160208183030381529060405280519060200120826040516020018082805190602001908083835b6020831061299b5780518252602082019150602081019050602083039250612978565b6001836020036101000a038019825116818451168082178552505050505050905001915050604051602081830303815290604052805190602001201415612e39576129e4615205565b601360008781526020019081526020016000206040518060e00160405290816000820154815260200160018201548152602001600282018054600181600116156101000203166002900480601f016020809104026020016040519081016040528092919081815260200182805460018160011615610100020316600290048015612aaf5780601f10612a8457610100808354040283529160200191612aaf565b820191906000526020600020905b815481529060010190602001808311612a9257829003601f168201915b50505050508152602001600382018054600181600116156101000203166002900480601f016020809104026020016040519081016040528092919081815260200182805460018160011615610100020316600290048015612b515780601f10612b2657610100808354040283529160200191612b51565b820191906000526020600020905b815481529060010190602001808311612b3457829003601f168201915b50505050508152602001600482018054600181600116156101000203166002900480601f016020809104026020016040519081016040528092919081815260200182805460018160011615610100020316600290048015612bf35780601f10612bc857610100808354040283529160200191612bf3565b820191906000526020600020905b815481529060010190602001808311612bd657829003601f168201915b505050505081526020016005820160009054906101000a900460ff161515151581526020016005820160019054906101000a900473ffffffffffffffffffffffffffffffffffffffff1673ffffffffffffffffffffffffffffffffffffffff1673ffffffffffffffffffffffffffffffffffffffff16815250509050600080600090506000819050600192505b600b548311612d4157601360008a81526020019081526020016000206000015460106000858152602001908152602001600020600101541415612d36578160106000858152602001908152602001600020600201541115612cfc5781905060106000848152602001908152602001600020600201549150612d35565b8060106000858152602001908152602001600020600201541115612d3457601060008481526020019081526020016000206002015490505b5b5b826001019250612c80565b8084602001818152505083601360008b815260200190815260200160002060008201518160000155602082015181600101556040820151816002019080519060200190612d8f929190615185565b506060820151816003019080519060200190612dac929190615185565b506080820151816004019080519060200190612dc9929190615185565b5060a08201518160050160006101000a81548160ff02191690831515021790555060c08201518160050160016101000a81548173ffffffffffffffffffffffffffffffffffffffff021916908373ffffffffffffffffffffffffffffffffffffffff160217905550905050505050505b5b5b5050505050565b6000612e72826040518060600160405280602981526020016154086029913960026142bd9092919063ffffffff16565b9050919050565b606060098054600181600116156101000203166002900480601f016020809104026020016040519081016040528092919081815260200182805460018160011615610100020316600290048015612f115780601f10612ee657610100808354040283529160200191612f11565b820191906000526020600020905b815481529060010190602001808311612ef457829003601f168201915b5050505050905090565b60008073ffffffffffffffffffffffffffffffffffffffff168273ffffffffffffffffffffffffffffffffffffffff161415612fa2576040517f08c379a000000000000000000000000000000000000000000000000000000000815260040180806020018281038252602a8152602001806153de602a913960400191505060405180910390fd5b612fe9600160008473ffffffffffffffffffffffffffffffffffffffff1673ffffffffffffffffffffffffffffffffffffffff1681526020019081526020016000206142dc565b9050919050565b606060078054600181600116156101000203166002900480601f0160208091040260200160405190810160405280929190818152602001828054600181600116156101000203166002900480156130885780601f1061305d57610100808354040283529160200191613088565b820191906000526020600020905b81548152906001019060200180831161306b57829003601f168201915b5050505050905090565b61309a613dc2565b73ffffffffffffffffffffffffffffffffffffffff168273ffffffffffffffffffffffffffffffffffffffff16141561313b576040517f08c379a00000000000000000000000000000000000000000000000000000000081526004018080602001828103825260198152602001807f4552433732313a20617070726f766520746f2063616c6c65720000000000000081525060200191505060405180910390fd5b8060056000613148613dc2565b73ffffffffffffffffffffffffffffffffffffffff1673ffffffffffffffffffffffffffffffffffffffff16815260200190815260200160002060008473ffffffffffffffffffffffffffffffffffffffff1673ffffffffffffffffffffffffffffffffffffffff16815260200190815260200160002060006101000a81548160ff0219169083151502179055508173ffffffffffffffffffffffffffffffffffffffff166131f5613dc2565b73ffffffffffffffffffffffffffffffffffffffff167f17307eab39ab6107e8899845ad3d59bd9653f200f220920489ca2b5937696c318360405180821515815260200191505060405180910390a35050565b6001811015801561325b5750600b548111155b6132cd576040517f08c379a000000000000000000000000000000000000000000000000000000000815260040180806020018281038252600d8152602001807f496e76616c6964206f666665720000000000000000000000000000000000000081525060200191505060405180910390fd5b6132d561525a565b601060008381526020019081526020016000206040518060c00160405290816000820154815260200160018201548152602001600282015481526020016003820160009054906101000a900473ffffffffffffffffffffffffffffffffffffffff1673ffffffffffffffffffffffffffffffffffffffff1673ffffffffffffffffffffffffffffffffffffffff1681526020016004820160009054906101000a900473ffffffffffffffffffffffffffffffffffffffff1673ffffffffffffffffffffffffffffffffffffffff1673ffffffffffffffffffffffffffffffffffffffff1681526020016004820160149054906101000a900460ff161515151581525050905060008160200151905060008260600151905060018360a0019015159081151581525050826010600086815260200190815260200160002060008201518160000155602082015181600101556040820151816002015560608201518160030160006101000a81548173ffffffffffffffffffffffffffffffffffffffff021916908373ffffffffffffffffffffffffffffffffffffffff16021790555060808201518160040160006101000a81548173ffffffffffffffffffffffffffffffffffffffff021916908373ffffffffffffffffffffffffffffffffffffffff16021790555060a08201518160040160146101000a81548160ff0219169083151502179055509050506134ea8183611724565b50505050565b6135016134fb613dc2565b83613e98565b613556576040517f08c379a00000000000000000000000000000000000000000000000000000000081526004018080602001828103825260318152602001806155246031913960400191505060405180910390fd5b613562848484846142f1565b50505050565b606061357382613da5565b6135c8576040517f08c379a000000000000000000000000000000000000000000000000000000000815260040180806020018281038252602f8152602001806154d4602f913960400191505060405180910390fd5b6060600860008481526020019081526020016000208054600181600116156101000203166002900480601f0160208091040260200160405190810160405280929190818152602001828054600181600116156101000203166002900480156136715780601f1061364657610100808354040283529160200191613671565b820191906000526020600020905b81548152906001019060200180831161365457829003601f168201915b505050505090506060613682612e79565b9050600081511415613698578192505050613834565b6000825111156137695780826040516020018083805190602001908083835b602083106136da57805182526020820191506020810190506020830392506136b7565b6001836020036101000a03801982511681845116808217855250505050505090500182805190602001908083835b6020831061372b5780518252602082019150602081019050602083039250613708565b6001836020036101000a0380198251168184511680821785525050505050509050019250505060405160208183030381529060405292505050613834565b8061377385614363565b6040516020018083805190602001908083835b602083106137a95780518252602082019150602081019050602083039250613786565b6001836020036101000a03801982511681845116808217855250505050505090500182805190602001908083835b602083106137fa57805182526020820191506020810190506020830392506137d7565b6001836020036101000a03801982511681845116808217855250505050505090500192505050604051602081830303815290604052925050505b919050565b6001811015801561384c5750600a548111155b6138be576040517f08c379a000000000000000000000000000000000000000000000000000000000815260040180806020018281038252600a8152602001807f496e76616c69642069640000000000000000000000000000000000000000000081525060200191505060405180910390fd5b6138c6615205565b600f60008381526020019081526020016000206040518060e00160405290816000820154815260200160018201548152602001600282018054600181600116156101000203166002900480601f0160208091040260200160405190810160405280929190818152602001828054600181600116156101000203166002900480156139915780601f1061396657610100808354040283529160200191613991565b820191906000526020600020905b81548152906001019060200180831161397457829003601f168201915b50505050508152602001600382018054600181600116156101000203166002900480601f016020809104026020016040519081016040528092919081815260200182805460018160011615610100020316600290048015613a335780601f10613a0857610100808354040283529160200191613a33565b820191906000526020600020905b815481529060010190602001808311613a1657829003601f168201915b50505050508152602001600482018054600181600116156101000203166002900480601f016020809104026020016040519081016040528092919081815260200182805460018160011615610100020316600290048015613ad55780601f10613aaa57610100808354040283529160200191613ad5565b820191906000526020600020905b815481529060010190602001808311613ab857829003601f168201915b505050505081526020016005820160009054906101000a900460ff161515151581526020016005820160019054906101000a900473ffffffffffffffffffffffffffffffffffffffff1673ffffffffffffffffffffffffffffffffffffffff1673ffffffffffffffffffffffffffffffffffffffff1681525050905060008160c001519050600060608273ffffffffffffffffffffffffffffffffffffffff163460405180600001905060006040518083038185875af1925050503d8060008114613bbc576040519150601f19603f3d011682016040523d82523d6000602084013e613bc1565b606091505b50915091508115613d0a57613bd783338761194a565b60008460a0019015159081151581525050338460c0019073ffffffffffffffffffffffffffffffffffffffff16908173ffffffffffffffffffffffffffffffffffffffff168152505083600f600087815260200190815260200160002060008201518160000155602082015181600101556040820151816002019080519060200190613c64929190615185565b506060820151816003019080519060200190613c81929190615185565b506080820151816004019080519060200190613c9e929190615185565b5060a08201518160050160006101000a81548160ff02191690831515021790555060c08201518160050160016101000a81548173ffffffffffffffffffffffffffffffffffffffff021916908373ffffffffffffffffffffffffffffffffffffffff1602179055509050505b5050505050565b6000600560008473ffffffffffffffffffffffffffffffffffffffff1673ffffffffffffffffffffffffffffffffffffffff16815260200190815260200160002060008373ffffffffffffffffffffffffffffffffffffffff1673ffffffffffffffffffffffffffffffffffffffff16815260200190815260200160002060009054906101000a900460ff16905092915050565b6000613dbb8260026144aa90919063ffffffff16565b9050919050565b600033905090565b816004600083815260200190815260200160002060006101000a81548173ffffffffffffffffffffffffffffffffffffffff021916908373ffffffffffffffffffffffffffffffffffffffff160217905550808273ffffffffffffffffffffffffffffffffffffffff16613e3d83612e42565b73ffffffffffffffffffffffffffffffffffffffff167f8c5be1e5ebec7d5bd14f71427d1e84f3dd0314c0f7b2291e5b200ac8c7c3b92560405160405180910390a45050565b6000613e91826000016144c4565b9050919050565b6000613ea382613da5565b613ef8576040517f08c379a000000000000000000000000000000000000000000000000000000000815260040180806020018281038252602c81526020018061537a602c913960400191505060405180910390fd5b6000613f0383612e42565b90508073ffffffffffffffffffffffffffffffffffffffff168473ffffffffffffffffffffffffffffffffffffffff161480613f7257508373ffffffffffffffffffffffffffffffffffffffff16613f5a84611689565b73ffffffffffffffffffffffffffffffffffffffff16145b80613f835750613f828185613d11565b5b91505092915050565b8273ffffffffffffffffffffffffffffffffffffffff16613fac82612e42565b73ffffffffffffffffffffffffffffffffffffffff1614614018576040517f08c379a00000000000000000000000000000000000000000000000000000000081526004018080602001828103825260298152602001806154ab6029913960400191505060405180910390fd5b600073ffffffffffffffffffffffffffffffffffffffff168273ffffffffffffffffffffffffffffffffffffffff16141561409e576040517f08c379a00000000000000000000000000000000000000000000000000000000081526004018080602001828103825260248152602001806153306024913960400191505060405180910390fd5b6140a98383836144d5565b6140b4600082613dca565b61410581600160008673ffffffffffffffffffffffffffffffffffffffff1673ffffffffffffffffffffffffffffffffffffffff1681526020019081526020016000206144da90919063ffffffff16565b5061415781600160008573ffffffffffffffffffffffffffffffffffffffff1673ffffffffffffffffffffffffffffffffffffffff1681526020019081526020016000206144f490919063ffffffff16565b5061416e8183600261450e9092919063ffffffff16565b50808273ffffffffffffffffffffffffffffffffffffffff168473ffffffffffffffffffffffffffffffffffffffff167fddf252ad1be2c89b69c2b068fc378daa952ba7f163c4a11628f55a4df523b3ef60405160405180910390a4505050565b60006141de8360000183614543565b60001c905092915050565b6142038282604051806020016040528060008152506145c6565b5050565b61421082613da5565b614265576040517f08c379a000000000000000000000000000000000000000000000000000000000815260040180806020018281038252602c81526020018061547f602c913960400191505060405180910390fd5b8060086000848152602001908152602001600020908051906020019061428c929190615185565b505050565b6000806000806142a48660000186614637565b915091508160001c8160001c9350935050509250929050565b60006142d0846000018460001b846146d0565b60001c90509392505050565b60006142ea826000016147c6565b9050919050565b6142fc848484613f8c565b614308848484846147d7565b61435d576040517f08c379a00000000000000000000000000000000000000000000000000000000081526004018080602001828103825260328152602001806152fe6032913960400191505060405180910390fd5b50505050565b606060008214156143ab576040518060400160405280600181526020017f300000000000000000000000000000000000000000000000000000000000000081525090506144a5565b600082905060005b600082146143d5578080600101915050600a82816143cd57fe5b0491506143b3565b60608167ffffffffffffffff811180156143ee57600080fd5b506040519080825280601f01601f1916602001820160405280156144215781602001600182028036833780820191505090505b50905060006001830390508593505b6000841461449d57600a848161444257fe5b0660300160f81b8282806001900393508151811061445c57fe5b60200101907effffffffffffffffffffffffffffffffffffffffffffffffffffffffffffff1916908160001a905350600a848161449557fe5b049350614430565b819450505050505b919050565b60006144bc836000018360001b6149f0565b905092915050565b600081600001805490509050919050565b505050565b60006144ec836000018360001b614a13565b905092915050565b6000614506836000018360001b614afb565b905092915050565b600061453a846000018460001b8473ffffffffffffffffffffffffffffffffffffffff1660001b614b6b565b90509392505050565b6000818360000180549050116145a4576040517f08c379a00000000000000000000000000000000000000000000000000000000081526004018080602001828103825260228152602001806152dc6022913960400191505060405180910390fd5b8260000182815481106145b357fe5b9060005260206000200154905092915050565b6145d08383614c47565b6145dd60008484846147d7565b614632576040517f08c379a00000000000000000000000000000000000000000000000000000000081526004018080602001828103825260328152602001806152fe6032913960400191505060405180910390fd5b505050565b60008082846000018054905011614699576040517f08c379a00000000000000000000000000000000000000000000000000000000081526004018080602001828103825260228152602001806154316022913960400191505060405180910390fd5b60008460000184815481106146aa57fe5b906000526020600020906002020190508060000154816001015492509250509250929050565b60008084600101600085815260200190815260200160002054905060008114158390614797576040517f08c379a00000000000000000000000000000000000000000000000000000000081526004018080602001828103825283818151815260200191508051906020019080838360005b8381101561475c578082015181840152602081019050614741565b50505050905090810190601f1680156147895780820380516001836020036101000a031916815260200191505b509250505060405180910390fd5b508460000160018203815481106147aa57fe5b9060005260206000209060020201600101549150509392505050565b600081600001805490509050919050565b60006147f88473ffffffffffffffffffffffffffffffffffffffff16614e3b565b61480557600190506149e8565b606061496f63150b7a0260e01b61481a613dc2565b888787604051602401808573ffffffffffffffffffffffffffffffffffffffff1681526020018473ffffffffffffffffffffffffffffffffffffffff16815260200183815260200180602001828103825283818151815260200191508051906020019080838360005b8381101561489e578082015181840152602081019050614883565b50505050905090810190601f1680156148cb5780820380516001836020036101000a031916815260200191505b5095505050505050604051602081830303815290604052907bffffffffffffffffffffffffffffffffffffffffffffffffffffffff19166020820180517bffffffffffffffffffffffffffffffffffffffffffffffffffffffff83818316178352505050506040518060600160405280603281526020016152fe603291398773ffffffffffffffffffffffffffffffffffffffff16614e4e9092919063ffffffff16565b9050600081806020019051602081101561498857600080fd5b8101908080519060200190929190505050905063150b7a0260e01b7bffffffffffffffffffffffffffffffffffffffffffffffffffffffff1916817bffffffffffffffffffffffffffffffffffffffffffffffffffffffff191614925050505b949350505050565b600080836001016000848152602001908152602001600020541415905092915050565b60008083600101600084815260200190815260200160002054905060008114614aef5760006001820390506000600186600001805490500390506000866000018281548110614a5e57fe5b9060005260206000200154905080876000018481548110614a7b57fe5b9060005260206000200181905550600183018760010160008381526020019081526020016000208190555086600001805480614ab357fe5b60019003818190600052602060002001600090559055866001016000878152602001908152602001600020600090556001945050505050614af5565b60009150505b92915050565b6000614b078383614e66565b614b60578260000182908060018154018082558091505060019003906000526020600020016000909190919091505582600001805490508360010160008481526020019081526020016000208190555060019050614b65565b600090505b92915050565b6000808460010160008581526020019081526020016000205490506000811415614c1257846000016040518060400160405280868152602001858152509080600181540180825580915050600190039060005260206000209060020201600090919091909150600082015181600001556020820151816001015550508460000180549050856001016000868152602001908152602001600020819055506001915050614c40565b82856000016001830381548110614c2557fe5b90600052602060002090600202016001018190555060009150505b9392505050565b600073ffffffffffffffffffffffffffffffffffffffff168273ffffffffffffffffffffffffffffffffffffffff161415614cea576040517f08c379a00000000000000000000000000000000000000000000000000000000081526004018080602001828103825260208152602001807f4552433732313a206d696e7420746f20746865207a65726f206164647265737381525060200191505060405180910390fd5b614cf381613da5565b15614d66576040517f08c379a000000000000000000000000000000000000000000000000000000000815260040180806020018281038252601c8152602001807f4552433732313a20746f6b656e20616c7265616479206d696e7465640000000081525060200191505060405180910390fd5b614d72600083836144d5565b614dc381600160008573ffffffffffffffffffffffffffffffffffffffff1673ffffffffffffffffffffffffffffffffffffffff1681526020019081526020016000206144f490919063ffffffff16565b50614dda8183600261450e9092919063ffffffff16565b50808273ffffffffffffffffffffffffffffffffffffffff16600073ffffffffffffffffffffffffffffffffffffffff167fddf252ad1be2c89b69c2b068fc378daa952ba7f163c4a11628f55a4df523b3ef60405160405180910390a45050565b600080823b905060008111915050919050565b6060614e5d8484600085614e89565b90509392505050565b600080836001016000848152602001908152602001600020541415905092915050565b606082471015614ee4576040517f08c379a00000000000000000000000000000000000000000000000000000000081526004018080602001828103825260268152602001806153546026913960400191505060405180910390fd5b614eed85614e3b565b614f5f576040517f08c379a000000000000000000000000000000000000000000000000000000000815260040180806020018281038252601d8152602001807f416464726573733a2063616c6c20746f206e6f6e2d636f6e747261637400000081525060200191505060405180910390fd5b600060608673ffffffffffffffffffffffffffffffffffffffff1685876040518082805190602001908083835b60208310614faf5780518252602082019150602081019050602083039250614f8c565b6001836020036101000a03801982511681845116808217855250505050505090500191505060006040518083038185875af1925050503d8060008114615011576040519150601f19603f3d011682016040523d82523d6000602084013e615016565b606091505b5091509150615026828286615032565b92505050949350505050565b60608315615042578290506150f7565b6000835111156150555782518084602001fd5b816040517f08c379a00000000000000000000000000000000000000000000000000000000081526004018080602001828103825283818151815260200191508051906020019080838360005b838110156150bc5780820151818401526020810190506150a1565b50505050905090810190601f1680156150e95780820380516001836020036101000a031916815260200191505b509250505060405180910390fd5b9392505050565b828054600181600116156101000203166002900490600052602060002090601f016020900481019282601f106151375780548555615174565b8280016001018555821561517457600052602060002091601f016020900482015b82811115615173578254825591600101919060010190615158565b5b50905061518191906152be565b5090565b828054600181600116156101000203166002900490600052602060002090601f016020900481019282601f106151c657805160ff19168380011785556151f4565b828001600101855582156151f4579182015b828111156151f35782518255916020019190600101906151d8565b5b50905061520191906152be565b5090565b6040518060e001604052806000815260200160008152602001606081526020016060815260200160608152602001600015158152602001600073ffffffffffffffffffffffffffffffffffffffff1681525090565b6040518060c00160405280600081526020016000815260200160008152602001600073ffffffffffffffffffffffffffffffffffffffff168152602001600073ffffffffffffffffffffffffffffffffffffffff1681526020016000151581525090565b5b808211156152d75760008160009055506001016152bf565b509056fe456e756d657261626c655365743a20696e646578206f7574206f6620626f756e64734552433732313a207472616e7366657220746f206e6f6e20455243373231526563656976657220696d706c656d656e7465724552433732313a207472616e7366657220746f20746865207a65726f2061646472657373416464726573733a20696e73756666696369656e742062616c616e636520666f722063616c6c4552433732313a206f70657261746f7220717565727920666f72206e6f6e6578697374656e7420746f6b656e4552433732313a20617070726f76652063616c6c6572206973206e6f74206f776e6572206e6f7220617070726f76656420666f7220616c6c4552433732313a2062616c616e636520717565727920666f7220746865207a65726f20616464726573734552433732313a206f776e657220717565727920666f72206e6f6e6578697374656e7420746f6b656e456e756d657261626c654d61703a20696e646578206f7574206f6620626f756e64734552433732313a20617070726f76656420717565727920666f72206e6f6e6578697374656e7420746f6b656e4552433732314d657461646174613a2055524920736574206f66206e6f6e6578697374656e7420746f6b656e4552433732313a207472616e73666572206f6620746f6b656e2074686174206973206e6f74206f776e4552433732314d657461646174613a2055524920717565727920666f72206e6f6e6578697374656e7420746f6b656e4552433732313a20617070726f76616c20746f2063757272656e74206f776e65724552433732313a207472616e736665722063616c6c6572206973206e6f74206f776e6572206e6f7220617070726f766564a26469706673582212206da9360904815a9b7920f5f857ca2b2f9278ca7916afe6a4a14d8f86917ec2df64736f6c63430007010033",
  "immutableReferences": {},
  "source": "// SPDX-License-Identifier: GPL-3.0\r\n\r\npragma solidity >=0.7.0 <0.9.0;\r\n\r\nimport \"./NftoBase.sol\";\r\n\r\n\r\ncontract Nfto is NftoBase {\r\n\r\n    function makeOffer(uint _id, uint _tId, uint256 _amount, string memory _type) external {\r\n        Item memory _item = items[_tId];\r\n\r\n        offerCount++;\r\n        offers[offerCount] = Offer(offerCount, _tId, _amount, msg.sender, _item.owner, false);\r\n\r\n        if(keccak256(abi.encodePacked((_type))) == keccak256(abi.encodePacked((\"english\")))) {\r\n            Item memory item = english[_id];\r\n            item.latestPrice = _amount;\r\n            english[_id] = item;\r\n        }\r\n\r\n        else if(keccak256(abi.encodePacked((_type))) == keccak256(abi.encodePacked((\"dutch\")))) {\r\n            Item memory item = dutch[_id];\r\n            item.latestPrice = _amount;\r\n            dutch[_id] = item;\r\n        }        \r\n\r\n        else if(keccak256(abi.encodePacked((_type))) == keccak256(abi.encodePacked((\"vickery\")))) {\r\n            Item memory item = vickery[_id];\r\n            uint i;\r\n            uint largestAmount = 0;\r\n            uint seclargestAmount = largestAmount;\r\n\r\n            for(i = 1; i <= offerCount; ++i) {\r\n                if(offers[i].tId == vickery[_id].id) {                    \r\n                    if(offers[i].offerAmount > largestAmount) {\r\n                        seclargestAmount = largestAmount;\r\n                        largestAmount = offers[i].offerAmount;\r\n                    }\r\n                    else if(offers[i].offerAmount > seclargestAmount) {\r\n                        seclargestAmount = offers[i].offerAmount;\r\n                    }\r\n                }\r\n            }\r\n\r\n            item.latestPrice = seclargestAmount;\r\n            vickery[_id] = item;\r\n        }\r\n    }\r\n\r\n    function approveOffer(uint _id) external {\r\n        require(_id >=1 && _id <= offerCount, \"Invalid offer\");\r\n\r\n        Offer memory offer = offers[_id];\r\n        uint tId = offer.tId;\r\n        address bidder = offer.bidder;\r\n        offer.isApproved = true;\r\n        offers[_id] = offer;\r\n        approve(bidder, tId);\r\n    }\r\n\r\n\r\n    function purchaseItem(uint _tId) public payable {\r\n        require(_tId >=1 && _tId <= tokenID, \"Invalid id\");\r\n\r\n        Item memory item = items[_tId];\r\n        address payable owner = item.owner;\r\n        (bool isSent, bytes memory data) = owner.call{value: msg.value}(\"\");\r\n\r\n        if(isSent) {\r\n            safeTransferFrom(owner, msg.sender, _tId);\r\n            item.isListed = false;\r\n            item.owner = msg.sender;\r\n            items[_tId] = item;\r\n        }\r\n    }\r\n}",
  "sourcePath": "E:/CS/Hackathons/Devfolio online/ETHOdyssey/test/src/contracts/Nfto.sol",
  "compiler": {
    "name": "solc",
    "version": "0.7.1+commit.f4a555be.Emscripten.clang"
  },
  "schemaVersion": "3.4.1",
  "updatedAt": "2021-08-03T06:05:50.847Z",
  "networkType": "ethereum",
  "devdoc": {
    "kind": "dev",
    "methods": {
      "approve(address,uint256)": {
        "details": "See {IERC721-approve}."
      },
      "balanceOf(address)": {
        "details": "See {IERC721-balanceOf}."
      },
      "baseURI()": {
        "details": "Returns the base URI set via {_setBaseURI}. This will be automatically added as a prefix in {tokenURI} to each token's URI, or to the token ID if no specific URI is set for that token ID."
      },
      "getApproved(uint256)": {
        "details": "See {IERC721-getApproved}."
      },
      "isApprovedForAll(address,address)": {
        "details": "See {IERC721-isApprovedForAll}."
      },
      "name()": {
        "details": "See {IERC721Metadata-name}."
      },
      "ownerOf(uint256)": {
        "details": "See {IERC721-ownerOf}."
      },
      "safeTransferFrom(address,address,uint256)": {
        "details": "See {IERC721-safeTransferFrom}."
      },
      "safeTransferFrom(address,address,uint256,bytes)": {
        "details": "See {IERC721-safeTransferFrom}."
      },
      "setApprovalForAll(address,bool)": {
        "details": "See {IERC721-setApprovalForAll}."
      },
      "supportsInterface(bytes4)": {
        "details": "See {IERC165-supportsInterface}. Time complexity O(1), guaranteed to always use less than 30 000 gas."
      },
      "symbol()": {
        "details": "See {IERC721Metadata-symbol}."
      },
      "tokenByIndex(uint256)": {
        "details": "See {IERC721Enumerable-tokenByIndex}."
      },
      "tokenOfOwnerByIndex(address,uint256)": {
        "details": "See {IERC721Enumerable-tokenOfOwnerByIndex}."
      },
      "tokenURI(uint256)": {
        "details": "See {IERC721Metadata-tokenURI}."
      },
      "totalSupply()": {
        "details": "See {IERC721Enumerable-totalSupply}."
      },
      "transferFrom(address,address,uint256)": {
        "details": "See {IERC721-transferFrom}."
      }
    },
    "version": 1
  },
  "userdoc": {
    "kind": "user",
    "methods": {},
    "version": 1
  }
}