{
  "contractName": "Nfto",
  "abi": [
    {
      "inputs": [],
      "stateMutability": "nonpayable",
      "type": "constructor"
    },
    {
      "anonymous": false,
      "inputs": [
        {
          "indexed": true,
          "internalType": "address",
          "name": "owner",
          "type": "address"
        },
        {
          "indexed": true,
          "internalType": "address",
          "name": "approved",
          "type": "address"
        },
        {
          "indexed": true,
          "internalType": "uint256",
          "name": "tokenId",
          "type": "uint256"
        }
      ],
      "name": "Approval",
      "type": "event"
    },
    {
      "anonymous": false,
      "inputs": [
        {
          "indexed": true,
          "internalType": "address",
          "name": "owner",
          "type": "address"
        },
        {
          "indexed": true,
          "internalType": "address",
          "name": "operator",
          "type": "address"
        },
        {
          "indexed": false,
          "internalType": "bool",
          "name": "approved",
          "type": "bool"
        }
      ],
      "name": "ApprovalForAll",
      "type": "event"
    },
    {
      "anonymous": false,
      "inputs": [
        {
          "indexed": false,
          "internalType": "uint256",
          "name": "id",
          "type": "uint256"
        },
        {
          "indexed": false,
          "internalType": "uint256",
          "name": "eCount",
          "type": "uint256"
        },
        {
          "indexed": false,
          "internalType": "uint256",
          "name": "dCount",
          "type": "uint256"
        },
        {
          "indexed": false,
          "internalType": "bool",
          "name": "isListed",
          "type": "bool"
        }
      ],
      "name": "ItemListed",
      "type": "event"
    },
    {
      "anonymous": false,
      "inputs": [
        {
          "indexed": false,
          "internalType": "uint256",
          "name": "id",
          "type": "uint256"
        },
        {
          "indexed": false,
          "internalType": "string",
          "name": "name",
          "type": "string"
        },
        {
          "indexed": false,
          "internalType": "string",
          "name": "description",
          "type": "string"
        },
        {
          "indexed": false,
          "internalType": "address payable",
          "name": "owner",
          "type": "address"
        }
      ],
      "name": "ItemMinted",
      "type": "event"
    },
    {
      "anonymous": false,
      "inputs": [
        {
          "indexed": true,
          "internalType": "address",
          "name": "from",
          "type": "address"
        },
        {
          "indexed": true,
          "internalType": "address",
          "name": "to",
          "type": "address"
        },
        {
          "indexed": true,
          "internalType": "uint256",
          "name": "tokenId",
          "type": "uint256"
        }
      ],
      "name": "Transfer",
      "type": "event"
    },
    {
      "inputs": [
        {
          "internalType": "address",
          "name": "to",
          "type": "address"
        },
        {
          "internalType": "uint256",
          "name": "tokenId",
          "type": "uint256"
        }
      ],
      "name": "approve",
      "outputs": [],
      "stateMutability": "nonpayable",
      "type": "function"
    },
    {
      "inputs": [
        {
          "internalType": "address",
          "name": "owner",
          "type": "address"
        }
      ],
      "name": "balanceOf",
      "outputs": [
        {
          "internalType": "uint256",
          "name": "",
          "type": "uint256"
        }
      ],
      "stateMutability": "view",
      "type": "function"
    },
    {
      "inputs": [],
      "name": "baseURI",
      "outputs": [
        {
          "internalType": "string",
          "name": "",
          "type": "string"
        }
      ],
      "stateMutability": "view",
      "type": "function"
    },
    {
      "inputs": [
        {
          "internalType": "uint256",
          "name": "tokenId",
          "type": "uint256"
        }
      ],
      "name": "getApproved",
      "outputs": [
        {
          "internalType": "address",
          "name": "",
          "type": "address"
        }
      ],
      "stateMutability": "view",
      "type": "function"
    },
    {
      "inputs": [
        {
          "internalType": "address",
          "name": "owner",
          "type": "address"
        },
        {
          "internalType": "address",
          "name": "operator",
          "type": "address"
        }
      ],
      "name": "isApprovedForAll",
      "outputs": [
        {
          "internalType": "bool",
          "name": "",
          "type": "bool"
        }
      ],
      "stateMutability": "view",
      "type": "function"
    },
    {
      "inputs": [],
      "name": "name",
      "outputs": [
        {
          "internalType": "string",
          "name": "",
          "type": "string"
        }
      ],
      "stateMutability": "view",
      "type": "function"
    },
    {
      "inputs": [
        {
          "internalType": "uint256",
          "name": "tokenId",
          "type": "uint256"
        }
      ],
      "name": "ownerOf",
      "outputs": [
        {
          "internalType": "address",
          "name": "",
          "type": "address"
        }
      ],
      "stateMutability": "view",
      "type": "function"
    },
    {
      "inputs": [
        {
          "internalType": "address",
          "name": "from",
          "type": "address"
        },
        {
          "internalType": "address",
          "name": "to",
          "type": "address"
        },
        {
          "internalType": "uint256",
          "name": "tokenId",
          "type": "uint256"
        }
      ],
      "name": "safeTransferFrom",
      "outputs": [],
      "stateMutability": "nonpayable",
      "type": "function"
    },
    {
      "inputs": [
        {
          "internalType": "address",
          "name": "from",
          "type": "address"
        },
        {
          "internalType": "address",
          "name": "to",
          "type": "address"
        },
        {
          "internalType": "uint256",
          "name": "tokenId",
          "type": "uint256"
        },
        {
          "internalType": "bytes",
          "name": "_data",
          "type": "bytes"
        }
      ],
      "name": "safeTransferFrom",
      "outputs": [],
      "stateMutability": "nonpayable",
      "type": "function"
    },
    {
      "inputs": [
        {
          "internalType": "address",
          "name": "operator",
          "type": "address"
        },
        {
          "internalType": "bool",
          "name": "approved",
          "type": "bool"
        }
      ],
      "name": "setApprovalForAll",
      "outputs": [],
      "stateMutability": "nonpayable",
      "type": "function"
    },
    {
      "inputs": [
        {
          "internalType": "bytes4",
          "name": "interfaceId",
          "type": "bytes4"
        }
      ],
      "name": "supportsInterface",
      "outputs": [
        {
          "internalType": "bool",
          "name": "",
          "type": "bool"
        }
      ],
      "stateMutability": "view",
      "type": "function"
    },
    {
      "inputs": [],
      "name": "symbol",
      "outputs": [
        {
          "internalType": "string",
          "name": "",
          "type": "string"
        }
      ],
      "stateMutability": "view",
      "type": "function"
    },
    {
      "inputs": [
        {
          "internalType": "uint256",
          "name": "index",
          "type": "uint256"
        }
      ],
      "name": "tokenByIndex",
      "outputs": [
        {
          "internalType": "uint256",
          "name": "",
          "type": "uint256"
        }
      ],
      "stateMutability": "view",
      "type": "function"
    },
    {
      "inputs": [
        {
          "internalType": "address",
          "name": "owner",
          "type": "address"
        },
        {
          "internalType": "uint256",
          "name": "index",
          "type": "uint256"
        }
      ],
      "name": "tokenOfOwnerByIndex",
      "outputs": [
        {
          "internalType": "uint256",
          "name": "",
          "type": "uint256"
        }
      ],
      "stateMutability": "view",
      "type": "function"
    },
    {
      "inputs": [
        {
          "internalType": "uint256",
          "name": "tokenId",
          "type": "uint256"
        }
      ],
      "name": "tokenURI",
      "outputs": [
        {
          "internalType": "string",
          "name": "",
          "type": "string"
        }
      ],
      "stateMutability": "view",
      "type": "function"
    },
    {
      "inputs": [],
      "name": "totalSupply",
      "outputs": [
        {
          "internalType": "uint256",
          "name": "",
          "type": "uint256"
        }
      ],
      "stateMutability": "view",
      "type": "function"
    },
    {
      "inputs": [
        {
          "internalType": "address",
          "name": "from",
          "type": "address"
        },
        {
          "internalType": "address",
          "name": "to",
          "type": "address"
        },
        {
          "internalType": "uint256",
          "name": "tokenId",
          "type": "uint256"
        }
      ],
      "name": "transferFrom",
      "outputs": [],
      "stateMutability": "nonpayable",
      "type": "function"
    },
    {
      "inputs": [
        {
          "internalType": "uint256",
          "name": "_price",
          "type": "uint256"
        },
        {
          "internalType": "string",
          "name": "_name",
          "type": "string"
        },
        {
          "internalType": "string",
          "name": "_description",
          "type": "string"
        },
        {
          "internalType": "string",
          "name": "_cid",
          "type": "string"
        }
      ],
      "name": "mintItem",
      "outputs": [],
      "stateMutability": "nonpayable",
      "type": "function"
    },
    {
      "inputs": [
        {
          "internalType": "uint256",
          "name": "_id",
          "type": "uint256"
        },
        {
          "internalType": "string",
          "name": "_type",
          "type": "string"
        },
        {
          "internalType": "uint256",
          "name": "_price",
          "type": "uint256"
        }
      ],
      "name": "listItem",
      "outputs": [],
      "stateMutability": "nonpayable",
      "type": "function"
    },
    {
      "inputs": [
        {
          "internalType": "uint256",
          "name": "_id",
          "type": "uint256"
        },
        {
          "internalType": "uint256",
          "name": "_tId",
          "type": "uint256"
        },
        {
          "internalType": "uint256",
          "name": "_amount",
          "type": "uint256"
        },
        {
          "internalType": "string",
          "name": "_type",
          "type": "string"
        }
      ],
      "name": "makeOffer",
      "outputs": [],
      "stateMutability": "nonpayable",
      "type": "function"
    },
    {
      "inputs": [
        {
          "internalType": "uint256",
          "name": "_id",
          "type": "uint256"
        }
      ],
      "name": "approveOffer",
      "outputs": [],
      "stateMutability": "nonpayable",
      "type": "function"
    },
    {
      "inputs": [
        {
          "internalType": "uint256",
          "name": "_tId",
          "type": "uint256"
        }
      ],
      "name": "purchaseItem",
      "outputs": [],
      "stateMutability": "payable",
      "type": "function"
    }
  ],
  "bytecode": "0x60806040523480156200001157600080fd5b506040518060400160405280600481526020017f4e66746f000000000000000000000000000000000000000000000000000000008152506040518060400160405280600481526020017f4e46544f00000000000000000000000000000000000000000000000000000000815250620000966301ffc9a760e01b6200011860201b60201c565b8160069080519060200190620000ae92919062000221565b508060079080519060200190620000c792919062000221565b50620000e06380ac58cd60e01b6200011860201b60201c565b620000f8635b5e139f60e01b6200011860201b60201c565b6200011063780e9d6360e01b6200011860201b60201c565b5050620002c7565b63ffffffff60e01b817bffffffffffffffffffffffffffffffffffffffffffffffffffffffff19161415620001b5576040517f08c379a000000000000000000000000000000000000000000000000000000000815260040180806020018281038252601c8152602001807f4552433136353a20696e76616c696420696e746572666163652069640000000081525060200191505060405180910390fd5b6001600080837bffffffffffffffffffffffffffffffffffffffffffffffffffffffff19167bffffffffffffffffffffffffffffffffffffffffffffffffffffffff1916815260200190815260200160002060006101000a81548160ff02191690831515021790555050565b828054600181600116156101000203166002900490600052602060002090601f016020900481019282601f106200026457805160ff191683800117855562000295565b8280016001018555821562000295579182015b828111156200029457825182559160200191906001019062000277565b5b509050620002a49190620002a8565b5090565b5b80821115620002c3576000816000905550600101620002a9565b5090565b615aab80620002d76000396000f3fe6080604052600436106101355760003560e01c80635265358b116100ab578063a22cb4651161006f578063a22cb46514610a85578063a5d7c10a14610ae2578063b88d4fde14610b1d578063c87b56dd14610c2f578063d38ea5bf14610ce3578063e985e9c514610d1157610135565b80635265358b146107b55780636352211e1461089b5780636c0360eb1461090057806370a082311461099057806395d89b41146109f557610135565b806318160ddd116100fd57806318160ddd146103d657806323b872dd146104015780632f745c591461047c57806342842e0e146104eb57806343024f98146105665780634f6ccce71461076657610135565b806301ffc9a71461013a578063069a3d4c146101aa57806306fdde0314610286578063081812fc14610316578063095ea7b31461037b575b600080fd5b34801561014657600080fd5b506101926004803603602081101561015d57600080fd5b8101908080357bffffffffffffffffffffffffffffffffffffffffffffffffffffffff19169060200190929190505050610d98565b60405180821515815260200191505060405180910390f35b3480156101b657600080fd5b50610284600480360360608110156101cd57600080fd5b8101908080359060200190929190803590602001906401000000008111156101f457600080fd5b82018360208201111561020657600080fd5b8035906020019184600183028401116401000000008311171561022857600080fd5b91908080601f016020809104026020016040519081016040528093929190818152602001838380828437600081840152601f19601f82011690508083019250505050505050919291929080359060200190929190505050610dff565b005b34801561029257600080fd5b5061029b611dc4565b6040518080602001828103825283818151815260200191508051906020019080838360005b838110156102db5780820151818401526020810190506102c0565b50505050905090810190601f1680156103085780820380516001836020036101000a031916815260200191505b509250505060405180910390f35b34801561032257600080fd5b5061034f6004803603602081101561033957600080fd5b8101908080359060200190929190505050611e66565b604051808273ffffffffffffffffffffffffffffffffffffffff16815260200191505060405180910390f35b34801561038757600080fd5b506103d46004803603604081101561039e57600080fd5b81019080803573ffffffffffffffffffffffffffffffffffffffff16906020019092919080359060200190929190505050611f01565b005b3480156103e257600080fd5b506103eb612045565b6040518082815260200191505060405180910390f35b34801561040d57600080fd5b5061047a6004803603606081101561042457600080fd5b81019080803573ffffffffffffffffffffffffffffffffffffffff169060200190929190803573ffffffffffffffffffffffffffffffffffffffff16906020019092919080359060200190929190505050612056565b005b34801561048857600080fd5b506104d56004803603604081101561049f57600080fd5b81019080803573ffffffffffffffffffffffffffffffffffffffff169060200190929190803590602001909291905050506120cc565b6040518082815260200191505060405180910390f35b3480156104f757600080fd5b506105646004803603606081101561050e57600080fd5b81019080803573ffffffffffffffffffffffffffffffffffffffff169060200190929190803573ffffffffffffffffffffffffffffffffffffffff16906020019092919080359060200190929190505050612127565b005b34801561057257600080fd5b506107646004803603608081101561058957600080fd5b8101908080359060200190929190803590602001906401000000008111156105b057600080fd5b8201836020820111156105c257600080fd5b803590602001918460018302840111640100000000831117156105e457600080fd5b91908080601f016020809104026020016040519081016040528093929190818152602001838380828437600081840152601f19601f8201169050808301925050505050505091929192908035906020019064010000000081111561064757600080fd5b82018360208201111561065957600080fd5b8035906020019184600183028401116401000000008311171561067b57600080fd5b91908080601f016020809104026020016040519081016040528093929190818152602001838380828437600081840152601f19601f820116905080830192505050505050509192919290803590602001906401000000008111156106de57600080fd5b8201836020820111156106f057600080fd5b8035906020019184600183028401116401000000008311171561071257600080fd5b91908080601f016020809104026020016040519081016040528093929190818152602001838380828437600081840152601f19601f820116905080830192505050505050509192919290505050612147565b005b34801561077257600080fd5b5061079f6004803603602081101561078957600080fd5b8101908080359060200190929190505050612456565b6040518082815260200191505060405180910390f35b3480156107c157600080fd5b50610899600480360360808110156107d857600080fd5b810190808035906020019092919080359060200190929190803590602001909291908035906020019064010000000081111561081357600080fd5b82018360208201111561082557600080fd5b8035906020019184600183028401116401000000008311171561084757600080fd5b91908080601f016020809104026020016040519081016040528093929190818152602001838380828437600081840152601f19601f820116905080830192505050505050509192919290505050612479565b005b3480156108a757600080fd5b506108d4600480360360208110156108be57600080fd5b81019080803590602001909291905050506132f2565b604051808273ffffffffffffffffffffffffffffffffffffffff16815260200191505060405180910390f35b34801561090c57600080fd5b50610915613329565b6040518080602001828103825283818151815260200191508051906020019080838360005b8381101561095557808201518184015260208101905061093a565b50505050905090810190601f1680156109825780820380516001836020036101000a031916815260200191505b509250505060405180910390f35b34801561099c57600080fd5b506109df600480360360208110156109b357600080fd5b81019080803573ffffffffffffffffffffffffffffffffffffffff1690602001909291905050506133cb565b6040518082815260200191505060405180910390f35b348015610a0157600080fd5b50610a0a6134a0565b6040518080602001828103825283818151815260200191508051906020019080838360005b83811015610a4a578082015181840152602081019050610a2f565b50505050905090810190601f168015610a775780820380516001836020036101000a031916815260200191505b509250505060405180910390f35b348015610a9157600080fd5b50610ae060048036036040811015610aa857600080fd5b81019080803573ffffffffffffffffffffffffffffffffffffffff169060200190929190803515159060200190929190505050613542565b005b348015610aee57600080fd5b50610b1b60048036036020811015610b0557600080fd5b81019080803590602001909291905050506136f8565b005b348015610b2957600080fd5b50610c2d60048036036080811015610b4057600080fd5b81019080803573ffffffffffffffffffffffffffffffffffffffff169060200190929190803573ffffffffffffffffffffffffffffffffffffffff1690602001909291908035906020019092919080359060200190640100000000811115610ba757600080fd5b820183602082011115610bb957600080fd5b80359060200191846001830284011164010000000083111715610bdb57600080fd5b91908080601f016020809104026020016040519081016040528093929190818152602001838380828437600081840152601f19601f82011690508083019250505050505050919291929050505061399f565b005b348015610c3b57600080fd5b50610c6860048036036020811015610c5257600080fd5b8101908080359060200190929190505050613a17565b6040518080602001828103825283818151815260200191508051906020019080838360005b83811015610ca8578082015181840152602081019050610c8d565b50505050905090810190601f168015610cd55780820380516001836020036101000a031916815260200191505b509250505060405180910390f35b610d0f60048036036020811015610cf957600080fd5b8101908080359060200190929190505050613ce8565b005b348015610d1d57600080fd5b50610d8060048036036040811015610d3457600080fd5b81019080803573ffffffffffffffffffffffffffffffffffffffff169060200190929190803573ffffffffffffffffffffffffffffffffffffffff169060200190929190505050614232565b60405180821515815260200191505060405180910390f35b6000806000837bffffffffffffffffffffffffffffffffffffffffffffffffffffffff19167bffffffffffffffffffffffffffffffffffffffffffffffffffffffff1916815260200190815260200160002060009054906101000a900460ff169050919050565b600083118015610e115750600a548311155b610e83576040517f08c379a000000000000000000000000000000000000000000000000000000000815260040180806020018281038252600a8152602001807f496e76616c69642049640000000000000000000000000000000000000000000081525060200191505060405180910390fd5b60405160200180807f656e676c69736800000000000000000000000000000000000000000000000000815250600701905060405160208183030381529060405280519060200120826040516020018082805190602001908083835b60208310610f015780518252602082019150602081019050602083039250610ede565b6001836020036101000a03801982511681845116808217855250505050505090500191505060405160208183030381529060405280519060200120141561142f57600c60008154809291906001019190505550600e600084815260200190815260200160002060106000600c548152602001908152602001600020600082015481600001556001820154816001015560028201816002019080546001816001161561010002031660029004610fb792919061561f565b5060038201816003019080546001816001161561010002031660029004610fdf92919061561f565b506004820181600401908054600181600116156101000203166002900461100792919061561f565b506005820160009054906101000a900460ff168160050160006101000a81548160ff0219169083151502179055506005820160019054906101000a900473ffffffffffffffffffffffffffffffffffffffff168160050160016101000a81548173ffffffffffffffffffffffffffffffffffffffff021916908373ffffffffffffffffffffffffffffffffffffffff1602179055509050506110a76156a6565b60106000600c5481526020019081526020016000206040518060e00160405290816000820154815260200160018201548152602001600282018054600181600116156101000203166002900480601f0160208091040260200160405190810160405280929190818152602001828054600181600116156101000203166002900480156111745780601f1061114957610100808354040283529160200191611174565b820191906000526020600020905b81548152906001019060200180831161115757829003601f168201915b50505050508152602001600382018054600181600116156101000203166002900480601f0160208091040260200160405190810160405280929190818152602001828054600181600116156101000203166002900480156112165780601f106111eb57610100808354040283529160200191611216565b820191906000526020600020905b8154815290600101906020018083116111f957829003601f168201915b50505050508152602001600482018054600181600116156101000203166002900480601f0160208091040260200160405190810160405280929190818152602001828054600181600116156101000203166002900480156112b85780601f1061128d576101008083540402835291602001916112b8565b820191906000526020600020905b81548152906001019060200180831161129b57829003601f168201915b505050505081526020016005820160009054906101000a900460ff161515151581526020016005820160019054906101000a900473ffffffffffffffffffffffffffffffffffffffff1673ffffffffffffffffffffffffffffffffffffffff1673ffffffffffffffffffffffffffffffffffffffff16815250509050818160200181815250508060106000600c548152602001908152602001600020600082015181600001556020820151816001015560408201518160020190805190602001906113849291906156fb565b5060608201518160030190805190602001906113a19291906156fb565b5060808201518160040190805190602001906113be9291906156fb565b5060a08201518160050160006101000a81548160ff02191690831515021790555060c08201518160050160016101000a81548173ffffffffffffffffffffffffffffffffffffffff021916908373ffffffffffffffffffffffffffffffffffffffff160217905550905050506119d8565b60405160200180807f6475746368000000000000000000000000000000000000000000000000000000815250600501905060405160208183030381529060405280519060200120826040516020018082805190602001908083835b602083106114ad578051825260208201915060208101905060208303925061148a565b6001836020036101000a0380198251168184511680821785525050505050509050019150506040516020818303038152906040528051906020012014156119d757600d60008154809291906001019190505550600e600084815260200190815260200160002060116000600d54815260200190815260200160002060008201548160000155600182015481600101556002820181600201908054600181600116156101000203166002900461156392919061561f565b506003820181600301908054600181600116156101000203166002900461158b92919061561f565b50600482018160040190805460018160011615610100020316600290046115b392919061561f565b506005820160009054906101000a900460ff168160050160006101000a81548160ff0219169083151502179055506005820160019054906101000a900473ffffffffffffffffffffffffffffffffffffffff168160050160016101000a81548173ffffffffffffffffffffffffffffffffffffffff021916908373ffffffffffffffffffffffffffffffffffffffff1602179055509050506116536156a6565b60116000600d5481526020019081526020016000206040518060e00160405290816000820154815260200160018201548152602001600282018054600181600116156101000203166002900480601f0160208091040260200160405190810160405280929190818152602001828054600181600116156101000203166002900480156117205780601f106116f557610100808354040283529160200191611720565b820191906000526020600020905b81548152906001019060200180831161170357829003601f168201915b50505050508152602001600382018054600181600116156101000203166002900480601f0160208091040260200160405190810160405280929190818152602001828054600181600116156101000203166002900480156117c25780601f10611797576101008083540402835291602001916117c2565b820191906000526020600020905b8154815290600101906020018083116117a557829003601f168201915b50505050508152602001600482018054600181600116156101000203166002900480601f0160208091040260200160405190810160405280929190818152602001828054600181600116156101000203166002900480156118645780601f1061183957610100808354040283529160200191611864565b820191906000526020600020905b81548152906001019060200180831161184757829003601f168201915b505050505081526020016005820160009054906101000a900460ff161515151581526020016005820160019054906101000a900473ffffffffffffffffffffffffffffffffffffffff1673ffffffffffffffffffffffffffffffffffffffff1673ffffffffffffffffffffffffffffffffffffffff16815250509050818160200181815250508060116000600d548152602001908152602001600020600082015181600001556020820151816001015560408201518160020190805190602001906119309291906156fb565b50606082015181600301908051906020019061194d9291906156fb565b50608082015181600401908051906020019061196a9291906156fb565b5060a08201518160050160006101000a81548160ff02191690831515021790555060c08201518160050160016101000a81548173ffffffffffffffffffffffffffffffffffffffff021916908373ffffffffffffffffffffffffffffffffffffffff160217905550905050505b5b6119e06156a6565b600e60008581526020019081526020016000206040518060e00160405290816000820154815260200160018201548152602001600282018054600181600116156101000203166002900480601f016020809104026020016040519081016040528092919081815260200182805460018160011615610100020316600290048015611aab5780601f10611a8057610100808354040283529160200191611aab565b820191906000526020600020905b815481529060010190602001808311611a8e57829003601f168201915b50505050508152602001600382018054600181600116156101000203166002900480601f016020809104026020016040519081016040528092919081815260200182805460018160011615610100020316600290048015611b4d5780601f10611b2257610100808354040283529160200191611b4d565b820191906000526020600020905b815481529060010190602001808311611b3057829003601f168201915b50505050508152602001600482018054600181600116156101000203166002900480601f016020809104026020016040519081016040528092919081815260200182805460018160011615610100020316600290048015611bef5780601f10611bc457610100808354040283529160200191611bef565b820191906000526020600020905b815481529060010190602001808311611bd257829003601f168201915b505050505081526020016005820160009054906101000a900460ff161515151581526020016005820160019054906101000a900473ffffffffffffffffffffffffffffffffffffffff1673ffffffffffffffffffffffffffffffffffffffff1673ffffffffffffffffffffffffffffffffffffffff1681525050905060018160a001901515908115158152505080600e600086815260200190815260200160002060008201518160000155602082015181600101556040820151816002019080519060200190611cc09291906156fb565b506060820151816003019080519060200190611cdd9291906156fb565b506080820151816004019080519060200190611cfa9291906156fb565b5060a08201518160050160006101000a81548160ff02191690831515021790555060c08201518160050160016101000a81548173ffffffffffffffffffffffffffffffffffffffff021916908373ffffffffffffffffffffffffffffffffffffffff1602179055509050507fdbb143ffe2712ccf6aa7668c5f469aa47c60030cb64b47b379d1a4cacfe8f50684600c54600d548460a0015160405180858152602001848152602001838152602001821515815260200194505050505060405180910390a150505050565b606060068054600181600116156101000203166002900480601f016020809104026020016040519081016040528092919081815260200182805460018160011615610100020316600290048015611e5c5780601f10611e3157610100808354040283529160200191611e5c565b820191906000526020600020905b815481529060010190602001808311611e3f57829003601f168201915b5050505050905090565b6000611e71826142c6565b611ec6576040517f08c379a000000000000000000000000000000000000000000000000000000000815260040180806020018281038252602c815260200180615974602c913960400191505060405180910390fd5b6004600083815260200190815260200160002060009054906101000a900473ffffffffffffffffffffffffffffffffffffffff169050919050565b6000611f0c826132f2565b90508073ffffffffffffffffffffffffffffffffffffffff168373ffffffffffffffffffffffffffffffffffffffff161415611f93576040517f08c379a0000000000000000000000000000000000000000000000000000000008152600401808060200182810382526021815260200180615a246021913960400191505060405180910390fd5b8073ffffffffffffffffffffffffffffffffffffffff16611fb26142e3565b73ffffffffffffffffffffffffffffffffffffffff161480611fe15750611fe081611fdb6142e3565b614232565b5b612036576040517f08c379a00000000000000000000000000000000000000000000000000000000081526004018080602001828103825260388152602001806158c76038913960400191505060405180910390fd5b61204083836142eb565b505050565b600061205160026143a4565b905090565b6120676120616142e3565b826143b9565b6120bc576040517f08c379a0000000000000000000000000000000000000000000000000000000008152600401808060200182810382526031815260200180615a456031913960400191505060405180910390fd5b6120c78383836144ad565b505050565b600061211f82600160008673ffffffffffffffffffffffffffffffffffffffff1673ffffffffffffffffffffffffffffffffffffffff1681526020019081526020016000206146f090919063ffffffff16565b905092915050565b6121428383836040518060200160405280600081525061399f565b505050565b600084116121bd576040517f08c379a000000000000000000000000000000000000000000000000000000000815260040180806020018281038252600d8152602001807f496e76616c69642070726963650000000000000000000000000000000000000081525060200191505060405180910390fd5b600a600081548092919060010191905055506121db33600a5461470a565b6121e7600a5482614728565b6040518060e00160405280600a5481526020018581526020018481526020018381526020018281526020016000151581526020013373ffffffffffffffffffffffffffffffffffffffff16815250600e6000600a5481526020019081526020016000206000820151816000015560208201518160010155604082015181600201908051906020019061227a9291906156fb565b5060608201518160030190805190602001906122979291906156fb565b5060808201518160040190805190602001906122b49291906156fb565b5060a08201518160050160006101000a81548160ff02191690831515021790555060c08201518160050160016101000a81548173ffffffffffffffffffffffffffffffffffffffff021916908373ffffffffffffffffffffffffffffffffffffffff1602179055509050507fe4cffcc9f9bdfb7473cca05e3a71eecac250ed1c78723d3c4c97ce3c12b1140e600a548484336040518085815260200180602001806020018473ffffffffffffffffffffffffffffffffffffffff168152602001838103835286818151815260200191508051906020019080838360005b838110156123ac578082015181840152602081019050612391565b50505050905090810190601f1680156123d95780820380516001836020036101000a031916815260200191505b50838103825285818151815260200191508051906020019080838360005b838110156124125780820151818401526020810190506123f7565b50505050905090810190601f16801561243f5780820380516001836020036101000a031916815260200191505b50965050505050505060405180910390a150505050565b60008061246d8360026147b290919063ffffffff16565b50905080915050919050565b60008311801561248b5750600a548311155b6124fd576040517f08c379a000000000000000000000000000000000000000000000000000000000815260040180806020018281038252600a8152602001807f496e76616c69642049640000000000000000000000000000000000000000000081525060200191505060405180910390fd5b6125056156a6565b600e60008581526020019081526020016000206040518060e00160405290816000820154815260200160018201548152602001600282018054600181600116156101000203166002900480601f0160208091040260200160405190810160405280929190818152602001828054600181600116156101000203166002900480156125d05780601f106125a5576101008083540402835291602001916125d0565b820191906000526020600020905b8154815290600101906020018083116125b357829003601f168201915b50505050508152602001600382018054600181600116156101000203166002900480601f0160208091040260200160405190810160405280929190818152602001828054600181600116156101000203166002900480156126725780601f1061264757610100808354040283529160200191612672565b820191906000526020600020905b81548152906001019060200180831161265557829003601f168201915b50505050508152602001600482018054600181600116156101000203166002900480601f0160208091040260200160405190810160405280929190818152602001828054600181600116156101000203166002900480156127145780601f106126e957610100808354040283529160200191612714565b820191906000526020600020905b8154815290600101906020018083116126f757829003601f168201915b505050505081526020016005820160009054906101000a900460ff161515151581526020016005820160019054906101000a900473ffffffffffffffffffffffffffffffffffffffff1673ffffffffffffffffffffffffffffffffffffffff1673ffffffffffffffffffffffffffffffffffffffff16815250509050600115158160a0015115151461280e576040517f08c379a000000000000000000000000000000000000000000000000000000000815260040180806020018281038252600f8152602001807f4974656d206e6f74206c6973746564000000000000000000000000000000000081525060200191505060405180910390fd5b60405160200180807f656e676c69736800000000000000000000000000000000000000000000000000815250600701905060405160208183030381529060405280519060200120826040516020018082805190602001908083835b6020831061288c5780518252602082019150602081019050602083039250612869565b6001836020036101000a038019825116818451168082178552505050505050905001915050604051602081830303815290604052805190602001201415612cd25780602001518311612946576040517f08c379a000000000000000000000000000000000000000000000000000000000815260040180806020018281038252600d8152602001807f496e76616c69642070726963650000000000000000000000000000000000000081525060200191505060405180910390fd5b61294e6156a6565b601060008781526020019081526020016000206040518060e00160405290816000820154815260200160018201548152602001600282018054600181600116156101000203166002900480601f016020809104026020016040519081016040528092919081815260200182805460018160011615610100020316600290048015612a195780601f106129ee57610100808354040283529160200191612a19565b820191906000526020600020905b8154815290600101906020018083116129fc57829003601f168201915b50505050508152602001600382018054600181600116156101000203166002900480601f016020809104026020016040519081016040528092919081815260200182805460018160011615610100020316600290048015612abb5780601f10612a9057610100808354040283529160200191612abb565b820191906000526020600020905b815481529060010190602001808311612a9e57829003601f168201915b50505050508152602001600482018054600181600116156101000203166002900480601f016020809104026020016040519081016040528092919081815260200182805460018160011615610100020316600290048015612b5d5780601f10612b3257610100808354040283529160200191612b5d565b820191906000526020600020905b815481529060010190602001808311612b4057829003601f168201915b505050505081526020016005820160009054906101000a900460ff161515151581526020016005820160019054906101000a900473ffffffffffffffffffffffffffffffffffffffff1673ffffffffffffffffffffffffffffffffffffffff1673ffffffffffffffffffffffffffffffffffffffff1681525050905083816020018181525050806010600088815260200190815260200160002060008201518160000155602082015181600101556040820151816002019080519060200190612c279291906156fb565b506060820151816003019080519060200190612c449291906156fb565b506080820151816004019080519060200190612c619291906156fb565b5060a08201518160050160006101000a81548160ff02191690831515021790555060c08201518160050160016101000a81548173ffffffffffffffffffffffffffffffffffffffff021916908373ffffffffffffffffffffffffffffffffffffffff16021790555090505050613193565b60405160200180807f6475746368000000000000000000000000000000000000000000000000000000815250600501905060405160208183030381529060405280519060200120826040516020018082805190602001908083835b60208310612d505780518252602082019150602081019050602083039250612d2d565b6001836020036101000a0380198251168184511680821785525050505050509050019150506040516020818303038152906040528051906020012014156131925780602001518310612e0a576040517f08c379a000000000000000000000000000000000000000000000000000000000815260040180806020018281038252600d8152602001807f496e76616c69642070726963650000000000000000000000000000000000000081525060200191505060405180910390fd5b612e126156a6565b601160008781526020019081526020016000206040518060e00160405290816000820154815260200160018201548152602001600282018054600181600116156101000203166002900480601f016020809104026020016040519081016040528092919081815260200182805460018160011615610100020316600290048015612edd5780601f10612eb257610100808354040283529160200191612edd565b820191906000526020600020905b815481529060010190602001808311612ec057829003601f168201915b50505050508152602001600382018054600181600116156101000203166002900480601f016020809104026020016040519081016040528092919081815260200182805460018160011615610100020316600290048015612f7f5780601f10612f5457610100808354040283529160200191612f7f565b820191906000526020600020905b815481529060010190602001808311612f6257829003601f168201915b50505050508152602001600482018054600181600116156101000203166002900480601f0160208091040260200160405190810160405280929190818152602001828054600181600116156101000203166002900480156130215780601f10612ff657610100808354040283529160200191613021565b820191906000526020600020905b81548152906001019060200180831161300457829003601f168201915b505050505081526020016005820160009054906101000a900460ff161515151581526020016005820160019054906101000a900473ffffffffffffffffffffffffffffffffffffffff1673ffffffffffffffffffffffffffffffffffffffff1673ffffffffffffffffffffffffffffffffffffffff16815250509050838160200181815250508060116000888152602001908152602001600020600082015181600001556020820151816001015560408201518160020190805190602001906130eb9291906156fb565b5060608201518160030190805190602001906131089291906156fb565b5060808201518160040190805190602001906131259291906156fb565b5060a08201518160050160006101000a81548160ff02191690831515021790555060c08201518160050160016101000a81548173ffffffffffffffffffffffffffffffffffffffff021916908373ffffffffffffffffffffffffffffffffffffffff160217905550905050505b5b600b600081548092919060010191905055506040518060c00160405280600b5481526020018581526020018481526020013373ffffffffffffffffffffffffffffffffffffffff1681526020018260c0015173ffffffffffffffffffffffffffffffffffffffff16815260200160001515815250600f6000600b54815260200190815260200160002060008201518160000155602082015181600101556040820151816002015560608201518160030160006101000a81548173ffffffffffffffffffffffffffffffffffffffff021916908373ffffffffffffffffffffffffffffffffffffffff16021790555060808201518160040160006101000a81548173ffffffffffffffffffffffffffffffffffffffff021916908373ffffffffffffffffffffffffffffffffffffffff16021790555060a08201518160040160146101000a81548160ff0219169083151502179055509050505050505050565b6000613322826040518060600160405280602981526020016159296029913960026147de9092919063ffffffff16565b9050919050565b606060098054600181600116156101000203166002900480601f0160208091040260200160405190810160405280929190818152602001828054600181600116156101000203166002900480156133c15780601f10613396576101008083540402835291602001916133c1565b820191906000526020600020905b8154815290600101906020018083116133a457829003601f168201915b5050505050905090565b60008073ffffffffffffffffffffffffffffffffffffffff168273ffffffffffffffffffffffffffffffffffffffff161415613452576040517f08c379a000000000000000000000000000000000000000000000000000000000815260040180806020018281038252602a8152602001806158ff602a913960400191505060405180910390fd5b613499600160008473ffffffffffffffffffffffffffffffffffffffff1673ffffffffffffffffffffffffffffffffffffffff1681526020019081526020016000206147fd565b9050919050565b606060078054600181600116156101000203166002900480601f0160208091040260200160405190810160405280929190818152602001828054600181600116156101000203166002900480156135385780601f1061350d57610100808354040283529160200191613538565b820191906000526020600020905b81548152906001019060200180831161351b57829003601f168201915b5050505050905090565b61354a6142e3565b73ffffffffffffffffffffffffffffffffffffffff168273ffffffffffffffffffffffffffffffffffffffff1614156135eb576040517f08c379a00000000000000000000000000000000000000000000000000000000081526004018080602001828103825260198152602001807f4552433732313a20617070726f766520746f2063616c6c65720000000000000081525060200191505060405180910390fd5b80600560006135f86142e3565b73ffffffffffffffffffffffffffffffffffffffff1673ffffffffffffffffffffffffffffffffffffffff16815260200190815260200160002060008473ffffffffffffffffffffffffffffffffffffffff1673ffffffffffffffffffffffffffffffffffffffff16815260200190815260200160002060006101000a81548160ff0219169083151502179055508173ffffffffffffffffffffffffffffffffffffffff166136a56142e3565b73ffffffffffffffffffffffffffffffffffffffff167f17307eab39ab6107e8899845ad3d59bd9653f200f220920489ca2b5937696c318360405180821515815260200191505060405180910390a35050565b60008111801561370a5750600b548111155b61377c576040517f08c379a000000000000000000000000000000000000000000000000000000000815260040180806020018281038252600a8152602001807f496e76616c69642049640000000000000000000000000000000000000000000081525060200191505060405180910390fd5b61378461577b565b600f60008381526020019081526020016000206040518060c00160405290816000820154815260200160018201548152602001600282015481526020016003820160009054906101000a900473ffffffffffffffffffffffffffffffffffffffff1673ffffffffffffffffffffffffffffffffffffffff1673ffffffffffffffffffffffffffffffffffffffff1681526020016004820160009054906101000a900473ffffffffffffffffffffffffffffffffffffffff1673ffffffffffffffffffffffffffffffffffffffff1673ffffffffffffffffffffffffffffffffffffffff1681526020016004820160149054906101000a900460ff161515151581525050905060008160200151905060008260600151905060018360a001901515908115158152505082600f600086815260200190815260200160002060008201518160000155602082015181600101556040820151816002015560608201518160030160006101000a81548173ffffffffffffffffffffffffffffffffffffffff021916908373ffffffffffffffffffffffffffffffffffffffff16021790555060808201518160040160006101000a81548173ffffffffffffffffffffffffffffffffffffffff021916908373ffffffffffffffffffffffffffffffffffffffff16021790555060a08201518160040160146101000a81548160ff0219169083151502179055509050506139998183611f01565b50505050565b6139b06139aa6142e3565b836143b9565b613a05576040517f08c379a0000000000000000000000000000000000000000000000000000000008152600401808060200182810382526031815260200180615a456031913960400191505060405180910390fd5b613a1184848484614812565b50505050565b6060613a22826142c6565b613a77576040517f08c379a000000000000000000000000000000000000000000000000000000000815260040180806020018281038252602f8152602001806159f5602f913960400191505060405180910390fd5b6060600860008481526020019081526020016000208054600181600116156101000203166002900480601f016020809104026020016040519081016040528092919081815260200182805460018160011615610100020316600290048015613b205780601f10613af557610100808354040283529160200191613b20565b820191906000526020600020905b815481529060010190602001808311613b0357829003601f168201915b505050505090506060613b31613329565b9050600081511415613b47578192505050613ce3565b600082511115613c185780826040516020018083805190602001908083835b60208310613b895780518252602082019150602081019050602083039250613b66565b6001836020036101000a03801982511681845116808217855250505050505090500182805190602001908083835b60208310613bda5780518252602082019150602081019050602083039250613bb7565b6001836020036101000a0380198251168184511680821785525050505050509050019250505060405160208183030381529060405292505050613ce3565b80613c2285614884565b6040516020018083805190602001908083835b60208310613c585780518252602082019150602081019050602083039250613c35565b6001836020036101000a03801982511681845116808217855250505050505090500182805190602001908083835b60208310613ca95780518252602082019150602081019050602083039250613c86565b6001836020036101000a03801982511681845116808217855250505050505090500192505050604051602081830303815290604052925050505b919050565b600081118015613cfa5750600a548111155b613d6c576040517f08c379a000000000000000000000000000000000000000000000000000000000815260040180806020018281038252600a8152602001807f496e76616c69642049640000000000000000000000000000000000000000000081525060200191505060405180910390fd5b613d746156a6565b600e60008381526020019081526020016000206040518060e00160405290816000820154815260200160018201548152602001600282018054600181600116156101000203166002900480601f016020809104026020016040519081016040528092919081815260200182805460018160011615610100020316600290048015613e3f5780601f10613e1457610100808354040283529160200191613e3f565b820191906000526020600020905b815481529060010190602001808311613e2257829003601f168201915b50505050508152602001600382018054600181600116156101000203166002900480601f016020809104026020016040519081016040528092919081815260200182805460018160011615610100020316600290048015613ee15780601f10613eb657610100808354040283529160200191613ee1565b820191906000526020600020905b815481529060010190602001808311613ec457829003601f168201915b50505050508152602001600482018054600181600116156101000203166002900480601f016020809104026020016040519081016040528092919081815260200182805460018160011615610100020316600290048015613f835780601f10613f5857610100808354040283529160200191613f83565b820191906000526020600020905b815481529060010190602001808311613f6657829003601f168201915b505050505081526020016005820160009054906101000a900460ff161515151581526020016005820160019054906101000a900473ffffffffffffffffffffffffffffffffffffffff1673ffffffffffffffffffffffffffffffffffffffff1673ffffffffffffffffffffffffffffffffffffffff1681525050905060008160c001519050600060608273ffffffffffffffffffffffffffffffffffffffff163460405180600001905060006040518083038185875af1925050503d806000811461406a576040519150601f19603f3d011682016040523d82523d6000602084013e61406f565b606091505b509150915081156141b857614085833387612127565b60008460a0019015159081151581525050338460c0019073ffffffffffffffffffffffffffffffffffffffff16908173ffffffffffffffffffffffffffffffffffffffff168152505083600e6000878152602001908152602001600020600082015181600001556020820151816001015560408201518160020190805190602001906141129291906156fb565b50606082015181600301908051906020019061412f9291906156fb565b50608082015181600401908051906020019061414c9291906156fb565b5060a08201518160050160006101000a81548160ff02191690831515021790555060c08201518160050160016101000a81548173ffffffffffffffffffffffffffffffffffffffff021916908373ffffffffffffffffffffffffffffffffffffffff1602179055509050505b8161422b576040517f08c379a00000000000000000000000000000000000000000000000000000000081526004018080602001828103825260138152602001807f455448206e6f74207472616e736665727265640000000000000000000000000081525060200191505060405180910390fd5b5050505050565b6000600560008473ffffffffffffffffffffffffffffffffffffffff1673ffffffffffffffffffffffffffffffffffffffff16815260200190815260200160002060008373ffffffffffffffffffffffffffffffffffffffff1673ffffffffffffffffffffffffffffffffffffffff16815260200190815260200160002060009054906101000a900460ff16905092915050565b60006142dc8260026149cb90919063ffffffff16565b9050919050565b600033905090565b816004600083815260200190815260200160002060006101000a81548173ffffffffffffffffffffffffffffffffffffffff021916908373ffffffffffffffffffffffffffffffffffffffff160217905550808273ffffffffffffffffffffffffffffffffffffffff1661435e836132f2565b73ffffffffffffffffffffffffffffffffffffffff167f8c5be1e5ebec7d5bd14f71427d1e84f3dd0314c0f7b2291e5b200ac8c7c3b92560405160405180910390a45050565b60006143b2826000016149e5565b9050919050565b60006143c4826142c6565b614419576040517f08c379a000000000000000000000000000000000000000000000000000000000815260040180806020018281038252602c81526020018061589b602c913960400191505060405180910390fd5b6000614424836132f2565b90508073ffffffffffffffffffffffffffffffffffffffff168473ffffffffffffffffffffffffffffffffffffffff16148061449357508373ffffffffffffffffffffffffffffffffffffffff1661447b84611e66565b73ffffffffffffffffffffffffffffffffffffffff16145b806144a457506144a38185614232565b5b91505092915050565b8273ffffffffffffffffffffffffffffffffffffffff166144cd826132f2565b73ffffffffffffffffffffffffffffffffffffffff1614614539576040517f08c379a00000000000000000000000000000000000000000000000000000000081526004018080602001828103825260298152602001806159cc6029913960400191505060405180910390fd5b600073ffffffffffffffffffffffffffffffffffffffff168273ffffffffffffffffffffffffffffffffffffffff1614156145bf576040517f08c379a00000000000000000000000000000000000000000000000000000000081526004018080602001828103825260248152602001806158516024913960400191505060405180910390fd5b6145ca8383836149f6565b6145d56000826142eb565b61462681600160008673ffffffffffffffffffffffffffffffffffffffff1673ffffffffffffffffffffffffffffffffffffffff1681526020019081526020016000206149fb90919063ffffffff16565b5061467881600160008573ffffffffffffffffffffffffffffffffffffffff1673ffffffffffffffffffffffffffffffffffffffff168152602001908152602001600020614a1590919063ffffffff16565b5061468f81836002614a2f9092919063ffffffff16565b50808273ffffffffffffffffffffffffffffffffffffffff168473ffffffffffffffffffffffffffffffffffffffff167fddf252ad1be2c89b69c2b068fc378daa952ba7f163c4a11628f55a4df523b3ef60405160405180910390a4505050565b60006146ff8360000183614a64565b60001c905092915050565b614724828260405180602001604052806000815250614ae7565b5050565b614731826142c6565b614786576040517f08c379a000000000000000000000000000000000000000000000000000000000815260040180806020018281038252602c8152602001806159a0602c913960400191505060405180910390fd5b806008600084815260200190815260200160002090805190602001906147ad9291906156fb565b505050565b6000806000806147c58660000186614b58565b915091508160001c8160001c9350935050509250929050565b60006147f1846000018460001b84614bf1565b60001c90509392505050565b600061480b82600001614ce7565b9050919050565b61481d8484846144ad565b61482984848484614cf8565b61487e576040517f08c379a000000000000000000000000000000000000000000000000000000000815260040180806020018281038252603281526020018061581f6032913960400191505060405180910390fd5b50505050565b606060008214156148cc576040518060400160405280600181526020017f300000000000000000000000000000000000000000000000000000000000000081525090506149c6565b600082905060005b600082146148f6578080600101915050600a82816148ee57fe5b0491506148d4565b60608167ffffffffffffffff8111801561490f57600080fd5b506040519080825280601f01601f1916602001820160405280156149425781602001600182028036833780820191505090505b50905060006001830390508593505b600084146149be57600a848161496357fe5b0660300160f81b8282806001900393508151811061497d57fe5b60200101907effffffffffffffffffffffffffffffffffffffffffffffffffffffffffffff1916908160001a905350600a84816149b657fe5b049350614951565b819450505050505b919050565b60006149dd836000018360001b614f11565b905092915050565b600081600001805490509050919050565b505050565b6000614a0d836000018360001b614f34565b905092915050565b6000614a27836000018360001b61501c565b905092915050565b6000614a5b846000018460001b8473ffffffffffffffffffffffffffffffffffffffff1660001b61508c565b90509392505050565b600081836000018054905011614ac5576040517f08c379a00000000000000000000000000000000000000000000000000000000081526004018080602001828103825260228152602001806157fd6022913960400191505060405180910390fd5b826000018281548110614ad457fe5b9060005260206000200154905092915050565b614af18383615168565b614afe6000848484614cf8565b614b53576040517f08c379a000000000000000000000000000000000000000000000000000000000815260040180806020018281038252603281526020018061581f6032913960400191505060405180910390fd5b505050565b60008082846000018054905011614bba576040517f08c379a00000000000000000000000000000000000000000000000000000000081526004018080602001828103825260228152602001806159526022913960400191505060405180910390fd5b6000846000018481548110614bcb57fe5b906000526020600020906002020190508060000154816001015492509250509250929050565b60008084600101600085815260200190815260200160002054905060008114158390614cb8576040517f08c379a00000000000000000000000000000000000000000000000000000000081526004018080602001828103825283818151815260200191508051906020019080838360005b83811015614c7d578082015181840152602081019050614c62565b50505050905090810190601f168015614caa5780820380516001836020036101000a031916815260200191505b509250505060405180910390fd5b50846000016001820381548110614ccb57fe5b9060005260206000209060020201600101549150509392505050565b600081600001805490509050919050565b6000614d198473ffffffffffffffffffffffffffffffffffffffff1661535c565b614d265760019050614f09565b6060614e9063150b7a0260e01b614d3b6142e3565b888787604051602401808573ffffffffffffffffffffffffffffffffffffffff1681526020018473ffffffffffffffffffffffffffffffffffffffff16815260200183815260200180602001828103825283818151815260200191508051906020019080838360005b83811015614dbf578082015181840152602081019050614da4565b50505050905090810190601f168015614dec5780820380516001836020036101000a031916815260200191505b5095505050505050604051602081830303815290604052907bffffffffffffffffffffffffffffffffffffffffffffffffffffffff19166020820180517bffffffffffffffffffffffffffffffffffffffffffffffffffffffff838183161783525050505060405180606001604052806032815260200161581f603291398773ffffffffffffffffffffffffffffffffffffffff1661536f9092919063ffffffff16565b90506000818060200190516020811015614ea957600080fd5b8101908080519060200190929190505050905063150b7a0260e01b7bffffffffffffffffffffffffffffffffffffffffffffffffffffffff1916817bffffffffffffffffffffffffffffffffffffffffffffffffffffffff191614925050505b949350505050565b600080836001016000848152602001908152602001600020541415905092915050565b600080836001016000848152602001908152602001600020549050600081146150105760006001820390506000600186600001805490500390506000866000018281548110614f7f57fe5b9060005260206000200154905080876000018481548110614f9c57fe5b9060005260206000200181905550600183018760010160008381526020019081526020016000208190555086600001805480614fd457fe5b60019003818190600052602060002001600090559055866001016000878152602001908152602001600020600090556001945050505050615016565b60009150505b92915050565b60006150288383615387565b615081578260000182908060018154018082558091505060019003906000526020600020016000909190919091505582600001805490508360010160008481526020019081526020016000208190555060019050615086565b600090505b92915050565b600080846001016000858152602001908152602001600020549050600081141561513357846000016040518060400160405280868152602001858152509080600181540180825580915050600190039060005260206000209060020201600090919091909150600082015181600001556020820151816001015550508460000180549050856001016000868152602001908152602001600020819055506001915050615161565b8285600001600183038154811061514657fe5b90600052602060002090600202016001018190555060009150505b9392505050565b600073ffffffffffffffffffffffffffffffffffffffff168273ffffffffffffffffffffffffffffffffffffffff16141561520b576040517f08c379a00000000000000000000000000000000000000000000000000000000081526004018080602001828103825260208152602001807f4552433732313a206d696e7420746f20746865207a65726f206164647265737381525060200191505060405180910390fd5b615214816142c6565b15615287576040517f08c379a000000000000000000000000000000000000000000000000000000000815260040180806020018281038252601c8152602001807f4552433732313a20746f6b656e20616c7265616479206d696e7465640000000081525060200191505060405180910390fd5b615293600083836149f6565b6152e481600160008573ffffffffffffffffffffffffffffffffffffffff1673ffffffffffffffffffffffffffffffffffffffff168152602001908152602001600020614a1590919063ffffffff16565b506152fb81836002614a2f9092919063ffffffff16565b50808273ffffffffffffffffffffffffffffffffffffffff16600073ffffffffffffffffffffffffffffffffffffffff167fddf252ad1be2c89b69c2b068fc378daa952ba7f163c4a11628f55a4df523b3ef60405160405180910390a45050565b600080823b905060008111915050919050565b606061537e84846000856153aa565b90509392505050565b600080836001016000848152602001908152602001600020541415905092915050565b606082471015615405576040517f08c379a00000000000000000000000000000000000000000000000000000000081526004018080602001828103825260268152602001806158756026913960400191505060405180910390fd5b61540e8561535c565b615480576040517f08c379a000000000000000000000000000000000000000000000000000000000815260040180806020018281038252601d8152602001807f416464726573733a2063616c6c20746f206e6f6e2d636f6e747261637400000081525060200191505060405180910390fd5b600060608673ffffffffffffffffffffffffffffffffffffffff1685876040518082805190602001908083835b602083106154d057805182526020820191506020810190506020830392506154ad565b6001836020036101000a03801982511681845116808217855250505050505090500191505060006040518083038185875af1925050503d8060008114615532576040519150601f19603f3d011682016040523d82523d6000602084013e615537565b606091505b5091509150615547828286615553565b92505050949350505050565b6060831561556357829050615618565b6000835111156155765782518084602001fd5b816040517f08c379a00000000000000000000000000000000000000000000000000000000081526004018080602001828103825283818151815260200191508051906020019080838360005b838110156155dd5780820151818401526020810190506155c2565b50505050905090810190601f16801561560a5780820380516001836020036101000a031916815260200191505b509250505060405180910390fd5b9392505050565b828054600181600116156101000203166002900490600052602060002090601f016020900481019282601f106156585780548555615695565b8280016001018555821561569557600052602060002091601f016020900482015b82811115615694578254825591600101919060010190615679565b5b5090506156a291906157df565b5090565b6040518060e001604052806000815260200160008152602001606081526020016060815260200160608152602001600015158152602001600073ffffffffffffffffffffffffffffffffffffffff1681525090565b828054600181600116156101000203166002900490600052602060002090601f016020900481019282601f1061573c57805160ff191683800117855561576a565b8280016001018555821561576a579182015b8281111561576957825182559160200191906001019061574e565b5b50905061577791906157df565b5090565b6040518060c00160405280600081526020016000815260200160008152602001600073ffffffffffffffffffffffffffffffffffffffff168152602001600073ffffffffffffffffffffffffffffffffffffffff1681526020016000151581525090565b5b808211156157f85760008160009055506001016157e0565b509056fe456e756d657261626c655365743a20696e646578206f7574206f6620626f756e64734552433732313a207472616e7366657220746f206e6f6e20455243373231526563656976657220696d706c656d656e7465724552433732313a207472616e7366657220746f20746865207a65726f2061646472657373416464726573733a20696e73756666696369656e742062616c616e636520666f722063616c6c4552433732313a206f70657261746f7220717565727920666f72206e6f6e6578697374656e7420746f6b656e4552433732313a20617070726f76652063616c6c6572206973206e6f74206f776e6572206e6f7220617070726f76656420666f7220616c6c4552433732313a2062616c616e636520717565727920666f7220746865207a65726f20616464726573734552433732313a206f776e657220717565727920666f72206e6f6e6578697374656e7420746f6b656e456e756d657261626c654d61703a20696e646578206f7574206f6620626f756e64734552433732313a20617070726f76656420717565727920666f72206e6f6e6578697374656e7420746f6b656e4552433732314d657461646174613a2055524920736574206f66206e6f6e6578697374656e7420746f6b656e4552433732313a207472616e73666572206f6620746f6b656e2074686174206973206e6f74206f776e4552433732314d657461646174613a2055524920717565727920666f72206e6f6e6578697374656e7420746f6b656e4552433732313a20617070726f76616c20746f2063757272656e74206f776e65724552433732313a207472616e736665722063616c6c6572206973206e6f74206f776e6572206e6f7220617070726f766564a2646970667358221220795d2681062fb53766ecfc1d444df62cab346863b70c8e9888930e711729434b64736f6c63430007010033",
  "immutableReferences": {},
  "source": "// SPDX-License-Identifier: GPL-3.0\r\n\r\npragma solidity >=0.7.0 <0.9.0;\r\n\r\nimport \"@openzeppelin/contracts/token/ERC721/ERC721.sol\";\r\n\r\ncontract Nfto is ERC721{\r\n    \r\n    constructor() public ERC721(\"Nfto\", \"NFTO\") {}\r\n    \r\n    uint tokenID;\r\n    uint offerCount;\r\n    uint eCount;\r\n    uint dCount;\r\n    \r\n    mapping(uint => Item) items;\r\n    mapping(uint => Offer) offers;\r\n    mapping(uint => Item) english;\r\n    mapping(uint => Item) dutch;\r\n\r\n    struct Item {\r\n        uint id;\r\n        uint256 latestPrice;\r\n        string name;\r\n        string description;\r\n        string cid;\r\n        bool isListed;\r\n        address payable owner;\r\n    }\r\n\r\n    struct Offer {\r\n        uint id;\r\n        uint tId;\r\n        uint256 offerAmount;\r\n        address bidder;\r\n        address auctioneer;\r\n        bool isApproved;\r\n    }\r\n\r\n    event ItemMinted(\r\n        uint id,\r\n        string name,\r\n        string description,\r\n        address payable owner\r\n    );\r\n\r\n    event ItemListed(\r\n        uint id,\r\n        uint eCount,\r\n        uint dCount,\r\n        bool isListed\r\n    );\r\n\r\n    \r\n    function mintItem(uint256 _price, string memory _name, string memory _description, string memory _cid) public {\r\n        require(_price > 0, \"Invalid price\");\r\n        tokenID++;\r\n        _safeMint(msg.sender, tokenID);\r\n        _setTokenURI(tokenID, _cid);\r\n        items[tokenID] = Item(tokenID, _price, _name, _description, _cid, false, msg.sender);\r\n        emit ItemMinted(tokenID, _name, _description, msg.sender);\r\n    }\r\n\r\n\r\n    function listItem(uint _id, string memory _type, uint256 _price) public {\r\n        require(_id > 0 && _id <= tokenID, \"Invalid Id\");\r\n\r\n        if(keccak256(abi.encodePacked((_type))) == keccak256(abi.encodePacked((\"english\")))) {\r\n            eCount++;\r\n            english[eCount] = items[_id];\r\n            Item memory item = english[eCount];\r\n            item.latestPrice = _price;\r\n            english[eCount] = item;\r\n        }\r\n\r\n        else if(keccak256(abi.encodePacked((_type))) == keccak256(abi.encodePacked((\"dutch\")))) {\r\n            dCount++;\r\n            dutch[dCount] = items[_id];\r\n            Item memory item = dutch[dCount];\r\n            item.latestPrice = _price;\r\n            dutch[dCount] = item;\r\n        }\r\n\r\n        Item memory item = items[_id];\r\n        item.isListed = true;\r\n        items[_id] = item;\r\n        emit ItemListed(_id, eCount, dCount, item.isListed);\r\n    }\r\n\r\n\r\n    function makeOffer(uint _id, uint _tId, uint256 _amount, string memory _type) public {\r\n        require(_tId > 0 && _tId <= tokenID, \"Invalid Id\");\r\n        Item memory item = items[_tId];\r\n        require(item.isListed == true, \"Item not listed\");\r\n\r\n        if(keccak256(abi.encodePacked((_type))) == keccak256(abi.encodePacked((\"english\")))) {\r\n            require(_amount > item.latestPrice, \"Invalid price\");\r\n            Item memory item = english[_id];\r\n            item.latestPrice = _amount;\r\n            english[_id] = item;\r\n        }\r\n\r\n        else if(keccak256(abi.encodePacked((_type))) == keccak256(abi.encodePacked((\"dutch\")))) {\r\n            require(_amount < item.latestPrice, \"Invalid price\");\r\n            Item memory item = dutch[_id];\r\n            item.latestPrice = _amount;\r\n            dutch[_id] = item;\r\n        }\r\n\r\n        offerCount++;\r\n        offers[offerCount] = Offer(offerCount, _tId, _amount, msg.sender, item.owner, false);\r\n    }\r\n\r\n\r\n    function approveOffer(uint _id) public {\r\n        require(_id > 0 && _id <= offerCount, \"Invalid Id\");\r\n\r\n        Offer memory offer = offers[_id];\r\n        uint tId = offer.tId;\r\n        address bidder = offer.bidder;\r\n        offer.isApproved = true;\r\n        offers[_id] = offer;\r\n        approve(bidder, tId);\r\n    }\r\n\r\n\r\n    function purchaseItem(uint _tId) public payable {\r\n        require(_tId > 0 && _tId <= tokenID, \"Invalid Id\");\r\n\r\n        Item memory item = items[_tId];\r\n        address payable owner = item.owner;\r\n        (bool isSent, bytes memory data) = owner.call{value: msg.value}(\"\");\r\n\r\n        if(isSent) {\r\n            safeTransferFrom(owner, msg.sender, _tId);\r\n            item.isListed = false;\r\n            item.owner = msg.sender;\r\n            items[_tId] = item;\r\n        }\r\n\r\n        require(isSent, \"ETH not transferred\");\r\n    }\r\n}\r\n\r\n",
  "sourcePath": "E:/CS/Hackathons/Devfolio online/ETHOdyssey/test/src/contracts/Nfto.sol",
  "compiler": {
    "name": "solc",
    "version": "0.7.1+commit.f4a555be.Emscripten.clang"
  },
  "schemaVersion": "3.4.1",
  "updatedAt": "2021-07-16T13:45:46.347Z",
  "devdoc": {
    "kind": "dev",
    "methods": {
      "approve(address,uint256)": {
        "details": "See {IERC721-approve}."
      },
      "balanceOf(address)": {
        "details": "See {IERC721-balanceOf}."
      },
      "baseURI()": {
        "details": "Returns the base URI set via {_setBaseURI}. This will be automatically added as a prefix in {tokenURI} to each token's URI, or to the token ID if no specific URI is set for that token ID."
      },
      "getApproved(uint256)": {
        "details": "See {IERC721-getApproved}."
      },
      "isApprovedForAll(address,address)": {
        "details": "See {IERC721-isApprovedForAll}."
      },
      "name()": {
        "details": "See {IERC721Metadata-name}."
      },
      "ownerOf(uint256)": {
        "details": "See {IERC721-ownerOf}."
      },
      "safeTransferFrom(address,address,uint256)": {
        "details": "See {IERC721-safeTransferFrom}."
      },
      "safeTransferFrom(address,address,uint256,bytes)": {
        "details": "See {IERC721-safeTransferFrom}."
      },
      "setApprovalForAll(address,bool)": {
        "details": "See {IERC721-setApprovalForAll}."
      },
      "supportsInterface(bytes4)": {
        "details": "See {IERC165-supportsInterface}. Time complexity O(1), guaranteed to always use less than 30 000 gas."
      },
      "symbol()": {
        "details": "See {IERC721Metadata-symbol}."
      },
      "tokenByIndex(uint256)": {
        "details": "See {IERC721Enumerable-tokenByIndex}."
      },
      "tokenOfOwnerByIndex(address,uint256)": {
        "details": "See {IERC721Enumerable-tokenOfOwnerByIndex}."
      },
      "tokenURI(uint256)": {
        "details": "See {IERC721Metadata-tokenURI}."
      },
      "totalSupply()": {
        "details": "See {IERC721Enumerable-totalSupply}."
      },
      "transferFrom(address,address,uint256)": {
        "details": "See {IERC721-transferFrom}."
      }
    },
    "version": 1
  },
  "userdoc": {
    "kind": "user",
    "methods": {},
    "version": 1
  }
}