{
  "contractName": "Nfto",
  "abi": [
    {
      "inputs": [],
      "stateMutability": "nonpayable",
      "type": "constructor"
    },
    {
      "anonymous": false,
      "inputs": [
        {
          "indexed": true,
          "internalType": "address",
          "name": "owner",
          "type": "address"
        },
        {
          "indexed": true,
          "internalType": "address",
          "name": "approved",
          "type": "address"
        },
        {
          "indexed": true,
          "internalType": "uint256",
          "name": "tokenId",
          "type": "uint256"
        }
      ],
      "name": "Approval",
      "type": "event"
    },
    {
      "anonymous": false,
      "inputs": [
        {
          "indexed": true,
          "internalType": "address",
          "name": "owner",
          "type": "address"
        },
        {
          "indexed": true,
          "internalType": "address",
          "name": "operator",
          "type": "address"
        },
        {
          "indexed": false,
          "internalType": "bool",
          "name": "approved",
          "type": "bool"
        }
      ],
      "name": "ApprovalForAll",
      "type": "event"
    },
    {
      "anonymous": false,
      "inputs": [
        {
          "indexed": true,
          "internalType": "address",
          "name": "from",
          "type": "address"
        },
        {
          "indexed": true,
          "internalType": "address",
          "name": "to",
          "type": "address"
        },
        {
          "indexed": true,
          "internalType": "uint256",
          "name": "tokenId",
          "type": "uint256"
        }
      ],
      "name": "Transfer",
      "type": "event"
    },
    {
      "inputs": [
        {
          "internalType": "address",
          "name": "to",
          "type": "address"
        },
        {
          "internalType": "uint256",
          "name": "tokenId",
          "type": "uint256"
        }
      ],
      "name": "approve",
      "outputs": [],
      "stateMutability": "nonpayable",
      "type": "function"
    },
    {
      "inputs": [
        {
          "internalType": "address",
          "name": "owner",
          "type": "address"
        }
      ],
      "name": "balanceOf",
      "outputs": [
        {
          "internalType": "uint256",
          "name": "",
          "type": "uint256"
        }
      ],
      "stateMutability": "view",
      "type": "function",
      "constant": true
    },
    {
      "inputs": [],
      "name": "baseURI",
      "outputs": [
        {
          "internalType": "string",
          "name": "",
          "type": "string"
        }
      ],
      "stateMutability": "view",
      "type": "function",
      "constant": true
    },
    {
      "inputs": [],
      "name": "dCount",
      "outputs": [
        {
          "internalType": "uint256",
          "name": "",
          "type": "uint256"
        }
      ],
      "stateMutability": "view",
      "type": "function",
      "constant": true
    },
    {
      "inputs": [
        {
          "internalType": "uint256",
          "name": "",
          "type": "uint256"
        }
      ],
      "name": "dutch",
      "outputs": [
        {
          "internalType": "uint256",
          "name": "id",
          "type": "uint256"
        },
        {
          "internalType": "uint256",
          "name": "latestPrice",
          "type": "uint256"
        },
        {
          "internalType": "string",
          "name": "name",
          "type": "string"
        },
        {
          "internalType": "string",
          "name": "description",
          "type": "string"
        },
        {
          "internalType": "string",
          "name": "cid",
          "type": "string"
        },
        {
          "internalType": "bool",
          "name": "isListed",
          "type": "bool"
        },
        {
          "internalType": "address payable",
          "name": "owner",
          "type": "address"
        }
      ],
      "stateMutability": "view",
      "type": "function",
      "constant": true
    },
    {
      "inputs": [],
      "name": "eCount",
      "outputs": [
        {
          "internalType": "uint256",
          "name": "",
          "type": "uint256"
        }
      ],
      "stateMutability": "view",
      "type": "function",
      "constant": true
    },
    {
      "inputs": [
        {
          "internalType": "uint256",
          "name": "",
          "type": "uint256"
        }
      ],
      "name": "english",
      "outputs": [
        {
          "internalType": "uint256",
          "name": "id",
          "type": "uint256"
        },
        {
          "internalType": "uint256",
          "name": "latestPrice",
          "type": "uint256"
        },
        {
          "internalType": "string",
          "name": "name",
          "type": "string"
        },
        {
          "internalType": "string",
          "name": "description",
          "type": "string"
        },
        {
          "internalType": "string",
          "name": "cid",
          "type": "string"
        },
        {
          "internalType": "bool",
          "name": "isListed",
          "type": "bool"
        },
        {
          "internalType": "address payable",
          "name": "owner",
          "type": "address"
        }
      ],
      "stateMutability": "view",
      "type": "function",
      "constant": true
    },
    {
      "inputs": [
        {
          "internalType": "uint256",
          "name": "tokenId",
          "type": "uint256"
        }
      ],
      "name": "getApproved",
      "outputs": [
        {
          "internalType": "address",
          "name": "",
          "type": "address"
        }
      ],
      "stateMutability": "view",
      "type": "function",
      "constant": true
    },
    {
      "inputs": [
        {
          "internalType": "address",
          "name": "owner",
          "type": "address"
        },
        {
          "internalType": "address",
          "name": "operator",
          "type": "address"
        }
      ],
      "name": "isApprovedForAll",
      "outputs": [
        {
          "internalType": "bool",
          "name": "",
          "type": "bool"
        }
      ],
      "stateMutability": "view",
      "type": "function",
      "constant": true
    },
    {
      "inputs": [
        {
          "internalType": "uint256",
          "name": "",
          "type": "uint256"
        }
      ],
      "name": "items",
      "outputs": [
        {
          "internalType": "uint256",
          "name": "id",
          "type": "uint256"
        },
        {
          "internalType": "uint256",
          "name": "latestPrice",
          "type": "uint256"
        },
        {
          "internalType": "string",
          "name": "name",
          "type": "string"
        },
        {
          "internalType": "string",
          "name": "description",
          "type": "string"
        },
        {
          "internalType": "string",
          "name": "cid",
          "type": "string"
        },
        {
          "internalType": "bool",
          "name": "isListed",
          "type": "bool"
        },
        {
          "internalType": "address payable",
          "name": "owner",
          "type": "address"
        }
      ],
      "stateMutability": "view",
      "type": "function",
      "constant": true
    },
    {
      "inputs": [],
      "name": "name",
      "outputs": [
        {
          "internalType": "string",
          "name": "",
          "type": "string"
        }
      ],
      "stateMutability": "view",
      "type": "function",
      "constant": true
    },
    {
      "inputs": [],
      "name": "offerCount",
      "outputs": [
        {
          "internalType": "uint256",
          "name": "",
          "type": "uint256"
        }
      ],
      "stateMutability": "view",
      "type": "function",
      "constant": true
    },
    {
      "inputs": [
        {
          "internalType": "uint256",
          "name": "",
          "type": "uint256"
        }
      ],
      "name": "offers",
      "outputs": [
        {
          "internalType": "uint256",
          "name": "id",
          "type": "uint256"
        },
        {
          "internalType": "uint256",
          "name": "tId",
          "type": "uint256"
        },
        {
          "internalType": "uint256",
          "name": "offerAmount",
          "type": "uint256"
        },
        {
          "internalType": "address",
          "name": "bidder",
          "type": "address"
        },
        {
          "internalType": "address",
          "name": "auctioneer",
          "type": "address"
        },
        {
          "internalType": "bool",
          "name": "isApproved",
          "type": "bool"
        }
      ],
      "stateMutability": "view",
      "type": "function",
      "constant": true
    },
    {
      "inputs": [
        {
          "internalType": "uint256",
          "name": "tokenId",
          "type": "uint256"
        }
      ],
      "name": "ownerOf",
      "outputs": [
        {
          "internalType": "address",
          "name": "",
          "type": "address"
        }
      ],
      "stateMutability": "view",
      "type": "function",
      "constant": true
    },
    {
      "inputs": [
        {
          "internalType": "address",
          "name": "from",
          "type": "address"
        },
        {
          "internalType": "address",
          "name": "to",
          "type": "address"
        },
        {
          "internalType": "uint256",
          "name": "tokenId",
          "type": "uint256"
        }
      ],
      "name": "safeTransferFrom",
      "outputs": [],
      "stateMutability": "nonpayable",
      "type": "function"
    },
    {
      "inputs": [
        {
          "internalType": "address",
          "name": "from",
          "type": "address"
        },
        {
          "internalType": "address",
          "name": "to",
          "type": "address"
        },
        {
          "internalType": "uint256",
          "name": "tokenId",
          "type": "uint256"
        },
        {
          "internalType": "bytes",
          "name": "_data",
          "type": "bytes"
        }
      ],
      "name": "safeTransferFrom",
      "outputs": [],
      "stateMutability": "nonpayable",
      "type": "function"
    },
    {
      "inputs": [
        {
          "internalType": "address",
          "name": "operator",
          "type": "address"
        },
        {
          "internalType": "bool",
          "name": "approved",
          "type": "bool"
        }
      ],
      "name": "setApprovalForAll",
      "outputs": [],
      "stateMutability": "nonpayable",
      "type": "function"
    },
    {
      "inputs": [
        {
          "internalType": "bytes4",
          "name": "interfaceId",
          "type": "bytes4"
        }
      ],
      "name": "supportsInterface",
      "outputs": [
        {
          "internalType": "bool",
          "name": "",
          "type": "bool"
        }
      ],
      "stateMutability": "view",
      "type": "function",
      "constant": true
    },
    {
      "inputs": [],
      "name": "symbol",
      "outputs": [
        {
          "internalType": "string",
          "name": "",
          "type": "string"
        }
      ],
      "stateMutability": "view",
      "type": "function",
      "constant": true
    },
    {
      "inputs": [
        {
          "internalType": "uint256",
          "name": "index",
          "type": "uint256"
        }
      ],
      "name": "tokenByIndex",
      "outputs": [
        {
          "internalType": "uint256",
          "name": "",
          "type": "uint256"
        }
      ],
      "stateMutability": "view",
      "type": "function",
      "constant": true
    },
    {
      "inputs": [],
      "name": "tokenId",
      "outputs": [
        {
          "internalType": "uint256",
          "name": "",
          "type": "uint256"
        }
      ],
      "stateMutability": "view",
      "type": "function",
      "constant": true
    },
    {
      "inputs": [
        {
          "internalType": "address",
          "name": "owner",
          "type": "address"
        },
        {
          "internalType": "uint256",
          "name": "index",
          "type": "uint256"
        }
      ],
      "name": "tokenOfOwnerByIndex",
      "outputs": [
        {
          "internalType": "uint256",
          "name": "",
          "type": "uint256"
        }
      ],
      "stateMutability": "view",
      "type": "function",
      "constant": true
    },
    {
      "inputs": [
        {
          "internalType": "uint256",
          "name": "tokenId",
          "type": "uint256"
        }
      ],
      "name": "tokenURI",
      "outputs": [
        {
          "internalType": "string",
          "name": "",
          "type": "string"
        }
      ],
      "stateMutability": "view",
      "type": "function",
      "constant": true
    },
    {
      "inputs": [],
      "name": "totalSupply",
      "outputs": [
        {
          "internalType": "uint256",
          "name": "",
          "type": "uint256"
        }
      ],
      "stateMutability": "view",
      "type": "function",
      "constant": true
    },
    {
      "inputs": [
        {
          "internalType": "address",
          "name": "from",
          "type": "address"
        },
        {
          "internalType": "address",
          "name": "to",
          "type": "address"
        },
        {
          "internalType": "uint256",
          "name": "tokenId",
          "type": "uint256"
        }
      ],
      "name": "transferFrom",
      "outputs": [],
      "stateMutability": "nonpayable",
      "type": "function"
    },
    {
      "inputs": [],
      "name": "vCount",
      "outputs": [
        {
          "internalType": "uint256",
          "name": "",
          "type": "uint256"
        }
      ],
      "stateMutability": "view",
      "type": "function",
      "constant": true
    },
    {
      "inputs": [
        {
          "internalType": "uint256",
          "name": "",
          "type": "uint256"
        }
      ],
      "name": "vickery",
      "outputs": [
        {
          "internalType": "uint256",
          "name": "id",
          "type": "uint256"
        },
        {
          "internalType": "uint256",
          "name": "latestPrice",
          "type": "uint256"
        },
        {
          "internalType": "string",
          "name": "name",
          "type": "string"
        },
        {
          "internalType": "string",
          "name": "description",
          "type": "string"
        },
        {
          "internalType": "string",
          "name": "cid",
          "type": "string"
        },
        {
          "internalType": "bool",
          "name": "isListed",
          "type": "bool"
        },
        {
          "internalType": "address payable",
          "name": "owner",
          "type": "address"
        }
      ],
      "stateMutability": "view",
      "type": "function",
      "constant": true
    },
    {
      "inputs": [
        {
          "internalType": "uint256",
          "name": "_price",
          "type": "uint256"
        },
        {
          "internalType": "string",
          "name": "_name",
          "type": "string"
        },
        {
          "internalType": "string",
          "name": "_description",
          "type": "string"
        },
        {
          "internalType": "string",
          "name": "_cid",
          "type": "string"
        }
      ],
      "name": "mintItem",
      "outputs": [],
      "stateMutability": "nonpayable",
      "type": "function"
    },
    {
      "inputs": [
        {
          "internalType": "uint256",
          "name": "_id",
          "type": "uint256"
        },
        {
          "internalType": "string",
          "name": "_type",
          "type": "string"
        },
        {
          "internalType": "uint256",
          "name": "_price",
          "type": "uint256"
        }
      ],
      "name": "listItem",
      "outputs": [],
      "stateMutability": "nonpayable",
      "type": "function"
    },
    {
      "inputs": [
        {
          "internalType": "uint256",
          "name": "_id",
          "type": "uint256"
        },
        {
          "internalType": "uint256",
          "name": "_amount",
          "type": "uint256"
        },
        {
          "internalType": "string",
          "name": "_type",
          "type": "string"
        }
      ],
      "name": "makeOffer",
      "outputs": [],
      "stateMutability": "nonpayable",
      "type": "function"
    },
    {
      "inputs": [
        {
          "internalType": "uint256",
          "name": "_id",
          "type": "uint256"
        }
      ],
      "name": "approveOffer",
      "outputs": [],
      "stateMutability": "nonpayable",
      "type": "function"
    },
    {
      "inputs": [
        {
          "internalType": "uint256",
          "name": "_tId",
          "type": "uint256"
        }
      ],
      "name": "purchaseItem",
      "outputs": [],
      "stateMutability": "payable",
      "type": "function",
      "payable": true
    }
  ],
  "bytecode": "0x60806040523480156200001157600080fd5b506040518060400160405280600481526020017f4e66746f000000000000000000000000000000000000000000000000000000008152506040518060400160405280600481526020017f4e46544f00000000000000000000000000000000000000000000000000000000815250620000966301ffc9a760e01b6200011860201b60201c565b8160069080519060200190620000ae92919062000221565b508060079080519060200190620000c792919062000221565b50620000e06380ac58cd60e01b6200011860201b60201c565b620000f8635b5e139f60e01b6200011860201b60201c565b6200011063780e9d6360e01b6200011860201b60201c565b5050620002c7565b63ffffffff60e01b817bffffffffffffffffffffffffffffffffffffffffffffffffffffffff19161415620001b5576040517f08c379a000000000000000000000000000000000000000000000000000000000815260040180806020018281038252601c8152602001807f4552433136353a20696e76616c696420696e746572666163652069640000000081525060200191505060405180910390fd5b6001600080837bffffffffffffffffffffffffffffffffffffffffffffffffffffffff19167bffffffffffffffffffffffffffffffffffffffffffffffffffffffff1916815260200190815260200160002060006101000a81548160ff02191690831515021790555050565b828054600181600116156101000203166002900490600052602060002090601f016020900481019282601f106200026457805160ff191683800117855562000295565b8280016001018555821562000295579182015b828111156200029457825182559160200191906001019062000277565b5b509050620002a49190620002a8565b5090565b5b80821115620002c3576000816000905550600101620002a9565b5090565b615c9880620002d76000396000f3fe6080604052600436106101e35760003560e01c80636352211e11610102578063a6ee1c6c11610095578063c87b56dd11610064578063c87b56dd1461138a578063cebba61b1461143e578063d38ea5bf146115fe578063e985e9c51461162c576101e3565b8063a6ee1c6c14610e1c578063ab7e127814610fdc578063b88d4fde146110b8578063bfb231d2146111ca576101e3565b80638cedb34c116100d15780638cedb34c14610cc957806395d89b4114610cf4578063a22cb46514610d84578063a5d7c10a14610de1576101e3565b80636352211e14610acf5780636c0360eb14610b3457806370a0823114610bc45780638a72ea6a14610c29576101e3565b806318160ddd1161017a578063412b21e311610149578063412b21e3146107da57806342842e0e1461080557806343024f98146108805780634f6ccce714610a80576101e3565b806318160ddd1461069a57806323b872dd146106c55780632f745c59146107405780633cdd75cd146107af576101e3565b8063081812fc116101b6578063081812fc14610584578063095ea7b3146105e95780631115c24d1461064457806317d70f7c1461066f576101e3565b806301ffc9a7146101e8578063061511e014610258578063069a3d4c1461041857806306fdde03146104f4575b600080fd5b3480156101f457600080fd5b506102406004803603602081101561020b57600080fd5b8101908080357bffffffffffffffffffffffffffffffffffffffffffffffffffffffff191690602001909291905050506116b3565b60405180821515815260200191505060405180910390f35b34801561026457600080fd5b506102916004803603602081101561027b57600080fd5b810190808035906020019092919050505061171a565b6040518088815260200187815260200180602001806020018060200186151581526020018573ffffffffffffffffffffffffffffffffffffffff168152602001848103845289818151815260200191508051906020019080838360005b838110156103095780820151818401526020810190506102ee565b50505050905090810190601f1680156103365780820380516001836020036101000a031916815260200191505b50848103835288818151815260200191508051906020019080838360005b8381101561036f578082015181840152602081019050610354565b50505050905090810190601f16801561039c5780820380516001836020036101000a031916815260200191505b50848103825287818151815260200191508051906020019080838360005b838110156103d55780820151818401526020810190506103ba565b50505050905090810190601f1680156104025780820380516001836020036101000a031916815260200191505b509a505050505050505050505060405180910390f35b34801561042457600080fd5b506104f26004803603606081101561043b57600080fd5b81019080803590602001909291908035906020019064010000000081111561046257600080fd5b82018360208201111561047457600080fd5b8035906020019184600183028401116401000000008311171561049657600080fd5b91908080601f016020809104026020016040519081016040528093929190818152602001838380828437600081840152601f19601f82011690508083019250505050505050919291929080359060200190929190505050611951565b005b34801561050057600080fd5b5061050961203d565b6040518080602001828103825283818151815260200191508051906020019080838360005b8381101561054957808201518184015260208101905061052e565b50505050905090810190601f1680156105765780820380516001836020036101000a031916815260200191505b509250505060405180910390f35b34801561059057600080fd5b506105bd600480360360208110156105a757600080fd5b81019080803590602001909291905050506120df565b604051808273ffffffffffffffffffffffffffffffffffffffff16815260200191505060405180910390f35b3480156105f557600080fd5b506106426004803603604081101561060c57600080fd5b81019080803573ffffffffffffffffffffffffffffffffffffffff1690602001909291908035906020019092919050505061217a565b005b34801561065057600080fd5b506106596122be565b6040518082815260200191505060405180910390f35b34801561067b57600080fd5b506106846122c4565b6040518082815260200191505060405180910390f35b3480156106a657600080fd5b506106af6122ca565b6040518082815260200191505060405180910390f35b3480156106d157600080fd5b5061073e600480360360608110156106e857600080fd5b81019080803573ffffffffffffffffffffffffffffffffffffffff169060200190929190803573ffffffffffffffffffffffffffffffffffffffff169060200190929190803590602001909291905050506122db565b005b34801561074c57600080fd5b506107996004803603604081101561076357600080fd5b81019080803573ffffffffffffffffffffffffffffffffffffffff16906020019092919080359060200190929190505050612351565b6040518082815260200191505060405180910390f35b3480156107bb57600080fd5b506107c46123ac565b6040518082815260200191505060405180910390f35b3480156107e657600080fd5b506107ef6123b2565b6040518082815260200191505060405180910390f35b34801561081157600080fd5b5061087e6004803603606081101561082857600080fd5b81019080803573ffffffffffffffffffffffffffffffffffffffff169060200190929190803573ffffffffffffffffffffffffffffffffffffffff169060200190929190803590602001909291905050506123b8565b005b34801561088c57600080fd5b50610a7e600480360360808110156108a357600080fd5b8101908080359060200190929190803590602001906401000000008111156108ca57600080fd5b8201836020820111156108dc57600080fd5b803590602001918460018302840111640100000000831117156108fe57600080fd5b91908080601f016020809104026020016040519081016040528093929190818152602001838380828437600081840152601f19601f8201169050808301925050505050505091929192908035906020019064010000000081111561096157600080fd5b82018360208201111561097357600080fd5b8035906020019184600183028401116401000000008311171561099557600080fd5b91908080601f016020809104026020016040519081016040528093929190818152602001838380828437600081840152601f19601f820116905080830192505050505050509192919290803590602001906401000000008111156109f857600080fd5b820183602082011115610a0a57600080fd5b80359060200191846001830284011164010000000083111715610a2c57600080fd5b91908080601f016020809104026020016040519081016040528093929190818152602001838380828437600081840152601f19601f8201169050808301925050505050505091929192905050506123d8565b005b348015610a8c57600080fd5b50610ab960048036036020811015610aa357600080fd5b81019080803590602001909291905050506125b6565b6040518082815260200191505060405180910390f35b348015610adb57600080fd5b50610b0860048036036020811015610af257600080fd5b81019080803590602001909291905050506125d9565b604051808273ffffffffffffffffffffffffffffffffffffffff16815260200191505060405180910390f35b348015610b4057600080fd5b50610b49612610565b6040518080602001828103825283818151815260200191508051906020019080838360005b83811015610b89578082015181840152602081019050610b6e565b50505050905090810190601f168015610bb65780820380516001836020036101000a031916815260200191505b509250505060405180910390f35b348015610bd057600080fd5b50610c1360048036036020811015610be757600080fd5b81019080803573ffffffffffffffffffffffffffffffffffffffff1690602001909291905050506126b2565b6040518082815260200191505060405180910390f35b348015610c3557600080fd5b50610c6260048036036020811015610c4c57600080fd5b8101908080359060200190929190505050612787565b604051808781526020018681526020018581526020018473ffffffffffffffffffffffffffffffffffffffff1681526020018373ffffffffffffffffffffffffffffffffffffffff1681526020018215158152602001965050505050505060405180910390f35b348015610cd557600080fd5b50610cde612810565b6040518082815260200191505060405180910390f35b348015610d0057600080fd5b50610d09612816565b6040518080602001828103825283818151815260200191508051906020019080838360005b83811015610d49578082015181840152602081019050610d2e565b50505050905090810190601f168015610d765780820380516001836020036101000a031916815260200191505b509250505060405180910390f35b348015610d9057600080fd5b50610ddf60048036036040811015610da757600080fd5b81019080803573ffffffffffffffffffffffffffffffffffffffff1690602001909291908035151590602001909291905050506128b8565b005b348015610ded57600080fd5b50610e1a60048036036020811015610e0457600080fd5b8101908080359060200190929190505050612a6e565b005b348015610e2857600080fd5b50610e5560048036036020811015610e3f57600080fd5b8101908080359060200190929190505050612df0565b6040518088815260200187815260200180602001806020018060200186151581526020018573ffffffffffffffffffffffffffffffffffffffff168152602001848103845289818151815260200191508051906020019080838360005b83811015610ecd578082015181840152602081019050610eb2565b50505050905090810190601f168015610efa5780820380516001836020036101000a031916815260200191505b50848103835288818151815260200191508051906020019080838360005b83811015610f33578082015181840152602081019050610f18565b50505050905090810190601f168015610f605780820380516001836020036101000a031916815260200191505b50848103825287818151815260200191508051906020019080838360005b83811015610f99578082015181840152602081019050610f7e565b50505050905090810190601f168015610fc65780820380516001836020036101000a031916815260200191505b509a505050505050505050505060405180910390f35b348015610fe857600080fd5b506110b660048036036060811015610fff57600080fd5b8101908080359060200190929190803590602001909291908035906020019064010000000081111561103057600080fd5b82018360208201111561104257600080fd5b8035906020019184600183028401116401000000008311171561106457600080fd5b91908080601f016020809104026020016040519081016040528093929190818152602001838380828437600081840152601f19601f820116905080830192505050505050509192919290505050613027565b005b3480156110c457600080fd5b506111c8600480360360808110156110db57600080fd5b81019080803573ffffffffffffffffffffffffffffffffffffffff169060200190929190803573ffffffffffffffffffffffffffffffffffffffff169060200190929190803590602001909291908035906020019064010000000081111561114257600080fd5b82018360208201111561115457600080fd5b8035906020019184600183028401116401000000008311171561117657600080fd5b91908080601f016020809104026020016040519081016040528093929190818152602001838380828437600081840152601f19601f820116905080830192505050505050509192919290505050613819565b005b3480156111d657600080fd5b50611203600480360360208110156111ed57600080fd5b8101908080359060200190929190505050613891565b6040518088815260200187815260200180602001806020018060200186151581526020018573ffffffffffffffffffffffffffffffffffffffff168152602001848103845289818151815260200191508051906020019080838360005b8381101561127b578082015181840152602081019050611260565b50505050905090810190601f1680156112a85780820380516001836020036101000a031916815260200191505b50848103835288818151815260200191508051906020019080838360005b838110156112e15780820151818401526020810190506112c6565b50505050905090810190601f16801561130e5780820380516001836020036101000a031916815260200191505b50848103825287818151815260200191508051906020019080838360005b8381101561134757808201518184015260208101905061132c565b50505050905090810190601f1680156113745780820380516001836020036101000a031916815260200191505b509a505050505050505050505060405180910390f35b34801561139657600080fd5b506113c3600480360360208110156113ad57600080fd5b8101908080359060200190929190505050613ac8565b6040518080602001828103825283818151815260200191508051906020019080838360005b838110156114035780820151818401526020810190506113e8565b50505050905090810190601f1680156114305780820380516001836020036101000a031916815260200191505b509250505060405180910390f35b34801561144a57600080fd5b506114776004803603602081101561146157600080fd5b8101908080359060200190929190505050613d99565b6040518088815260200187815260200180602001806020018060200186151581526020018573ffffffffffffffffffffffffffffffffffffffff168152602001848103845289818151815260200191508051906020019080838360005b838110156114ef5780820151818401526020810190506114d4565b50505050905090810190601f16801561151c5780820380516001836020036101000a031916815260200191505b50848103835288818151815260200191508051906020019080838360005b8381101561155557808201518184015260208101905061153a565b50505050905090810190601f1680156115825780820380516001836020036101000a031916815260200191505b50848103825287818151815260200191508051906020019080838360005b838110156115bb5780820151818401526020810190506115a0565b50505050905090810190601f1680156115e85780820380516001836020036101000a031916815260200191505b509a505050505050505050505060405180910390f35b61162a6004803603602081101561161457600080fd5b8101908080359060200190929190505050613fd0565b005b34801561163857600080fd5b5061169b6004803603604081101561164f57600080fd5b81019080803573ffffffffffffffffffffffffffffffffffffffff169060200190929190803573ffffffffffffffffffffffffffffffffffffffff16906020019092919050505061441f565b60405180821515815260200191505060405180910390f35b6000806000837bffffffffffffffffffffffffffffffffffffffffffffffffffffffff19167bffffffffffffffffffffffffffffffffffffffffffffffffffffffff1916815260200190815260200160002060009054906101000a900460ff169050919050565b6011602052806000526040600020600091509050806000015490806001015490806002018054600181600116156101000203166002900480601f0160208091040260200160405190810160405280929190818152602001828054600181600116156101000203166002900480156117d25780601f106117a7576101008083540402835291602001916117d2565b820191906000526020600020905b8154815290600101906020018083116117b557829003601f168201915b505050505090806003018054600181600116156101000203166002900480601f0160208091040260200160405190810160405280929190818152602001828054600181600116156101000203166002900480156118705780601f1061184557610100808354040283529160200191611870565b820191906000526020600020905b81548152906001019060200180831161185357829003601f168201915b505050505090806004018054600181600116156101000203166002900480601f01602080910402602001604051908101604052809291908181526020018280546001816001161561010002031660029004801561190e5780601f106118e35761010080835404028352916020019161190e565b820191906000526020600020905b8154815290600101906020018083116118f157829003601f168201915b5050505050908060050160009054906101000a900460ff16908060050160019054906101000a900473ffffffffffffffffffffffffffffffffffffffff16905087565b60405160200180807f656e676c69736800000000000000000000000000000000000000000000000000815250600701905060405160208183030381529060405280519060200120826040516020018082805190602001908083835b602083106119cf57805182526020820191506020810190506020830392506119ac565b6001836020036101000a038019825116818451168082178552505050505050905001915050604051602081830303815290604052805190602001201415611b8f57600c60008154809291906001019190505550600f600084815260200190815260200160002060116000600c548152602001908152602001600020600082015481600001556001820154816001015560028201816002019080546001816001161561010002031660029004611a8592919061580c565b5060038201816003019080546001816001161561010002031660029004611aad92919061580c565b5060048201816004019080546001816001161561010002031660029004611ad592919061580c565b506005820160009054906101000a900460ff168160050160006101000a81548160ff0219169083151502179055506005820160019054906101000a900473ffffffffffffffffffffffffffffffffffffffff168160050160016101000a81548173ffffffffffffffffffffffffffffffffffffffff021916908373ffffffffffffffffffffffffffffffffffffffff1602179055509050508060116000600c54815260200190815260200160002060010181905550612009565b60405160200180807f6475746368000000000000000000000000000000000000000000000000000000815250600501905060405160208183030381529060405280519060200120826040516020018082805190602001908083835b60208310611c0d5780518252602082019150602081019050602083039250611bea565b6001836020036101000a038019825116818451168082178552505050505050905001915050604051602081830303815290604052805190602001201415611dcd57600d60008154809291906001019190505550600f600084815260200190815260200160002060126000600d548152602001908152602001600020600082015481600001556001820154816001015560028201816002019080546001816001161561010002031660029004611cc392919061580c565b5060038201816003019080546001816001161561010002031660029004611ceb92919061580c565b5060048201816004019080546001816001161561010002031660029004611d1392919061580c565b506005820160009054906101000a900460ff168160050160006101000a81548160ff0219169083151502179055506005820160019054906101000a900473ffffffffffffffffffffffffffffffffffffffff168160050160016101000a81548173ffffffffffffffffffffffffffffffffffffffff021916908373ffffffffffffffffffffffffffffffffffffffff1602179055509050508060126000600d54815260200190815260200160002060010181905550612008565b60405160200180807f7669636b65727900000000000000000000000000000000000000000000000000815250600701905060405160208183030381529060405280519060200120826040516020018082805190602001908083835b60208310611e4b5780518252602082019150602081019050602083039250611e28565b6001836020036101000a03801982511681845116808217855250505050505090500191505060405160208183030381529060405280519060200120141561200757600e60008154809291906001019190505550600f600084815260200190815260200160002060136000600e548152602001908152602001600020600082015481600001556001820154816001015560028201816002019080546001816001161561010002031660029004611f0192919061580c565b5060038201816003019080546001816001161561010002031660029004611f2992919061580c565b5060048201816004019080546001816001161561010002031660029004611f5192919061580c565b506005820160009054906101000a900460ff168160050160006101000a81548160ff0219169083151502179055506005820160019054906101000a900473ffffffffffffffffffffffffffffffffffffffff168160050160016101000a81548173ffffffffffffffffffffffffffffffffffffffff021916908373ffffffffffffffffffffffffffffffffffffffff1602179055509050508060136000600e548152602001908152602001600020600101819055505b5b5b6001600f600085815260200190815260200160002060050160006101000a81548160ff021916908315150217905550505050565b606060068054600181600116156101000203166002900480601f0160208091040260200160405190810160405280929190818152602001828054600181600116156101000203166002900480156120d55780601f106120aa576101008083540402835291602001916120d5565b820191906000526020600020905b8154815290600101906020018083116120b857829003601f168201915b5050505050905090565b60006120ea826144b3565b61213f576040517f08c379a000000000000000000000000000000000000000000000000000000000815260040180806020018281038252602c815260200180615b61602c913960400191505060405180910390fd5b6004600083815260200190815260200160002060009054906101000a900473ffffffffffffffffffffffffffffffffffffffff169050919050565b6000612185826125d9565b90508073ffffffffffffffffffffffffffffffffffffffff168373ffffffffffffffffffffffffffffffffffffffff16141561220c576040517f08c379a0000000000000000000000000000000000000000000000000000000008152600401808060200182810382526021815260200180615c116021913960400191505060405180910390fd5b8073ffffffffffffffffffffffffffffffffffffffff1661222b6144d0565b73ffffffffffffffffffffffffffffffffffffffff16148061225a5750612259816122546144d0565b61441f565b5b6122af576040517f08c379a0000000000000000000000000000000000000000000000000000000008152600401808060200182810382526038815260200180615ab46038913960400191505060405180910390fd5b6122b983836144d8565b505050565b600b5481565b600a5481565b60006122d66002614591565b905090565b6122ec6122e66144d0565b826145a6565b612341576040517f08c379a0000000000000000000000000000000000000000000000000000000008152600401808060200182810382526031815260200180615c326031913960400191505060405180910390fd5b61234c83838361469a565b505050565b60006123a482600160008673ffffffffffffffffffffffffffffffffffffffff1673ffffffffffffffffffffffffffffffffffffffff1681526020019081526020016000206148dd90919063ffffffff16565b905092915050565b600e5481565b600d5481565b6123d383838360405180602001604052806000815250613819565b505050565b6000841161244e576040517f08c379a000000000000000000000000000000000000000000000000000000000815260040180806020018281038252600d8152602001807f496e76616c69642070726963650000000000000000000000000000000000000081525060200191505060405180910390fd5b600a6000815480929190600101919050555061246c33600a546148f7565b612478600a5482614915565b6040518060e00160405280600a5481526020018581526020018481526020018381526020018281526020016000151581526020013373ffffffffffffffffffffffffffffffffffffffff16815250600f6000600a5481526020019081526020016000206000820151816000015560208201518160010155604082015181600201908051906020019061250b929190615893565b506060820151816003019080519060200190612528929190615893565b506080820151816004019080519060200190612545929190615893565b5060a08201518160050160006101000a81548160ff02191690831515021790555060c08201518160050160016101000a81548173ffffffffffffffffffffffffffffffffffffffff021916908373ffffffffffffffffffffffffffffffffffffffff16021790555090505050505050565b6000806125cd83600261499f90919063ffffffff16565b50905080915050919050565b600061260982604051806060016040528060298152602001615b166029913960026149cb9092919063ffffffff16565b9050919050565b606060098054600181600116156101000203166002900480601f0160208091040260200160405190810160405280929190818152602001828054600181600116156101000203166002900480156126a85780601f1061267d576101008083540402835291602001916126a8565b820191906000526020600020905b81548152906001019060200180831161268b57829003601f168201915b5050505050905090565b60008073ffffffffffffffffffffffffffffffffffffffff168273ffffffffffffffffffffffffffffffffffffffff161415612739576040517f08c379a000000000000000000000000000000000000000000000000000000000815260040180806020018281038252602a815260200180615aec602a913960400191505060405180910390fd5b612780600160008473ffffffffffffffffffffffffffffffffffffffff1673ffffffffffffffffffffffffffffffffffffffff1681526020019081526020016000206149ea565b9050919050565b60106020528060005260406000206000915090508060000154908060010154908060020154908060030160009054906101000a900473ffffffffffffffffffffffffffffffffffffffff16908060040160009054906101000a900473ffffffffffffffffffffffffffffffffffffffff16908060040160149054906101000a900460ff16905086565b600c5481565b606060078054600181600116156101000203166002900480601f0160208091040260200160405190810160405280929190818152602001828054600181600116156101000203166002900480156128ae5780601f10612883576101008083540402835291602001916128ae565b820191906000526020600020905b81548152906001019060200180831161289157829003601f168201915b5050505050905090565b6128c06144d0565b73ffffffffffffffffffffffffffffffffffffffff168273ffffffffffffffffffffffffffffffffffffffff161415612961576040517f08c379a00000000000000000000000000000000000000000000000000000000081526004018080602001828103825260198152602001807f4552433732313a20617070726f766520746f2063616c6c65720000000000000081525060200191505060405180910390fd5b806005600061296e6144d0565b73ffffffffffffffffffffffffffffffffffffffff1673ffffffffffffffffffffffffffffffffffffffff16815260200190815260200160002060008473ffffffffffffffffffffffffffffffffffffffff1673ffffffffffffffffffffffffffffffffffffffff16815260200190815260200160002060006101000a81548160ff0219169083151502179055508173ffffffffffffffffffffffffffffffffffffffff16612a1b6144d0565b73ffffffffffffffffffffffffffffffffffffffff167f17307eab39ab6107e8899845ad3d59bd9653f200f220920489ca2b5937696c318360405180821515815260200191505060405180910390a35050565b612a76615913565b601060008381526020019081526020016000206040518060c00160405290816000820154815260200160018201548152602001600282015481526020016003820160009054906101000a900473ffffffffffffffffffffffffffffffffffffffff1673ffffffffffffffffffffffffffffffffffffffff1673ffffffffffffffffffffffffffffffffffffffff1681526020016004820160009054906101000a900473ffffffffffffffffffffffffffffffffffffffff1673ffffffffffffffffffffffffffffffffffffffff1673ffffffffffffffffffffffffffffffffffffffff1681526020016004820160149054906101000a900460ff161515151581525050905060018160a00190151590811515815250506000600190505b600e548111612cd657601360008281526020019081526020016000206002016040516020018082805460018160011615610100020316600290048015612c105780601f10612bee576101008083540402835291820191612c10565b820191906000526020600020905b815481529060010190602001808311612bfc575b505091505060405160208183030381529060405280519060200120600f6000846020015181526020019081526020016000206002016040516020018082805460018160011615610100020316600290048015612ca35780601f10612c81576101008083540402835291820191612ca3565b820191906000526020600020905b815481529060010190602001808311612c8f575b5050915050604051602081830303815290604052805190602001201415612cc957612cd6565b8080600101915050612b93565b6013600082815260200190815260200160002060010154826040018181525050816010600085815260200190815260200160002060008201518160000155602082015181600101556040820151816002015560608201518160030160006101000a81548173ffffffffffffffffffffffffffffffffffffffff021916908373ffffffffffffffffffffffffffffffffffffffff16021790555060808201518160040160006101000a81548173ffffffffffffffffffffffffffffffffffffffff021916908373ffffffffffffffffffffffffffffffffffffffff16021790555060a08201518160040160146101000a81548160ff021916908315150217905550905050612deb8260600151836020015161217a565b505050565b6013602052806000526040600020600091509050806000015490806001015490806002018054600181600116156101000203166002900480601f016020809104026020016040519081016040528092919081815260200182805460018160011615610100020316600290048015612ea85780601f10612e7d57610100808354040283529160200191612ea8565b820191906000526020600020905b815481529060010190602001808311612e8b57829003601f168201915b505050505090806003018054600181600116156101000203166002900480601f016020809104026020016040519081016040528092919081815260200182805460018160011615610100020316600290048015612f465780601f10612f1b57610100808354040283529160200191612f46565b820191906000526020600020905b815481529060010190602001808311612f2957829003601f168201915b505050505090806004018054600181600116156101000203166002900480601f016020809104026020016040519081016040528092919081815260200182805460018160011615610100020316600290048015612fe45780601f10612fb957610100808354040283529160200191612fe4565b820191906000526020600020905b815481529060010190602001808311612fc757829003601f168201915b5050505050908060050160009054906101000a900460ff16908060050160019054906101000a900473ffffffffffffffffffffffffffffffffffffffff16905087565b6000600190505b600e54811161316d576013600082815260200190815260200160002060020160405160200180828054600181600116156101000203166002900480156130ab5780601f106130895761010080835404028352918201916130ab565b820191906000526020600020905b815481529060010190602001808311613097575b505091505060405160208183030381529060405280519060200120600f6000868152602001908152602001600020600201604051602001808280546001816001161561010002031660029004801561313a5780601f1061311857610100808354040283529182019161313a565b820191906000526020600020905b815481529060010190602001808311613126575b50509150506040516020818303038152906040528051906020012014156131605761316d565b808060010191505061302e565b600b600081548092919060010191905055506040518060c00160405280600b5481526020018581526020018481526020013373ffffffffffffffffffffffffffffffffffffffff1681526020016013600084815260200190815260200160002060050160019054906101000a900473ffffffffffffffffffffffffffffffffffffffff1673ffffffffffffffffffffffffffffffffffffffff1681526020016000151581525060106000600b54815260200190815260200160002060008201518160000155602082015181600101556040820151816002015560608201518160030160006101000a81548173ffffffffffffffffffffffffffffffffffffffff021916908373ffffffffffffffffffffffffffffffffffffffff16021790555060808201518160040160006101000a81548173ffffffffffffffffffffffffffffffffffffffff021916908373ffffffffffffffffffffffffffffffffffffffff16021790555060a08201518160040160146101000a81548160ff02191690831515021790555090505060405160200180807f7669636b65727900000000000000000000000000000000000000000000000000815250600701905060405160208183030381529060405280519060200120826040516020018082805190602001908083835b602083106133755780518252602082019150602081019050602083039250613352565b6001836020036101000a038019825116818451168082178552505050505050905001915050604051602081830303815290604052805190602001201415613813576133be615977565b601360008381526020019081526020016000206040518060e00160405290816000820154815260200160018201548152602001600282018054600181600116156101000203166002900480601f0160208091040260200160405190810160405280929190818152602001828054600181600116156101000203166002900480156134895780601f1061345e57610100808354040283529160200191613489565b820191906000526020600020905b81548152906001019060200180831161346c57829003601f168201915b50505050508152602001600382018054600181600116156101000203166002900480601f01602080910402602001604051908101604052809291908181526020018280546001816001161561010002031660029004801561352b5780601f106135005761010080835404028352916020019161352b565b820191906000526020600020905b81548152906001019060200180831161350e57829003601f168201915b50505050508152602001600482018054600181600116156101000203166002900480601f0160208091040260200160405190810160405280929190818152602001828054600181600116156101000203166002900480156135cd5780601f106135a2576101008083540402835291602001916135cd565b820191906000526020600020905b8154815290600101906020018083116135b057829003601f168201915b505050505081526020016005820160009054906101000a900460ff161515151581526020016005820160019054906101000a900473ffffffffffffffffffffffffffffffffffffffff1673ffffffffffffffffffffffffffffffffffffffff1673ffffffffffffffffffffffffffffffffffffffff16815250509050600080600090506000819050600192505b600b54831161371b576013600086815260200190815260200160002060000154601060008581526020019081526020016000206001015414156137105781601060008581526020019081526020016000206002015411156136d6578190506010600084815260200190815260200160002060020154915061370f565b806010600085815260200190815260200160002060020154111561370e57601060008481526020019081526020016000206002015490505b5b5b82600101925061365a565b80846020018181525050836013600087815260200190815260200160002060008201518160000155602082015181600101556040820151816002019080519060200190613769929190615893565b506060820151816003019080519060200190613786929190615893565b5060808201518160040190805190602001906137a3929190615893565b5060a08201518160050160006101000a81548160ff02191690831515021790555060c08201518160050160016101000a81548173ffffffffffffffffffffffffffffffffffffffff021916908373ffffffffffffffffffffffffffffffffffffffff160217905550905050505050505b50505050565b61382a6138246144d0565b836145a6565b61387f576040517f08c379a0000000000000000000000000000000000000000000000000000000008152600401808060200182810382526031815260200180615c326031913960400191505060405180910390fd5b61388b848484846149ff565b50505050565b600f602052806000526040600020600091509050806000015490806001015490806002018054600181600116156101000203166002900480601f0160208091040260200160405190810160405280929190818152602001828054600181600116156101000203166002900480156139495780601f1061391e57610100808354040283529160200191613949565b820191906000526020600020905b81548152906001019060200180831161392c57829003601f168201915b505050505090806003018054600181600116156101000203166002900480601f0160208091040260200160405190810160405280929190818152602001828054600181600116156101000203166002900480156139e75780601f106139bc576101008083540402835291602001916139e7565b820191906000526020600020905b8154815290600101906020018083116139ca57829003601f168201915b505050505090806004018054600181600116156101000203166002900480601f016020809104026020016040519081016040528092919081815260200182805460018160011615610100020316600290048015613a855780601f10613a5a57610100808354040283529160200191613a85565b820191906000526020600020905b815481529060010190602001808311613a6857829003601f168201915b5050505050908060050160009054906101000a900460ff16908060050160019054906101000a900473ffffffffffffffffffffffffffffffffffffffff16905087565b6060613ad3826144b3565b613b28576040517f08c379a000000000000000000000000000000000000000000000000000000000815260040180806020018281038252602f815260200180615be2602f913960400191505060405180910390fd5b6060600860008481526020019081526020016000208054600181600116156101000203166002900480601f016020809104026020016040519081016040528092919081815260200182805460018160011615610100020316600290048015613bd15780601f10613ba657610100808354040283529160200191613bd1565b820191906000526020600020905b815481529060010190602001808311613bb457829003601f168201915b505050505090506060613be2612610565b9050600081511415613bf8578192505050613d94565b600082511115613cc95780826040516020018083805190602001908083835b60208310613c3a5780518252602082019150602081019050602083039250613c17565b6001836020036101000a03801982511681845116808217855250505050505090500182805190602001908083835b60208310613c8b5780518252602082019150602081019050602083039250613c68565b6001836020036101000a0380198251168184511680821785525050505050509050019250505060405160208183030381529060405292505050613d94565b80613cd385614a71565b6040516020018083805190602001908083835b60208310613d095780518252602082019150602081019050602083039250613ce6565b6001836020036101000a03801982511681845116808217855250505050505090500182805190602001908083835b60208310613d5a5780518252602082019150602081019050602083039250613d37565b6001836020036101000a03801982511681845116808217855250505050505090500192505050604051602081830303815290604052925050505b919050565b6012602052806000526040600020600091509050806000015490806001015490806002018054600181600116156101000203166002900480601f016020809104026020016040519081016040528092919081815260200182805460018160011615610100020316600290048015613e515780601f10613e2657610100808354040283529160200191613e51565b820191906000526020600020905b815481529060010190602001808311613e3457829003601f168201915b505050505090806003018054600181600116156101000203166002900480601f016020809104026020016040519081016040528092919081815260200182805460018160011615610100020316600290048015613eef5780601f10613ec457610100808354040283529160200191613eef565b820191906000526020600020905b815481529060010190602001808311613ed257829003601f168201915b505050505090806004018054600181600116156101000203166002900480601f016020809104026020016040519081016040528092919081815260200182805460018160011615610100020316600290048015613f8d5780601f10613f6257610100808354040283529160200191613f8d565b820191906000526020600020905b815481529060010190602001808311613f7057829003601f168201915b5050505050908060050160009054906101000a900460ff16908060050160019054906101000a900473ffffffffffffffffffffffffffffffffffffffff16905087565b613fd8615977565b600f60008381526020019081526020016000206040518060e00160405290816000820154815260200160018201548152602001600282018054600181600116156101000203166002900480601f0160208091040260200160405190810160405280929190818152602001828054600181600116156101000203166002900480156140a35780601f10614078576101008083540402835291602001916140a3565b820191906000526020600020905b81548152906001019060200180831161408657829003601f168201915b50505050508152602001600382018054600181600116156101000203166002900480601f0160208091040260200160405190810160405280929190818152602001828054600181600116156101000203166002900480156141455780601f1061411a57610100808354040283529160200191614145565b820191906000526020600020905b81548152906001019060200180831161412857829003601f168201915b50505050508152602001600482018054600181600116156101000203166002900480601f0160208091040260200160405190810160405280929190818152602001828054600181600116156101000203166002900480156141e75780601f106141bc576101008083540402835291602001916141e7565b820191906000526020600020905b8154815290600101906020018083116141ca57829003601f168201915b505050505081526020016005820160009054906101000a900460ff161515151581526020016005820160019054906101000a900473ffffffffffffffffffffffffffffffffffffffff1673ffffffffffffffffffffffffffffffffffffffff1673ffffffffffffffffffffffffffffffffffffffff1681525050905060008160c00151905060008173ffffffffffffffffffffffffffffffffffffffff163460405180600001905060006040518083038185875af1925050503d80600081146142cc576040519150601f19603f3d011682016040523d82523d6000602084013e6142d1565b606091505b505090508015614419576142e68233866123b8565b60008360a0019015159081151581525050338360c0019073ffffffffffffffffffffffffffffffffffffffff16908173ffffffffffffffffffffffffffffffffffffffff168152505082600f600086815260200190815260200160002060008201518160000155602082015181600101556040820151816002019080519060200190614373929190615893565b506060820151816003019080519060200190614390929190615893565b5060808201518160040190805190602001906143ad929190615893565b5060a08201518160050160006101000a81548160ff02191690831515021790555060c08201518160050160016101000a81548173ffffffffffffffffffffffffffffffffffffffff021916908373ffffffffffffffffffffffffffffffffffffffff1602179055509050505b50505050565b6000600560008473ffffffffffffffffffffffffffffffffffffffff1673ffffffffffffffffffffffffffffffffffffffff16815260200190815260200160002060008373ffffffffffffffffffffffffffffffffffffffff1673ffffffffffffffffffffffffffffffffffffffff16815260200190815260200160002060009054906101000a900460ff16905092915050565b60006144c9826002614bb890919063ffffffff16565b9050919050565b600033905090565b816004600083815260200190815260200160002060006101000a81548173ffffffffffffffffffffffffffffffffffffffff021916908373ffffffffffffffffffffffffffffffffffffffff160217905550808273ffffffffffffffffffffffffffffffffffffffff1661454b836125d9565b73ffffffffffffffffffffffffffffffffffffffff167f8c5be1e5ebec7d5bd14f71427d1e84f3dd0314c0f7b2291e5b200ac8c7c3b92560405160405180910390a45050565b600061459f82600001614bd2565b9050919050565b60006145b1826144b3565b614606576040517f08c379a000000000000000000000000000000000000000000000000000000000815260040180806020018281038252602c815260200180615a88602c913960400191505060405180910390fd5b6000614611836125d9565b90508073ffffffffffffffffffffffffffffffffffffffff168473ffffffffffffffffffffffffffffffffffffffff16148061468057508373ffffffffffffffffffffffffffffffffffffffff16614668846120df565b73ffffffffffffffffffffffffffffffffffffffff16145b806146915750614690818561441f565b5b91505092915050565b8273ffffffffffffffffffffffffffffffffffffffff166146ba826125d9565b73ffffffffffffffffffffffffffffffffffffffff1614614726576040517f08c379a0000000000000000000000000000000000000000000000000000000008152600401808060200182810382526029815260200180615bb96029913960400191505060405180910390fd5b600073ffffffffffffffffffffffffffffffffffffffff168273ffffffffffffffffffffffffffffffffffffffff1614156147ac576040517f08c379a0000000000000000000000000000000000000000000000000000000008152600401808060200182810382526024815260200180615a3e6024913960400191505060405180910390fd5b6147b7838383614be3565b6147c26000826144d8565b61481381600160008673ffffffffffffffffffffffffffffffffffffffff1673ffffffffffffffffffffffffffffffffffffffff168152602001908152602001600020614be890919063ffffffff16565b5061486581600160008573ffffffffffffffffffffffffffffffffffffffff1673ffffffffffffffffffffffffffffffffffffffff168152602001908152602001600020614c0290919063ffffffff16565b5061487c81836002614c1c9092919063ffffffff16565b50808273ffffffffffffffffffffffffffffffffffffffff168473ffffffffffffffffffffffffffffffffffffffff167fddf252ad1be2c89b69c2b068fc378daa952ba7f163c4a11628f55a4df523b3ef60405160405180910390a4505050565b60006148ec8360000183614c51565b60001c905092915050565b614911828260405180602001604052806000815250614cd4565b5050565b61491e826144b3565b614973576040517f08c379a000000000000000000000000000000000000000000000000000000000815260040180806020018281038252602c815260200180615b8d602c913960400191505060405180910390fd5b8060086000848152602001908152602001600020908051906020019061499a929190615893565b505050565b6000806000806149b28660000186614d45565b915091508160001c8160001c9350935050509250929050565b60006149de846000018460001b84614dde565b60001c90509392505050565b60006149f882600001614ed4565b9050919050565b614a0a84848461469a565b614a1684848484614ee5565b614a6b576040517f08c379a0000000000000000000000000000000000000000000000000000000008152600401808060200182810382526032815260200180615a0c6032913960400191505060405180910390fd5b50505050565b60606000821415614ab9576040518060400160405280600181526020017f30000000000000000000000000000000000000000000000000000000000000008152509050614bb3565b600082905060005b60008214614ae3578080600101915050600a8281614adb57fe5b049150614ac1565b60608167ffffffffffffffff81118015614afc57600080fd5b506040519080825280601f01601f191660200182016040528015614b2f5781602001600182028036833780820191505090505b50905060006001830390508593505b60008414614bab57600a8481614b5057fe5b0660300160f81b82828060019003935081518110614b6a57fe5b60200101907effffffffffffffffffffffffffffffffffffffffffffffffffffffffffffff1916908160001a905350600a8481614ba357fe5b049350614b3e565b819450505050505b919050565b6000614bca836000018360001b6150fe565b905092915050565b600081600001805490509050919050565b505050565b6000614bfa836000018360001b615121565b905092915050565b6000614c14836000018360001b615209565b905092915050565b6000614c48846000018460001b8473ffffffffffffffffffffffffffffffffffffffff1660001b615279565b90509392505050565b600081836000018054905011614cb2576040517f08c379a00000000000000000000000000000000000000000000000000000000081526004018080602001828103825260228152602001806159ea6022913960400191505060405180910390fd5b826000018281548110614cc157fe5b9060005260206000200154905092915050565b614cde8383615355565b614ceb6000848484614ee5565b614d40576040517f08c379a0000000000000000000000000000000000000000000000000000000008152600401808060200182810382526032815260200180615a0c6032913960400191505060405180910390fd5b505050565b60008082846000018054905011614da7576040517f08c379a0000000000000000000000000000000000000000000000000000000008152600401808060200182810382526022815260200180615b3f6022913960400191505060405180910390fd5b6000846000018481548110614db857fe5b906000526020600020906002020190508060000154816001015492509250509250929050565b60008084600101600085815260200190815260200160002054905060008114158390614ea5576040517f08c379a00000000000000000000000000000000000000000000000000000000081526004018080602001828103825283818151815260200191508051906020019080838360005b83811015614e6a578082015181840152602081019050614e4f565b50505050905090810190601f168015614e975780820380516001836020036101000a031916815260200191505b509250505060405180910390fd5b50846000016001820381548110614eb857fe5b9060005260206000209060020201600101549150509392505050565b600081600001805490509050919050565b6000614f068473ffffffffffffffffffffffffffffffffffffffff16615549565b614f1357600190506150f6565b606061507d63150b7a0260e01b614f286144d0565b888787604051602401808573ffffffffffffffffffffffffffffffffffffffff1681526020018473ffffffffffffffffffffffffffffffffffffffff16815260200183815260200180602001828103825283818151815260200191508051906020019080838360005b83811015614fac578082015181840152602081019050614f91565b50505050905090810190601f168015614fd95780820380516001836020036101000a031916815260200191505b5095505050505050604051602081830303815290604052907bffffffffffffffffffffffffffffffffffffffffffffffffffffffff19166020820180517bffffffffffffffffffffffffffffffffffffffffffffffffffffffff8381831617835250505050604051806060016040528060328152602001615a0c603291398773ffffffffffffffffffffffffffffffffffffffff1661555c9092919063ffffffff16565b9050600081806020019051602081101561509657600080fd5b8101908080519060200190929190505050905063150b7a0260e01b7bffffffffffffffffffffffffffffffffffffffffffffffffffffffff1916817bffffffffffffffffffffffffffffffffffffffffffffffffffffffff191614925050505b949350505050565b600080836001016000848152602001908152602001600020541415905092915050565b600080836001016000848152602001908152602001600020549050600081146151fd576000600182039050600060018660000180549050039050600086600001828154811061516c57fe5b906000526020600020015490508087600001848154811061518957fe5b90600052602060002001819055506001830187600101600083815260200190815260200160002081905550866000018054806151c157fe5b60019003818190600052602060002001600090559055866001016000878152602001908152602001600020600090556001945050505050615203565b60009150505b92915050565b60006152158383615574565b61526e578260000182908060018154018082558091505060019003906000526020600020016000909190919091505582600001805490508360010160008481526020019081526020016000208190555060019050615273565b600090505b92915050565b60008084600101600085815260200190815260200160002054905060008114156153205784600001604051806040016040528086815260200185815250908060018154018082558091505060019003906000526020600020906002020160009091909190915060008201518160000155602082015181600101555050846000018054905085600101600086815260200190815260200160002081905550600191505061534e565b8285600001600183038154811061533357fe5b90600052602060002090600202016001018190555060009150505b9392505050565b600073ffffffffffffffffffffffffffffffffffffffff168273ffffffffffffffffffffffffffffffffffffffff1614156153f8576040517f08c379a00000000000000000000000000000000000000000000000000000000081526004018080602001828103825260208152602001807f4552433732313a206d696e7420746f20746865207a65726f206164647265737381525060200191505060405180910390fd5b615401816144b3565b15615474576040517f08c379a000000000000000000000000000000000000000000000000000000000815260040180806020018281038252601c8152602001807f4552433732313a20746f6b656e20616c7265616479206d696e7465640000000081525060200191505060405180910390fd5b61548060008383614be3565b6154d181600160008573ffffffffffffffffffffffffffffffffffffffff1673ffffffffffffffffffffffffffffffffffffffff168152602001908152602001600020614c0290919063ffffffff16565b506154e881836002614c1c9092919063ffffffff16565b50808273ffffffffffffffffffffffffffffffffffffffff16600073ffffffffffffffffffffffffffffffffffffffff167fddf252ad1be2c89b69c2b068fc378daa952ba7f163c4a11628f55a4df523b3ef60405160405180910390a45050565b600080823b905060008111915050919050565b606061556b8484600085615597565b90509392505050565b600080836001016000848152602001908152602001600020541415905092915050565b6060824710156155f2576040517f08c379a0000000000000000000000000000000000000000000000000000000008152600401808060200182810382526026815260200180615a626026913960400191505060405180910390fd5b6155fb85615549565b61566d576040517f08c379a000000000000000000000000000000000000000000000000000000000815260040180806020018281038252601d8152602001807f416464726573733a2063616c6c20746f206e6f6e2d636f6e747261637400000081525060200191505060405180910390fd5b600060608673ffffffffffffffffffffffffffffffffffffffff1685876040518082805190602001908083835b602083106156bd578051825260208201915060208101905060208303925061569a565b6001836020036101000a03801982511681845116808217855250505050505090500191505060006040518083038185875af1925050503d806000811461571f576040519150601f19603f3d011682016040523d82523d6000602084013e615724565b606091505b5091509150615734828286615740565b92505050949350505050565b6060831561575057829050615805565b6000835111156157635782518084602001fd5b816040517f08c379a00000000000000000000000000000000000000000000000000000000081526004018080602001828103825283818151815260200191508051906020019080838360005b838110156157ca5780820151818401526020810190506157af565b50505050905090810190601f1680156157f75780820380516001836020036101000a031916815260200191505b509250505060405180910390fd5b9392505050565b828054600181600116156101000203166002900490600052602060002090601f016020900481019282601f106158455780548555615882565b8280016001018555821561588257600052602060002091601f016020900482015b82811115615881578254825591600101919060010190615866565b5b50905061588f91906159cc565b5090565b828054600181600116156101000203166002900490600052602060002090601f016020900481019282601f106158d457805160ff1916838001178555615902565b82800160010185558215615902579182015b828111156159015782518255916020019190600101906158e6565b5b50905061590f91906159cc565b5090565b6040518060c00160405280600081526020016000815260200160008152602001600073ffffffffffffffffffffffffffffffffffffffff168152602001600073ffffffffffffffffffffffffffffffffffffffff1681526020016000151581525090565b6040518060e001604052806000815260200160008152602001606081526020016060815260200160608152602001600015158152602001600073ffffffffffffffffffffffffffffffffffffffff1681525090565b5b808211156159e55760008160009055506001016159cd565b509056fe456e756d657261626c655365743a20696e646578206f7574206f6620626f756e64734552433732313a207472616e7366657220746f206e6f6e20455243373231526563656976657220696d706c656d656e7465724552433732313a207472616e7366657220746f20746865207a65726f2061646472657373416464726573733a20696e73756666696369656e742062616c616e636520666f722063616c6c4552433732313a206f70657261746f7220717565727920666f72206e6f6e6578697374656e7420746f6b656e4552433732313a20617070726f76652063616c6c6572206973206e6f74206f776e6572206e6f7220617070726f76656420666f7220616c6c4552433732313a2062616c616e636520717565727920666f7220746865207a65726f20616464726573734552433732313a206f776e657220717565727920666f72206e6f6e6578697374656e7420746f6b656e456e756d657261626c654d61703a20696e646578206f7574206f6620626f756e64734552433732313a20617070726f76656420717565727920666f72206e6f6e6578697374656e7420746f6b656e4552433732314d657461646174613a2055524920736574206f66206e6f6e6578697374656e7420746f6b656e4552433732313a207472616e73666572206f6620746f6b656e2074686174206973206e6f74206f776e4552433732314d657461646174613a2055524920717565727920666f72206e6f6e6578697374656e7420746f6b656e4552433732313a20617070726f76616c20746f2063757272656e74206f776e65724552433732313a207472616e736665722063616c6c6572206973206e6f74206f776e6572206e6f7220617070726f766564a26469706673582212205194d0cddfe3798e5ca69a27d4f9e42fc7109b11e4cf2da1cd582a84ca10808964736f6c63430007010033",
  "immutableReferences": {},
  "source": "// SPDX-License-Identifier: GPL-3.0\r\n\r\npragma solidity >=0.7.0 <0.9.0;\r\n\r\nimport \"@openzeppelin/contracts/token/ERC721/ERC721.sol\";\r\n\r\ncontract Nfto is ERC721 {\r\n    constructor() public ERC721(\"Nfto\", \"NFTO\") {}\r\n    \r\n    uint public tokenId;\r\n    uint public offerCount;\r\n    uint public eCount;\r\n    uint public dCount;\r\n    uint public vCount;\r\n    \r\n    mapping(uint => Item) public items;\r\n    mapping(uint => Offer) public offers;\r\n    mapping(uint => Item) public english;\r\n    mapping(uint => Item) public dutch;\r\n    mapping(uint => Item) public vickery;\r\n\r\n    struct Item {\r\n        uint id;\r\n        uint256 latestPrice;\r\n        string name;\r\n        string description;\r\n        string cid;\r\n        bool isListed;\r\n        address payable owner;\r\n    }\r\n\r\n    struct Offer {\r\n        uint id;\r\n        uint tId;\r\n        uint256 offerAmount;\r\n        address bidder;\r\n        address auctioneer;\r\n        bool isApproved;\r\n    }\r\n\r\n    \r\n    function mintItem(uint256 _price, string memory _name, string memory _description, string memory _cid) external {\r\n        require(_price > 0, \"Invalid price\");\r\n        tokenId++;\r\n        _safeMint(msg.sender, tokenId);\r\n        _setTokenURI(tokenId, _cid);\r\n        items[tokenId] = Item(tokenId, _price, _name, _description, _cid, false, msg.sender);\r\n    }\r\n\r\n\r\n    function listItem(uint _id, string memory _type, uint256 _price) external {\r\n\r\n        if(keccak256(abi.encodePacked((_type))) == keccak256(abi.encodePacked((\"english\")))) {\r\n            eCount++;\r\n            english[eCount] = items[_id];\r\n            english[eCount].latestPrice = _price;\r\n        }\r\n\r\n        else if(keccak256(abi.encodePacked((_type))) == keccak256(abi.encodePacked((\"dutch\")))) {\r\n            dCount++;\r\n            dutch[dCount] = items[_id];\r\n            dutch[dCount].latestPrice = _price;\r\n        }\r\n\r\n        else if(keccak256(abi.encodePacked((_type))) == keccak256(abi.encodePacked((\"vickery\")))) {\r\n            vCount++;\r\n            vickery[vCount] = items[_id];\r\n            vickery[vCount].latestPrice = _price;\r\n        }\r\n\r\n        items[_id].isListed = true;\r\n    }\r\n\r\n    function makeOffer(uint _id, uint256 _amount, string memory _type) external {\r\n\r\n        uint j;\r\n        for(j = 1; j <= vCount; j++) {\r\n            if(keccak256(abi.encodePacked((items[_id].name))) == keccak256(abi.encodePacked((vickery[j].name)))) {\r\n                break;\r\n            }\r\n        }\r\n\r\n        offerCount++;\r\n        offers[offerCount] = Offer(offerCount, _id, _amount, msg.sender, vickery[j].owner, false);       \r\n\r\n        if(keccak256(abi.encodePacked((_type))) == keccak256(abi.encodePacked((\"vickery\")))) {\r\n            Item memory item = vickery[j];\r\n            uint i;\r\n            uint largestAmount = 0;\r\n            uint seclargestAmount = largestAmount;\r\n\r\n            for(i = 1; i <= offerCount; ++i) {\r\n                if(offers[i].tId == vickery[j].id) {                    \r\n                    if(offers[i].offerAmount > largestAmount) {\r\n                        seclargestAmount = largestAmount;\r\n                        largestAmount = offers[i].offerAmount;\r\n                    }\r\n                    else if(offers[i].offerAmount > seclargestAmount) {\r\n                        seclargestAmount = offers[i].offerAmount;\r\n                    }\r\n                }\r\n            }\r\n\r\n            item.latestPrice = seclargestAmount;\r\n            vickery[j] = item;\r\n        }\r\n    }\r\n\r\n    function approveOffer(uint _id) external {\r\n        Offer memory offer = offers[_id];\r\n        offer.isApproved = true;\r\n        uint j;\r\n        for(j = 1; j <= vCount; j++) {\r\n            if(keccak256(abi.encodePacked((items[offer.tId].name))) == keccak256(abi.encodePacked((vickery[j].name)))) {\r\n                break;\r\n            }\r\n        }\r\n        offer.offerAmount = vickery[j].latestPrice;\r\n        offers[_id] = offer;\r\n        approve(offer.bidder, offer.tId);\r\n    }\r\n\r\n\r\n    function purchaseItem(uint _tId) external payable {\r\n        Item memory item = items[_tId];\r\n        address payable owner = item.owner;\r\n        (bool isSent, ) = owner.call{value: msg.value}(\"\");\r\n\r\n        if(isSent) {\r\n            safeTransferFrom(owner, msg.sender, _tId);\r\n            item.isListed = false;\r\n            item.owner = msg.sender;\r\n            items[_tId] = item;\r\n        }\r\n    }\r\n}",
  "sourcePath": "C:/Users/Abel Simon Zachariah/Projects/NFT-Ocean/src/contracts/Nfto.sol",
  "compiler": {
    "name": "solc",
    "version": "0.7.1+commit.f4a555be.Emscripten.clang"
  },
  "schemaVersion": "3.3.4",
  "updatedAt": "2021-08-07T09:22:18.279Z",
  "networkType": "ethereum",
  "devdoc": {
    "kind": "dev",
    "methods": {
      "approve(address,uint256)": {
        "details": "See {IERC721-approve}."
      },
      "balanceOf(address)": {
        "details": "See {IERC721-balanceOf}."
      },
      "baseURI()": {
        "details": "Returns the base URI set via {_setBaseURI}. This will be automatically added as a prefix in {tokenURI} to each token's URI, or to the token ID if no specific URI is set for that token ID."
      },
      "getApproved(uint256)": {
        "details": "See {IERC721-getApproved}."
      },
      "isApprovedForAll(address,address)": {
        "details": "See {IERC721-isApprovedForAll}."
      },
      "name()": {
        "details": "See {IERC721Metadata-name}."
      },
      "ownerOf(uint256)": {
        "details": "See {IERC721-ownerOf}."
      },
      "safeTransferFrom(address,address,uint256)": {
        "details": "See {IERC721-safeTransferFrom}."
      },
      "safeTransferFrom(address,address,uint256,bytes)": {
        "details": "See {IERC721-safeTransferFrom}."
      },
      "setApprovalForAll(address,bool)": {
        "details": "See {IERC721-setApprovalForAll}."
      },
      "supportsInterface(bytes4)": {
        "details": "See {IERC165-supportsInterface}. Time complexity O(1), guaranteed to always use less than 30 000 gas."
      },
      "symbol()": {
        "details": "See {IERC721Metadata-symbol}."
      },
      "tokenByIndex(uint256)": {
        "details": "See {IERC721Enumerable-tokenByIndex}."
      },
      "tokenOfOwnerByIndex(address,uint256)": {
        "details": "See {IERC721Enumerable-tokenOfOwnerByIndex}."
      },
      "tokenURI(uint256)": {
        "details": "See {IERC721Metadata-tokenURI}."
      },
      "totalSupply()": {
        "details": "See {IERC721Enumerable-totalSupply}."
      },
      "transferFrom(address,address,uint256)": {
        "details": "See {IERC721-transferFrom}."
      }
    },
    "version": 1
  },
  "userdoc": {
    "kind": "user",
    "methods": {},
    "version": 1
  }
}